{
    "contractName": "Galaget",
    "abi": [
        {
            "inputs": [
                {
                    "internalType": "string",
                    "name": "name",
                    "type": "string"
                },
                {
                    "internalType": "string",
                    "name": "symbol",
                    "type": "string"
                },
                {
                    "internalType": "string",
                    "name": "baseTokenURI",
                    "type": "string"
                }
            ],
            "stateMutability": "nonpayable",
            "type": "constructor"
        },
        {
            "anonymous": false,
            "inputs": [
                {
                    "indexed": true,
                    "internalType": "address",
                    "name": "owner",
                    "type": "address"
                },
                {
                    "indexed": true,
                    "internalType": "address",
                    "name": "approved",
                    "type": "address"
                },
                {
                    "indexed": true,
                    "internalType": "uint256",
                    "name": "tokenId",
                    "type": "uint256"
                }
            ],
            "name": "Approval",
            "type": "event"
        },
        {
            "anonymous": false,
            "inputs": [
                {
                    "indexed": true,
                    "internalType": "address",
                    "name": "owner",
                    "type": "address"
                },
                {
                    "indexed": true,
                    "internalType": "address",
                    "name": "operator",
                    "type": "address"
                },
                {
                    "indexed": false,
                    "internalType": "bool",
                    "name": "approved",
                    "type": "bool"
                }
            ],
            "name": "ApprovalForAll",
            "type": "event"
        },
        {
            "anonymous": false,
            "inputs": [
                {
                    "indexed": true,
                    "internalType": "address",
                    "name": "previousOwner",
                    "type": "address"
                },
                {
                    "indexed": true,
                    "internalType": "address",
                    "name": "newOwner",
                    "type": "address"
                }
            ],
            "name": "OwnershipTransferred",
            "type": "event"
        },
        {
            "anonymous": false,
            "inputs": [
                {
                    "indexed": false,
                    "internalType": "address",
                    "name": "account",
                    "type": "address"
                }
            ],
            "name": "Paused",
            "type": "event"
        },
        {
            "anonymous": false,
            "inputs": [
                {
                    "indexed": true,
                    "internalType": "address",
                    "name": "from",
                    "type": "address"
                },
                {
                    "indexed": true,
                    "internalType": "address",
                    "name": "to",
                    "type": "address"
                },
                {
                    "indexed": true,
                    "internalType": "uint256",
                    "name": "tokenId",
                    "type": "uint256"
                }
            ],
            "name": "Transfer",
            "type": "event"
        },
        {
            "anonymous": false,
            "inputs": [
                {
                    "indexed": false,
                    "internalType": "address",
                    "name": "account",
                    "type": "address"
                }
            ],
            "name": "Unpaused",
            "type": "event"
        },
        {
            "inputs": [],
            "name": "TOKEN_LIMIT",
            "outputs": [
                {
                    "internalType": "uint16",
                    "name": "",
                    "type": "uint16"
                }
            ],
            "stateMutability": "view",
            "type": "function"
        },
        {
            "inputs": [
                {
                    "internalType": "address",
                    "name": "to",
                    "type": "address"
                },
                {
                    "internalType": "uint256",
                    "name": "tokenId",
                    "type": "uint256"
                }
            ],
            "name": "approve",
            "outputs": [],
            "stateMutability": "nonpayable",
            "type": "function"
        },
        {
            "inputs": [
                {
                    "internalType": "address",
                    "name": "owner",
                    "type": "address"
                }
            ],
            "name": "balanceOf",
            "outputs": [
                {
                    "internalType": "uint256",
                    "name": "",
                    "type": "uint256"
                }
            ],
            "stateMutability": "view",
            "type": "function"
        },
        {
            "inputs": [],
            "name": "contractURI",
            "outputs": [
                {
                    "internalType": "string",
                    "name": "",
                    "type": "string"
                }
            ],
            "stateMutability": "pure",
            "type": "function"
        },
        {
            "inputs": [
                {
                    "internalType": "uint256",
                    "name": "tokenId",
                    "type": "uint256"
                }
            ],
            "name": "getApproved",
            "outputs": [
                {
                    "internalType": "address",
                    "name": "",
                    "type": "address"
                }
            ],
            "stateMutability": "view",
            "type": "function"
        },
        {
            "inputs": [
                {
                    "internalType": "uint256",
                    "name": "tokenId",
                    "type": "uint256"
                }
            ],
            "name": "getMintPrice",
            "outputs": [
                {
                    "internalType": "uint256",
                    "name": "",
                    "type": "uint256"
                }
            ],
            "stateMutability": "pure",
            "type": "function"
        },
        {
            "inputs": [
                {
                    "internalType": "address",
                    "name": "owner",
                    "type": "address"
                },
                {
                    "internalType": "address",
                    "name": "operator",
                    "type": "address"
                }
            ],
            "name": "isApprovedForAll",
            "outputs": [
                {
                    "internalType": "bool",
                    "name": "",
                    "type": "bool"
                }
            ],
            "stateMutability": "view",
            "type": "function"
        },
        {
            "inputs": [],
            "name": "mintToken",
            "outputs": [],
            "stateMutability": "payable",
            "type": "function"
        },
        {
            "inputs": [],
            "name": "name",
            "outputs": [
                {
                    "internalType": "string",
                    "name": "",
                    "type": "string"
                }
            ],
            "stateMutability": "view",
            "type": "function"
        },
        {
            "inputs": [],
            "name": "owner",
            "outputs": [
                {
                    "internalType": "address",
                    "name": "",
                    "type": "address"
                }
            ],
            "stateMutability": "view",
            "type": "function"
        },
        {
            "inputs": [
                {
                    "internalType": "uint256",
                    "name": "tokenId",
                    "type": "uint256"
                }
            ],
            "name": "ownerOf",
            "outputs": [
                {
                    "internalType": "address",
                    "name": "",
                    "type": "address"
                }
            ],
            "stateMutability": "view",
            "type": "function"
        },
        {
            "inputs": [],
            "name": "pause",
            "outputs": [],
            "stateMutability": "nonpayable",
            "type": "function"
        },
        {
            "inputs": [],
            "name": "paused",
            "outputs": [
                {
                    "internalType": "bool",
                    "name": "",
                    "type": "bool"
                }
            ],
            "stateMutability": "view",
            "type": "function"
        },
        {
            "inputs": [],
            "name": "renounceOwnership",
            "outputs": [],
            "stateMutability": "nonpayable",
            "type": "function"
        },
        {
            "inputs": [
                {
                    "internalType": "uint256",
                    "name": "",
                    "type": "uint256"
                },
                {
                    "internalType": "uint256",
                    "name": "_salePrice",
                    "type": "uint256"
                }
            ],
            "name": "royaltyInfo",
            "outputs": [
                {
                    "internalType": "address",
                    "name": "receiver",
                    "type": "address"
                },
                {
                    "internalType": "uint256",
                    "name": "royaltyAmount",
                    "type": "uint256"
                }
            ],
            "stateMutability": "view",
            "type": "function"
        },
        {
            "inputs": [
                {
                    "internalType": "address",
                    "name": "from",
                    "type": "address"
                },
                {
                    "internalType": "address",
                    "name": "to",
                    "type": "address"
                },
                {
                    "internalType": "uint256",
                    "name": "tokenId",
                    "type": "uint256"
                }
            ],
            "name": "safeTransferFrom",
            "outputs": [],
            "stateMutability": "nonpayable",
            "type": "function"
        },
        {
            "inputs": [
                {
                    "internalType": "address",
                    "name": "from",
                    "type": "address"
                },
                {
                    "internalType": "address",
                    "name": "to",
                    "type": "address"
                },
                {
                    "internalType": "uint256",
                    "name": "tokenId",
                    "type": "uint256"
                },
                {
                    "internalType": "bytes",
                    "name": "_data",
                    "type": "bytes"
                }
            ],
            "name": "safeTransferFrom",
            "outputs": [],
            "stateMutability": "nonpayable",
            "type": "function"
        },
        {
            "inputs": [
                {
                    "internalType": "address",
                    "name": "operator",
                    "type": "address"
                },
                {
                    "internalType": "bool",
                    "name": "approved",
                    "type": "bool"
                }
            ],
            "name": "setApprovalForAll",
            "outputs": [],
            "stateMutability": "nonpayable",
            "type": "function"
        },
        {
            "inputs": [
                {
                    "internalType": "bytes4",
                    "name": "interfaceId",
                    "type": "bytes4"
                }
            ],
            "name": "supportsInterface",
            "outputs": [
                {
                    "internalType": "bool",
                    "name": "",
                    "type": "bool"
                }
            ],
            "stateMutability": "view",
            "type": "function"
        },
        {
            "inputs": [],
            "name": "symbol",
            "outputs": [
                {
                    "internalType": "string",
                    "name": "",
                    "type": "string"
                }
            ],
            "stateMutability": "view",
            "type": "function"
        },
        {
            "inputs": [
                {
                    "internalType": "uint256",
                    "name": "index",
                    "type": "uint256"
                }
            ],
            "name": "tokenByIndex",
            "outputs": [
                {
                    "internalType": "uint256",
                    "name": "",
                    "type": "uint256"
                }
            ],
            "stateMutability": "view",
            "type": "function"
        },
        {
            "inputs": [
                {
                    "internalType": "address",
                    "name": "owner",
                    "type": "address"
                },
                {
                    "internalType": "uint256",
                    "name": "index",
                    "type": "uint256"
                }
            ],
            "name": "tokenOfOwnerByIndex",
            "outputs": [
                {
                    "internalType": "uint256",
                    "name": "",
                    "type": "uint256"
                }
            ],
            "stateMutability": "view",
            "type": "function"
        },
        {
            "inputs": [
                {
                    "internalType": "uint256",
                    "name": "tokenId",
                    "type": "uint256"
                }
            ],
            "name": "tokenURI",
            "outputs": [
                {
                    "internalType": "string",
                    "name": "",
                    "type": "string"
                }
            ],
            "stateMutability": "view",
            "type": "function"
        },
        {
            "inputs": [],
            "name": "totalSupply",
            "outputs": [
                {
                    "internalType": "uint256",
                    "name": "",
                    "type": "uint256"
                }
            ],
            "stateMutability": "view",
            "type": "function"
        },
        {
            "inputs": [
                {
                    "internalType": "address",
                    "name": "from",
                    "type": "address"
                },
                {
                    "internalType": "address",
                    "name": "to",
                    "type": "address"
                },
                {
                    "internalType": "uint256",
                    "name": "tokenId",
                    "type": "uint256"
                }
            ],
            "name": "transferFrom",
            "outputs": [],
            "stateMutability": "nonpayable",
            "type": "function"
        },
        {
            "inputs": [
                {
                    "internalType": "address",
                    "name": "newOwner",
                    "type": "address"
                }
            ],
            "name": "transferOwnership",
            "outputs": [],
            "stateMutability": "nonpayable",
            "type": "function"
        },
        {
            "inputs": [],
            "name": "unpause",
            "outputs": [],
            "stateMutability": "nonpayable",
            "type": "function"
        },
        {
            "inputs": [
                {
                    "internalType": "address",
                    "name": "recipient",
                    "type": "address"
                }
            ],
            "name": "withdraw",
            "outputs": [],
            "stateMutability": "payable",
            "type": "function"
        }
    ],
    "bytecode": "60806040523480156200001157600080fd5b506040516200256c3803806200256c833981016040819052620000349162000252565b8251839083906200004d90600090602085019062000101565b5080516200006390600190602084019062000101565b5050600a805460ff1916905550620000846200007e620000a3565b620000a7565b80516200009990600b90602084019062000101565b5050505062000332565b3390565b600a80546001600160a01b03838116610100818102610100600160a81b031985161790945560405193909204169182907f8be0079c531659141344cd1fd0a4f28419497f9722a3daafe3b4186f6b6457e090600090a35050565b8280546200010f90620002df565b90600052602060002090601f0160209004810192826200013357600085556200017e565b82601f106200014e57805160ff19168380011785556200017e565b828001600101855582156200017e579182015b828111156200017e57825182559160200191906001019062000161565b506200018c92915062000190565b5090565b5b808211156200018c576000815560010162000191565b600082601f830112620001b8578081fd5b81516001600160401b0380821115620001d557620001d56200031c565b6040516020601f8401601f1916820181018381118382101715620001fd57620001fd6200031c565b604052838252858401810187101562000214578485fd5b8492505b8383101562000237578583018101518284018201529182019162000218565b838311156200024857848185840101525b5095945050505050565b60008060006060848603121562000267578283fd5b83516001600160401b03808211156200027e578485fd5b6200028c87838801620001a7565b94506020860151915080821115620002a2578384fd5b620002b087838801620001a7565b93506040860151915080821115620002c6578283fd5b50620002d586828701620001a7565b9150509250925092565b600281046001821680620002f457607f821691505b602082108114156200031657634e487b7160e01b600052602260045260246000fd5b50919050565b634e487b7160e01b600052604160045260246000fd5b61222a80620003426000396000f3fe6080604052600436106101b75760003560e01c8063559e775b116100ec57806395d89b411161008a578063c87b56dd11610064578063c87b56dd1461048e578063e8a3d485146104ae578063e985e9c5146104c3578063f2fde38b146104e3576101b7565b806395d89b4114610439578063a22cb4651461044e578063b88d4fde1461046e576101b7565b806370a08231116100c657806370a08231146103da578063715018a6146103fa5780638456cb591461040f5780638da5cb5b14610424576101b7565b8063559e775b146103855780635c975abb146103a55780636352211e146103ba576101b7565b806323b872dd116101595780633f4ba83a116101335780633f4ba83a1461031d57806342842e0e146103325780634f6ccce71461035257806351cff8d914610372576101b7565b806323b872dd146102af5780632a55205a146102cf5780632f745c59146102fd576101b7565b8063081812fc11610195578063081812fc14610236578063095ea7b31461026357806318160ddd146102855780632004ffd9146102a7576101b7565b806301ffc9a7146101bc578063031bd4c4146101f257806306fdde0314610214575b600080fd5b3480156101c857600080fd5b506101dc6101d736600461191b565b610503565b6040516101e99190611a7d565b60405180910390f35b3480156101fe57600080fd5b50610207610537565b6040516101e9919061205a565b34801561022057600080fd5b5061022961053d565b6040516101e99190611a88565b34801561024257600080fd5b50610256610251366004611953565b6105cf565b6040516101e99190611a13565b34801561026f57600080fd5b5061028361027e3660046118f2565b61061b565b005b34801561029157600080fd5b5061029a6106b3565b6040516101e99190612069565b6102836106b9565b3480156102bb57600080fd5b506102836102ca3660046117b1565b610737565b3480156102db57600080fd5b506102ef6102ea36600461196b565b61076f565b6040516101e9929190611a64565b34801561030957600080fd5b5061029a6103183660046118f2565b61079e565b34801561032957600080fd5b506102836107f0565b34801561033e57600080fd5b5061028361034d3660046117b1565b610839565b34801561035e57600080fd5b5061029a61036d366004611953565b610854565b610283610380366004611765565b6108af565b34801561039157600080fd5b5061029a6103a0366004611953565b61095b565b3480156103b157600080fd5b506101dc6109b4565b3480156103c657600080fd5b506102566103d5366004611953565b6109bd565b3480156103e657600080fd5b5061029a6103f5366004611765565b6109f2565b34801561040657600080fd5b50610283610a36565b34801561041b57600080fd5b50610283610a7f565b34801561043057600080fd5b50610256610ac6565b34801561044557600080fd5b50610229610ada565b34801561045a57600080fd5b506102836104693660046118b8565b610ae9565b34801561047a57600080fd5b506102836104893660046117ec565b610afb565b34801561049a57600080fd5b506102296104a9366004611953565b610b3a565b3480156104ba57600080fd5b50610229610b6b565b3480156104cf57600080fd5b506101dc6104de36600461177f565b610b8b565b3480156104ef57600080fd5b506102836104fe366004611765565b610bb9565b60006001600160e01b0319821663152a902d60e11b141561052657506001610532565b61052f82610c27565b90505b919050565b61115c81565b60606000805461054c90612100565b80601f016020809104026020016040519081016040528092919081815260200182805461057890612100565b80156105c55780601f1061059a576101008083540402835291602001916105c5565b820191906000526020600020905b8154815290600101906020018083116105a857829003601f168201915b5050505050905090565b60006105da82610c4c565b6105ff5760405162461bcd60e51b81526004016105f690611e44565b60405180910390fd5b506000908152600460205260409020546001600160a01b031690565b6000610626826109bd565b9050806001600160a01b0316836001600160a01b0316141561065a5760405162461bcd60e51b81526004016105f690611f5d565b806001600160a01b031661066c610c69565b6001600160a01b031614806106885750610688816104de610c69565b6106a45760405162461bcd60e51b81526004016105f690611d1f565b6106ae8383610c6d565b505050565b60085490565b60006106c36106b3565b905061115c8111156106e75760405162461bcd60e51b81526004016105f69061203b565b6106ef610ac6565b6001600160a01b0316610700610c69565b6001600160a01b031614610723576107178161095b565b34101561072357600080fd5b61073461072e610c69565b82610cdb565b50565b610748610742610c69565b82610dba565b6107645760405162461bcd60e51b81526004016105f690611f9e565b6106ae838383610e3f565b60008061077a610ac6565b6127106107898561019061209e565b610793919061208a565b915091509250929050565b60006107a9836109f2565b82106107c75760405162461bcd60e51b81526004016105f690611b14565b506001600160a01b03919091166000908152600660209081526040808320938352929052205490565b6107f8610c69565b6001600160a01b0316610809610ac6565b6001600160a01b03161461082f5760405162461bcd60e51b81526004016105f690611e90565b610837610f6c565b565b6106ae83838360405180602001604052806000815250610afb565b600061085e6106b3565b821061087c5760405162461bcd60e51b81526004016105f690611fef565b6008828154811061089d57634e487b7160e01b600052603260045260246000fd5b90600052602060002001549050919050565b6108b7610c69565b6001600160a01b03166108c8610ac6565b6001600160a01b0316146108ee5760405162461bcd60e51b81526004016105f690611e90565b6000816001600160a01b03164760405161090790611a10565b60006040518083038185875af1925050503d8060008114610944576040519150601f19603f3d011682016040523d82523d6000602084013e610949565b606091505b505090508061095757600080fd5b5050565b6000610457821015610975575066470de4df820000610532565b6108ae82101561098d5750668e1bc9bf040000610532565b610d058210156109a5575066d529ae9e860000610532565b5067011c37937e080000610532565b600a5460ff1690565b6000818152600260205260408120546001600160a01b03168061052f5760405162461bcd60e51b81526004016105f690611dc6565b60006001600160a01b038216610a1a5760405162461bcd60e51b81526004016105f690611d7c565b506001600160a01b031660009081526003602052604090205490565b610a3e610c69565b6001600160a01b0316610a4f610ac6565b6001600160a01b031614610a755760405162461bcd60e51b81526004016105f690611e90565b6108376000610fda565b610a87610c69565b6001600160a01b0316610a98610ac6565b6001600160a01b031614610abe5760405162461bcd60e51b81526004016105f690611e90565b610837611034565b600a5461010090046001600160a01b031690565b60606001805461054c90612100565b610957610af4610c69565b838361108f565b610b0c610b06610c69565b83610dba565b610b285760405162461bcd60e51b81526004016105f690611f9e565b610b3484848484611132565b50505050565b6060610b4582611165565b604051602001610b5591906119e7565b6040516020818303038152906040529050919050565b60606040518060600160405280603281526020016121c360329139905090565b6001600160a01b03918216600090815260056020908152604080832093909416825291909152205460ff1690565b610bc1610c69565b6001600160a01b0316610bd2610ac6565b6001600160a01b031614610bf85760405162461bcd60e51b81526004016105f690611e90565b6001600160a01b038116610c1e5760405162461bcd60e51b81526004016105f690611bb1565b61073481610fda565b60006001600160e01b0319821663780e9d6360e01b148061052f575061052f826111e8565b6000908152600260205260409020546001600160a01b0316151590565b3390565b600081815260046020526040902080546001600160a01b0319166001600160a01b0384169081179091558190610ca2826109bd565b6001600160a01b03167f8c5be1e5ebec7d5bd14f71427d1e84f3dd0314c0f7b2291e5b200ac8c7c3b92560405160405180910390a45050565b6001600160a01b038216610d015760405162461bcd60e51b81526004016105f690611e0f565b610d0a81610c4c565b15610d275760405162461bcd60e51b81526004016105f690611bf7565b610d3360008383611228565b6001600160a01b0382166000908152600360205260408120805460019290610d5c908490612072565b909155505060008181526002602052604080822080546001600160a01b0319166001600160a01b03861690811790915590518392907fddf252ad1be2c89b69c2b068fc378daa952ba7f163c4a11628f55a4df523b3ef908290a45050565b6000610dc582610c4c565b610de15760405162461bcd60e51b81526004016105f690611ca9565b6000610dec836109bd565b9050806001600160a01b0316846001600160a01b03161480610e275750836001600160a01b0316610e1c846105cf565b6001600160a01b0316145b80610e375750610e378185610b8b565b949350505050565b826001600160a01b0316610e52826109bd565b6001600160a01b031614610e785760405162461bcd60e51b81526004016105f690611ec5565b6001600160a01b038216610e9e5760405162461bcd60e51b81526004016105f690611c2e565b610ea9838383611228565b610eb4600082610c6d565b6001600160a01b0383166000908152600360205260408120805460019290610edd9084906120bd565b90915550506001600160a01b0382166000908152600360205260408120805460019290610f0b908490612072565b909155505060008181526002602052604080822080546001600160a01b0319166001600160a01b0386811691821790925591518493918716917fddf252ad1be2c89b69c2b068fc378daa952ba7f163c4a11628f55a4df523b3ef91a4505050565b610f746109b4565b610f905760405162461bcd60e51b81526004016105f690611ae6565b600a805460ff191690557f5db9ee0a495bf2e6ff9c91a7834c1ba4fdd244a5e8aa4e537bd38aeae4b073aa610fc3610c69565b604051610fd09190611a13565b60405180910390a1565b600a80546001600160a01b03838116610100818102610100600160a81b031985161790945560405193909204169182907f8be0079c531659141344cd1fd0a4f28419497f9722a3daafe3b4186f6b6457e090600090a35050565b61103c6109b4565b156110595760405162461bcd60e51b81526004016105f690611cf5565b600a805460ff191660011790557f62e78cea01bee320cd4e420270b5ea74000d11b0c9f74754ebdbfc544b05a258610fc3610c69565b816001600160a01b0316836001600160a01b031614156110c15760405162461bcd60e51b81526004016105f690611c72565b6001600160a01b0383811660008181526005602090815260408083209487168084529490915290819020805460ff1916851515179055517f17307eab39ab6107e8899845ad3d59bd9653f200f220920489ca2b5937696c3190611125908590611a7d565b60405180910390a3505050565b61113d848484610e3f565b61114984848484611233565b610b345760405162461bcd60e51b81526004016105f690611b5f565b606061117082610c4c565b61118c5760405162461bcd60e51b81526004016105f690611f0e565b600061119661134e565b905060008151116111b657604051806020016040528060008152506111e1565b806111c08461135d565b6040516020016111d19291906119b8565b6040516020818303038152906040525b9392505050565b60006001600160e01b031982166380ac58cd60e01b148061121957506001600160e01b03198216635b5e139f60e01b145b8061052f575061052f82611478565b6106ae838383611491565b6000611247846001600160a01b03166114c1565b1561134357836001600160a01b031663150b7a02611263610c69565b8786866040518563ffffffff1660e01b81526004016112859493929190611a27565b602060405180830381600087803b15801561129f57600080fd5b505af19250505080156112cf575060408051601f3d908101601f191682019092526112cc91810190611937565b60015b611329573d8080156112fd576040519150601f19603f3d011682016040523d82523d6000602084013e611302565b606091505b5080516113215760405162461bcd60e51b81526004016105f690611b5f565b805181602001fd5b6001600160e01b031916630a85bd0160e11b149050610e37565b506001949350505050565b6060600b805461054c90612100565b60608161138257506040805180820190915260018152600360fc1b6020820152610532565b8160005b81156113ac57806113968161213b565b91506113a59050600a8361208a565b9150611386565b60008167ffffffffffffffff8111156113d557634e487b7160e01b600052604160045260246000fd5b6040519080825280601f01601f1916602001820160405280156113ff576020820181803683370190505b5090505b8415610e37576114146001836120bd565b9150611421600a86612156565b61142c906030612072565b60f81b81838151811061144f57634e487b7160e01b600052603260045260246000fd5b60200101906001600160f81b031916908160001a905350611471600a8661208a565b9450611403565b6001600160e01b031981166301ffc9a760e01b14919050565b61149c8383836114c7565b6114a46109b4565b156106ae5760405162461bcd60e51b81526004016105f690611a9b565b3b151590565b6114d28383836106ae565b6001600160a01b0383166114ee576114e981611550565b611511565b816001600160a01b0316836001600160a01b031614611511576115118382611594565b6001600160a01b03821661152d5761152881611631565b6106ae565b826001600160a01b0316826001600160a01b0316146106ae576106ae828261170a565b600880546000838152600960205260408120829055600182018355919091527ff3f7a9fe364faab93b216da50a3214154f22a0a2b415b23a84c8169e8b636ee30155565b600060016115a1846109f2565b6115ab91906120bd565b6000838152600760205260409020549091508082146115fe576001600160a01b03841660009081526006602090815260408083208584528252808320548484528184208190558352600790915290208190555b5060009182526007602090815260408084208490556001600160a01b039094168352600681528383209183525290812055565b600854600090611643906001906120bd565b6000838152600960205260408120546008805493945090928490811061167957634e487b7160e01b600052603260045260246000fd5b9060005260206000200154905080600883815481106116a857634e487b7160e01b600052603260045260246000fd5b60009182526020808320909101929092558281526009909152604080822084905585825281205560088054806116ee57634e487b7160e01b600052603160045260246000fd5b6001900381819060005260206000200160009055905550505050565b6000611715836109f2565b6001600160a01b039093166000908152600660209081526040808320868452825280832085905593825260079052919091209190915550565b80356001600160a01b038116811461053257600080fd5b600060208284031215611776578081fd5b6111e18261174e565b60008060408385031215611791578081fd5b61179a8361174e565b91506117a86020840161174e565b90509250929050565b6000806000606084860312156117c5578081fd5b6117ce8461174e565b92506117dc6020850161174e565b9150604084013590509250925092565b60008060008060808587031215611801578081fd5b61180a8561174e565b9350602061181981870161174e565b935060408601359250606086013567ffffffffffffffff8082111561183c578384fd5b818801915088601f83011261184f578384fd5b81358181111561186157611861612196565b604051601f8201601f191681018501838111828210171561188457611884612196565b60405281815283820185018b101561189a578586fd5b81858501868301379081019093019390935250939692955090935050565b600080604083850312156118ca578182fd5b6118d38361174e565b9150602083013580151581146118e7578182fd5b809150509250929050565b60008060408385031215611904578182fd5b61190d8361174e565b946020939093013593505050565b60006020828403121561192c578081fd5b81356111e1816121ac565b600060208284031215611948578081fd5b81516111e1816121ac565b600060208284031215611964578081fd5b5035919050565b6000806040838503121561197d578182fd5b50508035926020909101359150565b600081518084526119a48160208601602086016120d4565b601f01601f19169290920160200192915050565b600083516119ca8184602088016120d4565b8351908301906119de8183602088016120d4565b01949350505050565b600082516119f98184602087016120d4565b64173539b7b760d91b920191825250600501919050565b90565b6001600160a01b0391909116815260200190565b6001600160a01b0385811682528416602082015260408101839052608060608201819052600090611a5a9083018461198c565b9695505050505050565b6001600160a01b03929092168252602082015260400190565b901515815260200190565b6000602082526111e1602083018461198c565b6020808252602b908201527f4552433732315061757361626c653a20746f6b656e207472616e73666572207760408201526a1a1a5b19481c185d5cd95960aa1b606082015260800190565b60208082526014908201527314185d5cd8589b194e881b9bdd081c185d5cd95960621b604082015260600190565b6020808252602b908201527f455243373231456e756d657261626c653a206f776e657220696e646578206f7560408201526a74206f6620626f756e647360a81b606082015260800190565b60208082526032908201527f4552433732313a207472616e7366657220746f206e6f6e20455243373231526560408201527131b2b4bb32b91034b6b83632b6b2b73a32b960711b606082015260800190565b60208082526026908201527f4f776e61626c653a206e6577206f776e657220697320746865207a65726f206160408201526564647265737360d01b606082015260800190565b6020808252601c908201527f4552433732313a20746f6b656e20616c7265616479206d696e74656400000000604082015260600190565b60208082526024908201527f4552433732313a207472616e7366657220746f20746865207a65726f206164646040820152637265737360e01b606082015260800190565b60208082526019908201527f4552433732313a20617070726f766520746f2063616c6c657200000000000000604082015260600190565b6020808252602c908201527f4552433732313a206f70657261746f7220717565727920666f72206e6f6e657860408201526b34b9ba32b73a103a37b5b2b760a11b606082015260800190565b60208082526010908201526f14185d5cd8589b194e881c185d5cd95960821b604082015260600190565b60208082526038908201527f4552433732313a20617070726f76652063616c6c6572206973206e6f74206f7760408201527f6e6572206e6f7220617070726f76656420666f7220616c6c0000000000000000606082015260800190565b6020808252602a908201527f4552433732313a2062616c616e636520717565727920666f7220746865207a65604082015269726f206164647265737360b01b606082015260800190565b60208082526029908201527f4552433732313a206f776e657220717565727920666f72206e6f6e657869737460408201526832b73a103a37b5b2b760b91b606082015260800190565b6020808252818101527f4552433732313a206d696e7420746f20746865207a65726f2061646472657373604082015260600190565b6020808252602c908201527f4552433732313a20617070726f76656420717565727920666f72206e6f6e657860408201526b34b9ba32b73a103a37b5b2b760a11b606082015260800190565b6020808252818101527f4f776e61626c653a2063616c6c6572206973206e6f7420746865206f776e6572604082015260600190565b60208082526029908201527f4552433732313a207472616e73666572206f6620746f6b656e2074686174206960408201526839903737ba1037bbb760b91b606082015260800190565b6020808252602f908201527f4552433732314d657461646174613a2055524920717565727920666f72206e6f60408201526e3732bc34b9ba32b73a103a37b5b2b760891b606082015260800190565b60208082526021908201527f4552433732313a20617070726f76616c20746f2063757272656e74206f776e656040820152603960f91b606082015260800190565b60208082526031908201527f4552433732313a207472616e736665722063616c6c6572206973206e6f74206f6040820152701ddb995c881b9bdc88185c1c1c9bdd9959607a1b606082015260800190565b6020808252602c908201527f455243373231456e756d657261626c653a20676c6f62616c20696e646578206f60408201526b7574206f6620626f756e647360a01b606082015260800190565b602080825260059082015264131a5b5a5d60da1b604082015260600190565b61ffff91909116815260200190565b90815260200190565b600082198211156120855761208561216a565b500190565b60008261209957612099612180565b500490565b60008160001904831182151516156120b8576120b861216a565b500290565b6000828210156120cf576120cf61216a565b500390565b60005b838110156120ef5781810151838201526020016120d7565b83811115610b345750506000910152565b60028104600182168061211457607f821691505b6020821081141561213557634e487b7160e01b600052602260045260246000fd5b50919050565b600060001982141561214f5761214f61216a565b5060010190565b60008261216557612165612180565b500690565b634e487b7160e01b600052601160045260246000fd5b634e487b7160e01b600052601260045260246000fd5b634e487b7160e01b600052604160045260246000fd5b6001600160e01b03198116811461073457600080fdfe68747470733a2f2f67616c616765742e636f6d2f67616c616765742d636f6e74726163742d6d657461646174612e6a736f6ea26469706673582212203aba1bd29ba39173fe155d1eaf6c66ee363418c2420487349dd9cac3e773d33764736f6c63430008000033",
    "sourcePath": "/Users/taylorsloan/Projects/galaget-contract/contracts/Galaget.sol",
    "compiler": {
        "name": "solc",
        "version": "0.8.0+commit.c7dfd78e"
    },
    "functionHashes": {
        "TOKEN_LIMIT()": "031bd4c4",
        "approve(address,uint256)": "095ea7b3",
        "balanceOf(address)": "70a08231",
        "contractURI()": "e8a3d485",
        "getApproved(uint256)": "081812fc",
        "getMintPrice(uint256)": "559e775b",
        "isApprovedForAll(address,address)": "e985e9c5",
        "mintToken()": "2004ffd9",
        "name()": "06fdde03",
        "owner()": "8da5cb5b",
        "ownerOf(uint256)": "6352211e",
        "pause()": "8456cb59",
        "paused()": "5c975abb",
        "renounceOwnership()": "715018a6",
        "royaltyInfo(uint256,uint256)": "2a55205a",
        "safeTransferFrom(address,address,uint256)": "42842e0e",
        "safeTransferFrom(address,address,uint256,bytes)": "b88d4fde",
        "setApprovalForAll(address,bool)": "a22cb465",
        "supportsInterface(bytes4)": "01ffc9a7",
        "symbol()": "95d89b41",
        "tokenByIndex(uint256)": "4f6ccce7",
        "tokenOfOwnerByIndex(address,uint256)": "2f745c59",
        "tokenURI(uint256)": "c87b56dd",
        "totalSupply()": "18160ddd",
        "transferFrom(address,address,uint256)": "23b872dd",
        "transferOwnership(address)": "f2fde38b",
        "unpause()": "3f4ba83a",
        "withdraw(address)": "51cff8d9"
    },
    "gasEstimates": {
        "creation": {
            "codeDepositCost": "1749200",
            "executionCost": "infinite",
            "totalCost": "infinite"
        },
        "external": {
            "TOKEN_LIMIT()": "309",
            "approve(address,uint256)": "infinite",
            "balanceOf(address)": "1355",
            "contractURI()": "infinite",
            "getApproved(uint256)": "2201",
            "getMintPrice(uint256)": "451",
            "isApprovedForAll(address,address)": "infinite",
            "mintToken()": "infinite",
            "name()": "infinite",
            "owner()": "1192",
            "ownerOf(uint256)": "1367",
            "pause()": "infinite",
            "paused()": "1108",
            "renounceOwnership()": "23604",
            "royaltyInfo(uint256,uint256)": "1475",
            "safeTransferFrom(address,address,uint256)": "infinite",
            "safeTransferFrom(address,address,uint256,bytes)": "infinite",
            "setApprovalForAll(address,bool)": "23416",
            "supportsInterface(bytes4)": "infinite",
            "symbol()": "infinite",
            "tokenByIndex(uint256)": "2937",
            "tokenOfOwnerByIndex(address,uint256)": "2441",
            "tokenURI(uint256)": "infinite",
            "totalSupply()": "1118",
            "transferFrom(address,address,uint256)": "infinite",
            "transferOwnership(address)": "23842",
            "unpause()": "infinite",
            "withdraw(address)": "infinite"
        },
        "internal": {
            "_baseURI()": "infinite",
            "_beforeTokenTransfer(address,address,uint256)": "infinite"
        }
    }
}