{
  "_format": "hh-sol-artifact-1",
  "contractName": "RoyaltiesV2Impl",
  "sourceName": "contracts/rarible/royalties/contracts/impl/RoyaltiesV2Impl.sol",
  "abi": [
    {
      "anonymous": false,
      "inputs": [
        {
          "indexed": false,
          "internalType": "uint256",
          "name": "tokenId",
          "type": "uint256"
        },
        {
          "components": [
            {
              "internalType": "address payable",
              "name": "account",
              "type": "address"
            },
            {
              "internalType": "uint96",
              "name": "value",
              "type": "uint96"
            }
          ],
          "indexed": false,
          "internalType": "struct LibPart.Part[]",
          "name": "royalties",
          "type": "tuple[]"
        }
      ],
      "name": "RoyaltiesSet",
      "type": "event"
    },
    {
      "inputs": [
        {
          "internalType": "uint256",
          "name": "id",
          "type": "uint256"
        }
      ],
      "name": "getRaribleV2Royalties",
      "outputs": [
        {
          "components": [
            {
              "internalType": "address payable",
              "name": "account",
              "type": "address"
            },
            {
              "internalType": "uint96",
              "name": "value",
              "type": "uint96"
            }
          ],
          "internalType": "struct LibPart.Part[]",
          "name": "",
          "type": "tuple[]"
        }
      ],
      "stateMutability": "view",
      "type": "function"
    }
  ],
  "bytecode": "0x608060405234801561001057600080fd5b5061035e806100206000396000f3fe608060405234801561001057600080fd5b506004361061002b5760003560e01c8063cad96cca14610030575b600080fd5b61004a60048036038101906100459190610176565b610060565b6040516100579190610262565b60405180910390f35b6060600080838152602001908152602001600020805480602002602001604051908101604052809291908181526020016000905b82821015610156578382906000526020600020016040518060400160405290816000820160009054906101000a900473ffffffffffffffffffffffffffffffffffffffff1673ffffffffffffffffffffffffffffffffffffffff1673ffffffffffffffffffffffffffffffffffffffff1681526020016000820160149054906101000a90046bffffffffffffffffffffffff166bffffffffffffffffffffffff166bffffffffffffffffffffffff168152505081526020019060010190610094565b505050509050919050565b60008135905061017081610311565b92915050565b60006020828403121561018857600080fd5b600061019684828501610161565b91505092915050565b60006101ab8383610224565b60408301905092915050565b6101c0816102bd565b82525050565b60006101d182610294565b6101db81856102ac565b93506101e683610284565b8060005b838110156102175781516101fe888261019f565b97506102098361029f565b9250506001810190506101ea565b5085935050505092915050565b60408201600082015161023a60008501826101b7565b50602082015161024d6020850182610253565b50505050565b61025c816102f9565b82525050565b6000602082019050818103600083015261027c81846101c6565b905092915050565b6000819050602082019050919050565b600081519050919050565b6000602082019050919050565b600082825260208201905092915050565b60006102c8826102cf565b9050919050565b600073ffffffffffffffffffffffffffffffffffffffff82169050919050565b6000819050919050565b60006bffffffffffffffffffffffff82169050919050565b61031a816102ef565b811461032557600080fd5b5056fea2646970667358221220ed25edab7bd7ed7dfd573e3b7cb7fa1a8de3f92613936c35b1529c28e55f624b64736f6c63430008040033",
  "linkReferences": {},
  "deployedLinkReferences": {}
}