{
  "_format": "hh-sol-artifact-1",
  "contractName": "Galaget",
  "sourceName": "contracts/Galaget.sol",
  "abi": [
    {
      "inputs": [
        {
          "internalType": "string",
          "name": "name",
          "type": "string"
        },
        {
          "internalType": "string",
          "name": "symbol",
          "type": "string"
        },
        {
          "internalType": "string",
          "name": "baseTokenURI",
          "type": "string"
        }
      ],
      "stateMutability": "nonpayable",
      "type": "constructor"
    },
    {
      "anonymous": false,
      "inputs": [
        {
          "indexed": true,
          "internalType": "address",
          "name": "owner",
          "type": "address"
        },
        {
          "indexed": true,
          "internalType": "address",
          "name": "approved",
          "type": "address"
        },
        {
          "indexed": true,
          "internalType": "uint256",
          "name": "tokenId",
          "type": "uint256"
        }
      ],
      "name": "Approval",
      "type": "event"
    },
    {
      "anonymous": false,
      "inputs": [
        {
          "indexed": true,
          "internalType": "address",
          "name": "owner",
          "type": "address"
        },
        {
          "indexed": true,
          "internalType": "address",
          "name": "operator",
          "type": "address"
        },
        {
          "indexed": false,
          "internalType": "bool",
          "name": "approved",
          "type": "bool"
        }
      ],
      "name": "ApprovalForAll",
      "type": "event"
    },
    {
      "anonymous": false,
      "inputs": [
        {
          "indexed": true,
          "internalType": "address",
          "name": "previousOwner",
          "type": "address"
        },
        {
          "indexed": true,
          "internalType": "address",
          "name": "newOwner",
          "type": "address"
        }
      ],
      "name": "OwnershipTransferred",
      "type": "event"
    },
    {
      "anonymous": false,
      "inputs": [
        {
          "indexed": false,
          "internalType": "address",
          "name": "account",
          "type": "address"
        }
      ],
      "name": "Paused",
      "type": "event"
    },
    {
      "anonymous": false,
      "inputs": [
        {
          "indexed": true,
          "internalType": "bytes32",
          "name": "role",
          "type": "bytes32"
        },
        {
          "indexed": true,
          "internalType": "bytes32",
          "name": "previousAdminRole",
          "type": "bytes32"
        },
        {
          "indexed": true,
          "internalType": "bytes32",
          "name": "newAdminRole",
          "type": "bytes32"
        }
      ],
      "name": "RoleAdminChanged",
      "type": "event"
    },
    {
      "anonymous": false,
      "inputs": [
        {
          "indexed": true,
          "internalType": "bytes32",
          "name": "role",
          "type": "bytes32"
        },
        {
          "indexed": true,
          "internalType": "address",
          "name": "account",
          "type": "address"
        },
        {
          "indexed": true,
          "internalType": "address",
          "name": "sender",
          "type": "address"
        }
      ],
      "name": "RoleGranted",
      "type": "event"
    },
    {
      "anonymous": false,
      "inputs": [
        {
          "indexed": true,
          "internalType": "bytes32",
          "name": "role",
          "type": "bytes32"
        },
        {
          "indexed": true,
          "internalType": "address",
          "name": "account",
          "type": "address"
        },
        {
          "indexed": true,
          "internalType": "address",
          "name": "sender",
          "type": "address"
        }
      ],
      "name": "RoleRevoked",
      "type": "event"
    },
    {
      "anonymous": false,
      "inputs": [
        {
          "indexed": false,
          "internalType": "uint256",
          "name": "tokenId",
          "type": "uint256"
        },
        {
          "components": [
            {
              "internalType": "address payable",
              "name": "account",
              "type": "address"
            },
            {
              "internalType": "uint96",
              "name": "value",
              "type": "uint96"
            }
          ],
          "indexed": false,
          "internalType": "struct LibPart.Part[]",
          "name": "royalties",
          "type": "tuple[]"
        }
      ],
      "name": "RoyaltiesSet",
      "type": "event"
    },
    {
      "anonymous": false,
      "inputs": [
        {
          "indexed": true,
          "internalType": "address",
          "name": "from",
          "type": "address"
        },
        {
          "indexed": true,
          "internalType": "address",
          "name": "to",
          "type": "address"
        },
        {
          "indexed": true,
          "internalType": "uint256",
          "name": "tokenId",
          "type": "uint256"
        }
      ],
      "name": "Transfer",
      "type": "event"
    },
    {
      "anonymous": false,
      "inputs": [
        {
          "indexed": false,
          "internalType": "address",
          "name": "account",
          "type": "address"
        }
      ],
      "name": "Unpaused",
      "type": "event"
    },
    {
      "inputs": [],
      "name": "DEFAULT_ADMIN_ROLE",
      "outputs": [
        {
          "internalType": "bytes32",
          "name": "",
          "type": "bytes32"
        }
      ],
      "stateMutability": "view",
      "type": "function"
    },
    {
      "inputs": [],
      "name": "MINTER_ROLE",
      "outputs": [
        {
          "internalType": "bytes32",
          "name": "",
          "type": "bytes32"
        }
      ],
      "stateMutability": "view",
      "type": "function"
    },
    {
      "inputs": [],
      "name": "PAUSER_ROLE",
      "outputs": [
        {
          "internalType": "bytes32",
          "name": "",
          "type": "bytes32"
        }
      ],
      "stateMutability": "view",
      "type": "function"
    },
    {
      "inputs": [],
      "name": "TIER_1_PRICE",
      "outputs": [
        {
          "internalType": "uint256",
          "name": "",
          "type": "uint256"
        }
      ],
      "stateMutability": "view",
      "type": "function"
    },
    {
      "inputs": [],
      "name": "TIER_1_UPPER_BOUND",
      "outputs": [
        {
          "internalType": "uint16",
          "name": "",
          "type": "uint16"
        }
      ],
      "stateMutability": "view",
      "type": "function"
    },
    {
      "inputs": [],
      "name": "TIER_2_PRICE",
      "outputs": [
        {
          "internalType": "uint256",
          "name": "",
          "type": "uint256"
        }
      ],
      "stateMutability": "view",
      "type": "function"
    },
    {
      "inputs": [],
      "name": "TIER_2_UPPER_BOUND",
      "outputs": [
        {
          "internalType": "uint16",
          "name": "",
          "type": "uint16"
        }
      ],
      "stateMutability": "view",
      "type": "function"
    },
    {
      "inputs": [],
      "name": "TIER_3_PRICE",
      "outputs": [
        {
          "internalType": "uint256",
          "name": "",
          "type": "uint256"
        }
      ],
      "stateMutability": "view",
      "type": "function"
    },
    {
      "inputs": [],
      "name": "TIER_3_UPPER_BOUND",
      "outputs": [
        {
          "internalType": "uint16",
          "name": "",
          "type": "uint16"
        }
      ],
      "stateMutability": "view",
      "type": "function"
    },
    {
      "inputs": [],
      "name": "TIER_4_PRICE",
      "outputs": [
        {
          "internalType": "uint256",
          "name": "",
          "type": "uint256"
        }
      ],
      "stateMutability": "view",
      "type": "function"
    },
    {
      "inputs": [],
      "name": "TIER_4_UPPER_BOUND",
      "outputs": [
        {
          "internalType": "uint16",
          "name": "",
          "type": "uint16"
        }
      ],
      "stateMutability": "view",
      "type": "function"
    },
    {
      "inputs": [],
      "name": "TIER_BOUND",
      "outputs": [
        {
          "internalType": "uint16",
          "name": "",
          "type": "uint16"
        }
      ],
      "stateMutability": "view",
      "type": "function"
    },
    {
      "inputs": [
        {
          "internalType": "address",
          "name": "to",
          "type": "address"
        },
        {
          "internalType": "uint256",
          "name": "tokenId",
          "type": "uint256"
        }
      ],
      "name": "approve",
      "outputs": [],
      "stateMutability": "nonpayable",
      "type": "function"
    },
    {
      "inputs": [
        {
          "internalType": "address",
          "name": "owner",
          "type": "address"
        }
      ],
      "name": "balanceOf",
      "outputs": [
        {
          "internalType": "uint256",
          "name": "",
          "type": "uint256"
        }
      ],
      "stateMutability": "view",
      "type": "function"
    },
    {
      "inputs": [],
      "name": "contractURI",
      "outputs": [
        {
          "internalType": "string",
          "name": "",
          "type": "string"
        }
      ],
      "stateMutability": "view",
      "type": "function"
    },
    {
      "inputs": [
        {
          "internalType": "uint256",
          "name": "tokenId",
          "type": "uint256"
        }
      ],
      "name": "getApproved",
      "outputs": [
        {
          "internalType": "address",
          "name": "",
          "type": "address"
        }
      ],
      "stateMutability": "view",
      "type": "function"
    },
    {
      "inputs": [
        {
          "internalType": "uint256",
          "name": "tokenId",
          "type": "uint256"
        }
      ],
      "name": "getMintPrice",
      "outputs": [
        {
          "internalType": "uint256",
          "name": "",
          "type": "uint256"
        }
      ],
      "stateMutability": "pure",
      "type": "function"
    },
    {
      "inputs": [
        {
          "internalType": "uint256",
          "name": "id",
          "type": "uint256"
        }
      ],
      "name": "getRaribleV2Royalties",
      "outputs": [
        {
          "components": [
            {
              "internalType": "address payable",
              "name": "account",
              "type": "address"
            },
            {
              "internalType": "uint96",
              "name": "value",
              "type": "uint96"
            }
          ],
          "internalType": "struct LibPart.Part[]",
          "name": "",
          "type": "tuple[]"
        }
      ],
      "stateMutability": "view",
      "type": "function"
    },
    {
      "inputs": [
        {
          "internalType": "bytes32",
          "name": "role",
          "type": "bytes32"
        }
      ],
      "name": "getRoleAdmin",
      "outputs": [
        {
          "internalType": "bytes32",
          "name": "",
          "type": "bytes32"
        }
      ],
      "stateMutability": "view",
      "type": "function"
    },
    {
      "inputs": [
        {
          "internalType": "bytes32",
          "name": "role",
          "type": "bytes32"
        },
        {
          "internalType": "uint256",
          "name": "index",
          "type": "uint256"
        }
      ],
      "name": "getRoleMember",
      "outputs": [
        {
          "internalType": "address",
          "name": "",
          "type": "address"
        }
      ],
      "stateMutability": "view",
      "type": "function"
    },
    {
      "inputs": [
        {
          "internalType": "bytes32",
          "name": "role",
          "type": "bytes32"
        }
      ],
      "name": "getRoleMemberCount",
      "outputs": [
        {
          "internalType": "uint256",
          "name": "",
          "type": "uint256"
        }
      ],
      "stateMutability": "view",
      "type": "function"
    },
    {
      "inputs": [
        {
          "internalType": "bytes32",
          "name": "role",
          "type": "bytes32"
        },
        {
          "internalType": "address",
          "name": "account",
          "type": "address"
        }
      ],
      "name": "grantRole",
      "outputs": [],
      "stateMutability": "nonpayable",
      "type": "function"
    },
    {
      "inputs": [
        {
          "internalType": "bytes32",
          "name": "role",
          "type": "bytes32"
        },
        {
          "internalType": "address",
          "name": "account",
          "type": "address"
        }
      ],
      "name": "hasRole",
      "outputs": [
        {
          "internalType": "bool",
          "name": "",
          "type": "bool"
        }
      ],
      "stateMutability": "view",
      "type": "function"
    },
    {
      "inputs": [
        {
          "internalType": "address",
          "name": "owner",
          "type": "address"
        },
        {
          "internalType": "address",
          "name": "operator",
          "type": "address"
        }
      ],
      "name": "isApprovedForAll",
      "outputs": [
        {
          "internalType": "bool",
          "name": "",
          "type": "bool"
        }
      ],
      "stateMutability": "view",
      "type": "function"
    },
    {
      "inputs": [],
      "name": "mintToken",
      "outputs": [],
      "stateMutability": "payable",
      "type": "function"
    },
    {
      "inputs": [],
      "name": "name",
      "outputs": [
        {
          "internalType": "string",
          "name": "",
          "type": "string"
        }
      ],
      "stateMutability": "view",
      "type": "function"
    },
    {
      "inputs": [],
      "name": "owner",
      "outputs": [
        {
          "internalType": "address",
          "name": "",
          "type": "address"
        }
      ],
      "stateMutability": "view",
      "type": "function"
    },
    {
      "inputs": [
        {
          "internalType": "uint256",
          "name": "tokenId",
          "type": "uint256"
        }
      ],
      "name": "ownerOf",
      "outputs": [
        {
          "internalType": "address",
          "name": "",
          "type": "address"
        }
      ],
      "stateMutability": "view",
      "type": "function"
    },
    {
      "inputs": [],
      "name": "pause",
      "outputs": [],
      "stateMutability": "nonpayable",
      "type": "function"
    },
    {
      "inputs": [],
      "name": "paused",
      "outputs": [
        {
          "internalType": "bool",
          "name": "",
          "type": "bool"
        }
      ],
      "stateMutability": "view",
      "type": "function"
    },
    {
      "inputs": [],
      "name": "renounceOwnership",
      "outputs": [],
      "stateMutability": "nonpayable",
      "type": "function"
    },
    {
      "inputs": [
        {
          "internalType": "bytes32",
          "name": "role",
          "type": "bytes32"
        },
        {
          "internalType": "address",
          "name": "account",
          "type": "address"
        }
      ],
      "name": "renounceRole",
      "outputs": [],
      "stateMutability": "nonpayable",
      "type": "function"
    },
    {
      "inputs": [
        {
          "internalType": "bytes32",
          "name": "role",
          "type": "bytes32"
        },
        {
          "internalType": "address",
          "name": "account",
          "type": "address"
        }
      ],
      "name": "revokeRole",
      "outputs": [],
      "stateMutability": "nonpayable",
      "type": "function"
    },
    {
      "inputs": [
        {
          "internalType": "uint256",
          "name": "_tokenId",
          "type": "uint256"
        },
        {
          "internalType": "uint256",
          "name": "_salePrice",
          "type": "uint256"
        }
      ],
      "name": "royaltyInfo",
      "outputs": [
        {
          "internalType": "address",
          "name": "receiver",
          "type": "address"
        },
        {
          "internalType": "uint256",
          "name": "royaltyAmount",
          "type": "uint256"
        }
      ],
      "stateMutability": "view",
      "type": "function"
    },
    {
      "inputs": [
        {
          "internalType": "address",
          "name": "from",
          "type": "address"
        },
        {
          "internalType": "address",
          "name": "to",
          "type": "address"
        },
        {
          "internalType": "uint256",
          "name": "tokenId",
          "type": "uint256"
        }
      ],
      "name": "safeTransferFrom",
      "outputs": [],
      "stateMutability": "nonpayable",
      "type": "function"
    },
    {
      "inputs": [
        {
          "internalType": "address",
          "name": "from",
          "type": "address"
        },
        {
          "internalType": "address",
          "name": "to",
          "type": "address"
        },
        {
          "internalType": "uint256",
          "name": "tokenId",
          "type": "uint256"
        },
        {
          "internalType": "bytes",
          "name": "_data",
          "type": "bytes"
        }
      ],
      "name": "safeTransferFrom",
      "outputs": [],
      "stateMutability": "nonpayable",
      "type": "function"
    },
    {
      "inputs": [
        {
          "internalType": "address",
          "name": "operator",
          "type": "address"
        },
        {
          "internalType": "bool",
          "name": "approved",
          "type": "bool"
        }
      ],
      "name": "setApprovalForAll",
      "outputs": [],
      "stateMutability": "nonpayable",
      "type": "function"
    },
    {
      "inputs": [
        {
          "internalType": "bytes4",
          "name": "interfaceId",
          "type": "bytes4"
        }
      ],
      "name": "supportsInterface",
      "outputs": [
        {
          "internalType": "bool",
          "name": "",
          "type": "bool"
        }
      ],
      "stateMutability": "view",
      "type": "function"
    },
    {
      "inputs": [],
      "name": "symbol",
      "outputs": [
        {
          "internalType": "string",
          "name": "",
          "type": "string"
        }
      ],
      "stateMutability": "view",
      "type": "function"
    },
    {
      "inputs": [
        {
          "internalType": "uint256",
          "name": "index",
          "type": "uint256"
        }
      ],
      "name": "tokenByIndex",
      "outputs": [
        {
          "internalType": "uint256",
          "name": "",
          "type": "uint256"
        }
      ],
      "stateMutability": "view",
      "type": "function"
    },
    {
      "inputs": [
        {
          "internalType": "address",
          "name": "owner",
          "type": "address"
        },
        {
          "internalType": "uint256",
          "name": "index",
          "type": "uint256"
        }
      ],
      "name": "tokenOfOwnerByIndex",
      "outputs": [
        {
          "internalType": "uint256",
          "name": "",
          "type": "uint256"
        }
      ],
      "stateMutability": "view",
      "type": "function"
    },
    {
      "inputs": [
        {
          "internalType": "uint256",
          "name": "tokenId",
          "type": "uint256"
        }
      ],
      "name": "tokenURI",
      "outputs": [
        {
          "internalType": "string",
          "name": "",
          "type": "string"
        }
      ],
      "stateMutability": "view",
      "type": "function"
    },
    {
      "inputs": [],
      "name": "totalSupply",
      "outputs": [
        {
          "internalType": "uint256",
          "name": "",
          "type": "uint256"
        }
      ],
      "stateMutability": "view",
      "type": "function"
    },
    {
      "inputs": [
        {
          "internalType": "address",
          "name": "from",
          "type": "address"
        },
        {
          "internalType": "address",
          "name": "to",
          "type": "address"
        },
        {
          "internalType": "uint256",
          "name": "tokenId",
          "type": "uint256"
        }
      ],
      "name": "transferFrom",
      "outputs": [],
      "stateMutability": "nonpayable",
      "type": "function"
    },
    {
      "inputs": [
        {
          "internalType": "address",
          "name": "newOwner",
          "type": "address"
        }
      ],
      "name": "transferOwnership",
      "outputs": [],
      "stateMutability": "nonpayable",
      "type": "function"
    },
    {
      "inputs": [],
      "name": "unpause",
      "outputs": [],
      "stateMutability": "nonpayable",
      "type": "function"
    },
    {
      "inputs": [],
      "name": "withdraw",
      "outputs": [],
      "stateMutability": "payable",
      "type": "function"
    }
  ],
  "bytecode": "0x60806040523480156200001157600080fd5b50604051620067b5380380620067b5833981810160405281019062000037919062000620565b8282816002908051906020019062000051929190620004fe565b5080600390805190602001906200006a929190620004fe565b5050506000600c60006101000a81548160ff021916908315150217905550620000a86200009c620001a260201b60201c565b620001aa60201b60201c565b80600e9080519060200190620000c0929190620004fe565b506040518060600160405280603281526020016200678360329139600f9080519060200190620000f2929190620004fe565b50620001176000801b6200010b620001a260201b60201c565b6200027060201b60201c565b620001587f9f2df0fed2c77648de5860a4cc508cd0818c85b8b8a1ab4ceeef8d981c8956a66200014c620001a260201b60201c565b6200027060201b60201c565b620001997f65d7a28e3265b37a6474929f336521b332c1681b933f6cb9f3376673440d862a6200018d620001a260201b60201c565b6200027060201b60201c565b50505062000831565b600033905090565b6000600c60019054906101000a900473ffffffffffffffffffffffffffffffffffffffff16905081600c60016101000a81548173ffffffffffffffffffffffffffffffffffffffff021916908373ffffffffffffffffffffffffffffffffffffffff1602179055508173ffffffffffffffffffffffffffffffffffffffff168173ffffffffffffffffffffffffffffffffffffffff167f8be0079c531659141344cd1fd0a4f28419497f9722a3daafe3b4186f6b6457e060405160405180910390a35050565b6200028282826200028660201b60201c565b5050565b6200029d8282620002ce60201b62001d9e1760201c565b620002c98160016000858152602001908152602001600020620003bf60201b62001e7e1790919060201c565b505050565b620002e08282620003f760201b60201c565b620003bb57600160008084815260200190815260200160002060000160008373ffffffffffffffffffffffffffffffffffffffff1673ffffffffffffffffffffffffffffffffffffffff16815260200190815260200160002060006101000a81548160ff02191690831515021790555062000360620001a260201b60201c565b73ffffffffffffffffffffffffffffffffffffffff168173ffffffffffffffffffffffffffffffffffffffff16837f2f8788117e7eff1d82e926ec794901d17c78024a50270940304540a733656f0d60405160405180910390a45b5050565b6000620003ef836000018373ffffffffffffffffffffffffffffffffffffffff1660001b6200046160201b60201c565b905092915050565b600080600084815260200190815260200160002060000160008373ffffffffffffffffffffffffffffffffffffffff1673ffffffffffffffffffffffffffffffffffffffff16815260200190815260200160002060009054906101000a900460ff16905092915050565b6000620004758383620004db60201b60201c565b620004d0578260000182908060018154018082558091505060019003906000526020600020016000909190919091505582600001805490508360010160008481526020019081526020016000208190555060019050620004d5565b600090505b92915050565b600080836001016000848152602001908152602001600020541415905092915050565b8280546200050c9062000756565b90600052602060002090601f0160209004810192826200053057600085556200057c565b82601f106200054b57805160ff19168380011785556200057c565b828001600101855582156200057c579182015b828111156200057b5782518255916020019190600101906200055e565b5b5090506200058b91906200058f565b5090565b5b80821115620005aa57600081600090555060010162000590565b5090565b6000620005c5620005bf84620006ea565b620006c1565b905082815260208101848484011115620005de57600080fd5b620005eb84828562000720565b509392505050565b600082601f8301126200060557600080fd5b815162000617848260208601620005ae565b91505092915050565b6000806000606084860312156200063657600080fd5b600084015167ffffffffffffffff8111156200065157600080fd5b6200065f86828701620005f3565b935050602084015167ffffffffffffffff8111156200067d57600080fd5b6200068b86828701620005f3565b925050604084015167ffffffffffffffff811115620006a957600080fd5b620006b786828701620005f3565b9150509250925092565b6000620006cd620006e0565b9050620006db82826200078c565b919050565b6000604051905090565b600067ffffffffffffffff821115620007085762000707620007f1565b5b620007138262000820565b9050602081019050919050565b60005b838110156200074057808201518184015260208101905062000723565b8381111562000750576000848401525b50505050565b600060028204905060018216806200076f57607f821691505b60208210811415620007865762000785620007c2565b5b50919050565b620007978262000820565b810181811067ffffffffffffffff82111715620007b957620007b8620007f1565b5b80604052505050565b7f4e487b7100000000000000000000000000000000000000000000000000000000600052602260045260246000fd5b7f4e487b7100000000000000000000000000000000000000000000000000000000600052604160045260246000fd5b6000601f19601f8301169050919050565b615f4280620008416000396000f3fe6080604052600436106102885760003560e01c806370a082311161015a578063bebff7b0116100c1578063e4f601051161007a578063e4f60105146109df578063e63ab1e914610a0a578063e8a3d48514610a35578063e985e9c514610a60578063f2fde38b14610a9d578063feb25f6514610ac657610288565b8063bebff7b0146108a9578063c87b56dd146108d4578063ca15c87314610911578063cad96cca1461094e578063d53913931461098b578063d547741f146109b657610288565b806395d89b411161011357806395d89b41146107ab5780639649bd77146107d6578063a217fddf14610801578063a22cb4651461082c578063a4b5b43a14610855578063b88d4fde1461088057610288565b806370a082311461069b578063715018a6146106d85780638456cb59146106ef5780638da5cb5b146107065780639010d07c1461073157806391d148541461076e57610288565b80632a55205a116101fe57806342842e0e116101b757806342842e0e146105655780634608eb771461058e5780634f6ccce7146105b9578063559e775b146105f65780635c975abb146106335780636352211e1461065e57610288565b80632a55205a146104775780632f2ff15d146104b55780632f745c59146104de57806336568abe1461051b5780633ccfd60b146105445780633f4ba83a1461054e57610288565b8063179fc16411610250578063179fc1641461038657806318160ddd146103b15780632004ffd9146103dc57806323b872dd146103e6578063248a9ca31461040f578063259bb97e1461044c57610288565b806301ffc9a71461028d57806306fdde03146102ca578063081812fc146102f5578063095ea7b31461033257806310005d661461035b575b600080fd5b34801561029957600080fd5b506102b460048036038101906102af91906144e9565b610af1565b6040516102c19190614d1b565b60405180910390f35b3480156102d657600080fd5b506102df610bb0565b6040516102ec9190614d51565b60405180910390f35b34801561030157600080fd5b5061031c6004803603810190610317919061453b565b610c42565b6040516103299190614c69565b60405180910390f35b34801561033e57600080fd5b506103596004803603810190610354919061440c565b610cc7565b005b34801561036757600080fd5b50610370610ddf565b60405161037d919061512e565b60405180910390f35b34801561039257600080fd5b5061039b610dea565b6040516103a8919061512e565b60405180910390f35b3480156103bd57600080fd5b506103c6610df5565b6040516103d3919061512e565b60405180910390f35b6103e4610e02565b005b3480156103f257600080fd5b5061040d60048036038101906104089190614306565b610eca565b005b34801561041b57600080fd5b5061043660048036038101906104319190614448565b610f2a565b6040516104439190614d36565b60405180910390f35b34801561045857600080fd5b50610461610f49565b60405161046e9190615113565b60405180910390f35b34801561048357600080fd5b5061049e60048036038101906104999190614564565b610f67565b6040516104ac929190614cd0565b60405180910390f35b3480156104c157600080fd5b506104dc60048036038101906104d79190614471565b61113d565b005b3480156104ea57600080fd5b506105056004803603810190610500919061440c565b611166565b604051610512919061512e565b60405180910390f35b34801561052757600080fd5b50610542600480360381019061053d9190614471565b61120b565b005b61054c61128e565b005b34801561055a57600080fd5b5061056361132b565b005b34801561057157600080fd5b5061058c60048036038101906105879190614306565b6113a5565b005b34801561059a57600080fd5b506105a36113c5565b6040516105b0919061512e565b60405180910390f35b3480156105c557600080fd5b506105e060048036038101906105db919061453b565b6113d0565b6040516105ed919061512e565b60405180910390f35b34801561060257600080fd5b5061061d6004803603810190610618919061453b565b611467565b60405161062a919061512e565b60405180910390f35b34801561063f57600080fd5b5061064861150d565b6040516106559190614d1b565b60405180910390f35b34801561066a57600080fd5b506106856004803603810190610680919061453b565b611524565b6040516106929190614c69565b60405180910390f35b3480156106a757600080fd5b506106c260048036038101906106bd91906142a1565b6115d6565b6040516106cf919061512e565b60405180910390f35b3480156106e457600080fd5b506106ed61168e565b005b3480156106fb57600080fd5b50610704611716565b005b34801561071257600080fd5b5061071b611790565b6040516107289190614c69565b60405180910390f35b34801561073d57600080fd5b50610758600480360381019061075391906144ad565b6117ba565b6040516107659190614c69565b60405180910390f35b34801561077a57600080fd5b5061079560048036038101906107909190614471565b6117e9565b6040516107a29190614d1b565b60405180910390f35b3480156107b757600080fd5b506107c0611853565b6040516107cd9190614d51565b60405180910390f35b3480156107e257600080fd5b506107eb6118e5565b6040516107f8919061512e565b60405180910390f35b34801561080d57600080fd5b506108166118f1565b6040516108239190614d36565b60405180910390f35b34801561083857600080fd5b50610853600480360381019061084e91906143d0565b6118f8565b005b34801561086157600080fd5b5061086a61190e565b6040516108779190615113565b60405180910390f35b34801561088c57600080fd5b506108a760048036038101906108a29190614355565b611920565b005b3480156108b557600080fd5b506108be611982565b6040516108cb9190615113565b60405180910390f35b3480156108e057600080fd5b506108fb60048036038101906108f6919061453b565b6119a0565b6040516109089190614d51565b60405180910390f35b34801561091d57600080fd5b5061093860048036038101906109339190614448565b6119d1565b604051610945919061512e565b60405180910390f35b34801561095a57600080fd5b506109756004803603810190610970919061453b565b6119f5565b6040516109829190614cf9565b60405180910390f35b34801561099757600080fd5b506109a0611af7565b6040516109ad9190614d36565b60405180910390f35b3480156109c257600080fd5b506109dd60048036038101906109d89190614471565b611b1b565b005b3480156109eb57600080fd5b506109f4611b44565b604051610a019190615113565b60405180910390f35b348015610a1657600080fd5b50610a1f611b56565b604051610a2c9190614d36565b60405180910390f35b348015610a4157600080fd5b50610a4a611b7a565b604051610a579190614d51565b60405180910390f35b348015610a6c57600080fd5b50610a876004803603810190610a8291906142ca565b611c0c565b604051610a949190614d1b565b60405180910390f35b348015610aa957600080fd5b50610ac46004803603810190610abf91906142a1565b611ca0565b005b348015610ad257600080fd5b50610adb611d98565b604051610ae89190615113565b60405180910390f35b600063cad96cca60e01b7bffffffffffffffffffffffffffffffffffffffffffffffffffffffff1916827bffffffffffffffffffffffffffffffffffffffffffffffffffffffff19161415610b495760019050610bab565b632a55205a60e01b7bffffffffffffffffffffffffffffffffffffffffffffffffffffffff1916827bffffffffffffffffffffffffffffffffffffffffffffffffffffffff19161415610b9f5760019050610bab565b610ba882611eae565b90505b919050565b606060028054610bbf906154fa565b80601f0160208091040260200160405190810160405280929190818152602001828054610beb906154fa565b8015610c385780601f10610c0d57610100808354040283529160200191610c38565b820191906000526020600020905b815481529060010190602001808311610c1b57829003601f168201915b5050505050905090565b6000610c4d82611f28565b610c8c576040517f08c379a0000000000000000000000000000000000000000000000000000000008152600401610c8390614f93565b60405180910390fd5b6006600083815260200190815260200160002060009054906101000a900473ffffffffffffffffffffffffffffffffffffffff169050919050565b6000610cd282611524565b90508073ffffffffffffffffffffffffffffffffffffffff168373ffffffffffffffffffffffffffffffffffffffff161415610d43576040517f08c379a0000000000000000000000000000000000000000000000000000000008152600401610d3a90615013565b60405180910390fd5b8073ffffffffffffffffffffffffffffffffffffffff16610d62611f94565b73ffffffffffffffffffffffffffffffffffffffff161480610d915750610d9081610d8b611f94565b611c0c565b5b610dd0576040517f08c379a0000000000000000000000000000000000000000000000000000000008152600401610dc790614f13565b60405180910390fd5b610dda8383611f9c565b505050565b66d529ae9e86000081565b668e1bc9bf04000081565b6000600a80549050905090565b6000610e0c610df5565b905061115c61ffff16811115610e57576040517f08c379a0000000000000000000000000000000000000000000000000000000008152600401610e4e90615093565b60405180910390fd5b610e887f9f2df0fed2c77648de5860a4cc508cd0818c85b8b8a1ab4ceeef8d981c8956a6610e83611f94565b6117e9565b610ea257610e9581611467565b341015610ea157600080fd5b5b610eb3610ead611f94565b82612055565b610ec781610ebf611790565b610190612223565b50565b610edb610ed5611f94565b82612394565b610f1a576040517f08c379a0000000000000000000000000000000000000000000000000000000008152600401610f1190615033565b60405180910390fd5b610f25838383612472565b505050565b6000806000838152602001908152602001600020600101549050919050565b6002600461115c610f5a91906152ac565b610f64919061530e565b81565b6000806000600d6000868152602001908152602001600020805480602002602001604051908101604052809291908181526020016000905b82821015611061578382906000526020600020016040518060400160405290816000820160009054906101000a900473ffffffffffffffffffffffffffffffffffffffff1673ffffffffffffffffffffffffffffffffffffffff1673ffffffffffffffffffffffffffffffffffffffff1681526020016000820160149054906101000a90046bffffffffffffffffffffffff166bffffffffffffffffffffffff166bffffffffffffffffffffffff168152505081526020019060010190610f9f565b50505050905060008151111561112d57806000815181106110ab577f4e487b7100000000000000000000000000000000000000000000000000000000600052603260045260246000fd5b602002602001015160000151612710826000815181106110f4577f4e487b7100000000000000000000000000000000000000000000000000000000600052603260045260246000fd5b6020026020010151602001516bffffffffffffffffffffffff1686611119919061534a565b61112391906152dd565b9250925050611136565b60008092509250505b9250929050565b61114682610f2a565b61115781611152611f94565b6126ce565b611161838361276b565b505050565b6000611171836115d6565b82106111b2576040517f08c379a00000000000000000000000000000000000000000000000000000000081526004016111a990614dd3565b60405180910390fd5b600860008473ffffffffffffffffffffffffffffffffffffffff1673ffffffffffffffffffffffffffffffffffffffff168152602001908152602001600020600083815260200190815260200160002054905092915050565b611213611f94565b73ffffffffffffffffffffffffffffffffffffffff168173ffffffffffffffffffffffffffffffffffffffff1614611280576040517f08c379a0000000000000000000000000000000000000000000000000000000008152600401611277906150f3565b60405180910390fd5b61128a828261279f565b5050565b6112a26000801b61129d611f94565b6117e9565b6112ab57600080fd5b60006112b5611f94565b73ffffffffffffffffffffffffffffffffffffffff16476040516112d890614c1a565b60006040518083038185875af1925050503d8060008114611315576040519150601f19603f3d011682016040523d82523d6000602084013e61131a565b606091505b505090508061132857600080fd5b50565b61135c7f65d7a28e3265b37a6474929f336521b332c1681b933f6cb9f3376673440d862a611357611f94565b6117e9565b61139b576040517f08c379a0000000000000000000000000000000000000000000000000000000008152600401611392906150d3565b60405180910390fd5b6113a36127d3565b565b6113c083838360405180602001604052806000815250611920565b505050565b66470de4df82000081565b60006113da610df5565b821061141b576040517f08c379a000000000000000000000000000000000000000000000000000000000815260040161141290615053565b60405180910390fd5b600a8281548110611455577f4e487b7100000000000000000000000000000000000000000000000000000000600052603260045260246000fd5b90600052602060002001549050919050565b6000600461115c61147891906152ac565b61ffff168210156114925766470de4df8200009050611508565b6002600461115c6114a391906152ac565b6114ad919061530e565b61ffff168210156114c757668e1bc9bf0400009050611508565b6003600461115c6114d891906152ac565b6114e2919061530e565b61ffff168210156114fc5766d529ae9e8600009050611508565b67011c37937e08000090505b919050565b6000600c60009054906101000a900460ff16905090565b6000806004600084815260200190815260200160002060009054906101000a900473ffffffffffffffffffffffffffffffffffffffff169050600073ffffffffffffffffffffffffffffffffffffffff168173ffffffffffffffffffffffffffffffffffffffff1614156115cd576040517f08c379a00000000000000000000000000000000000000000000000000000000081526004016115c490614f53565b60405180910390fd5b80915050919050565b60008073ffffffffffffffffffffffffffffffffffffffff168273ffffffffffffffffffffffffffffffffffffffff161415611647576040517f08c379a000000000000000000000000000000000000000000000000000000000815260040161163e90614f33565b60405180910390fd5b600560008373ffffffffffffffffffffffffffffffffffffffff1673ffffffffffffffffffffffffffffffffffffffff168152602001908152602001600020549050919050565b611696611f94565b73ffffffffffffffffffffffffffffffffffffffff166116b4611790565b73ffffffffffffffffffffffffffffffffffffffff161461170a576040517f08c379a000000000000000000000000000000000000000000000000000000000815260040161170190614fb3565b60405180910390fd5b6117146000612875565b565b6117477f65d7a28e3265b37a6474929f336521b332c1681b933f6cb9f3376673440d862a611742611f94565b6117e9565b611786576040517f08c379a000000000000000000000000000000000000000000000000000000000815260040161177d90614e53565b60405180910390fd5b61178e61293b565b565b6000600c60019054906101000a900473ffffffffffffffffffffffffffffffffffffffff16905090565b60006117e182600160008681526020019081526020016000206129de90919063ffffffff16565b905092915050565b600080600084815260200190815260200160002060000160008373ffffffffffffffffffffffffffffffffffffffff1673ffffffffffffffffffffffffffffffffffffffff16815260200190815260200160002060009054906101000a900460ff16905092915050565b606060038054611862906154fa565b80601f016020809104026020016040519081016040528092919081815260200182805461188e906154fa565b80156118db5780601f106118b0576101008083540402835291602001916118db565b820191906000526020600020905b8154815290600101906020018083116118be57829003601f168201915b5050505050905090565b67011c37937e08000081565b6000801b81565b61190a611903611f94565b83836129f8565b5050565b600461115c61191d91906152ac565b81565b61193161192b611f94565b83612394565b611970576040517f08c379a000000000000000000000000000000000000000000000000000000000815260040161196790615033565b60405180910390fd5b61197c84848484612b65565b50505050565b6003600461115c61199391906152ac565b61199d919061530e565b81565b60606119ab82612bc1565b6040516020016119bb9190614bf8565b6040516020818303038152906040529050919050565b60006119ee60016000848152602001908152602001600020612c68565b9050919050565b6060600d6000838152602001908152602001600020805480602002602001604051908101604052809291908181526020016000905b82821015611aec578382906000526020600020016040518060400160405290816000820160009054906101000a900473ffffffffffffffffffffffffffffffffffffffff1673ffffffffffffffffffffffffffffffffffffffff1673ffffffffffffffffffffffffffffffffffffffff1681526020016000820160149054906101000a90046bffffffffffffffffffffffff166bffffffffffffffffffffffff166bffffffffffffffffffffffff168152505081526020019060010190611a2a565b505050509050919050565b7f9f2df0fed2c77648de5860a4cc508cd0818c85b8b8a1ab4ceeef8d981c8956a681565b611b2482610f2a565b611b3581611b30611f94565b6126ce565b611b3f838361279f565b505050565b600461115c611b5391906152ac565b81565b7f65d7a28e3265b37a6474929f336521b332c1681b933f6cb9f3376673440d862a81565b6060600f8054611b89906154fa565b80601f0160208091040260200160405190810160405280929190818152602001828054611bb5906154fa565b8015611c025780601f10611bd757610100808354040283529160200191611c02565b820191906000526020600020905b815481529060010190602001808311611be557829003601f168201915b5050505050905090565b6000600760008473ffffffffffffffffffffffffffffffffffffffff1673ffffffffffffffffffffffffffffffffffffffff16815260200190815260200160002060008373ffffffffffffffffffffffffffffffffffffffff1673ffffffffffffffffffffffffffffffffffffffff16815260200190815260200160002060009054906101000a900460ff16905092915050565b611ca8611f94565b73ffffffffffffffffffffffffffffffffffffffff16611cc6611790565b73ffffffffffffffffffffffffffffffffffffffff1614611d1c576040517f08c379a0000000000000000000000000000000000000000000000000000000008152600401611d1390614fb3565b60405180910390fd5b600073ffffffffffffffffffffffffffffffffffffffff168173ffffffffffffffffffffffffffffffffffffffff161415611d8c576040517f08c379a0000000000000000000000000000000000000000000000000000000008152600401611d8390614e13565b60405180910390fd5b611d9581612875565b50565b61115c81565b611da882826117e9565b611e7a57600160008084815260200190815260200160002060000160008373ffffffffffffffffffffffffffffffffffffffff1673ffffffffffffffffffffffffffffffffffffffff16815260200190815260200160002060006101000a81548160ff021916908315150217905550611e1f611f94565b73ffffffffffffffffffffffffffffffffffffffff168173ffffffffffffffffffffffffffffffffffffffff16837f2f8788117e7eff1d82e926ec794901d17c78024a50270940304540a733656f0d60405160405180910390a45b5050565b6000611ea6836000018373ffffffffffffffffffffffffffffffffffffffff1660001b612c7d565b905092915050565b60007f780e9d63000000000000000000000000000000000000000000000000000000007bffffffffffffffffffffffffffffffffffffffffffffffffffffffff1916827bffffffffffffffffffffffffffffffffffffffffffffffffffffffff19161480611f215750611f2082612ced565b5b9050919050565b60008073ffffffffffffffffffffffffffffffffffffffff166004600084815260200190815260200160002060009054906101000a900473ffffffffffffffffffffffffffffffffffffffff1673ffffffffffffffffffffffffffffffffffffffff1614159050919050565b600033905090565b816006600083815260200190815260200160002060006101000a81548173ffffffffffffffffffffffffffffffffffffffff021916908373ffffffffffffffffffffffffffffffffffffffff160217905550808273ffffffffffffffffffffffffffffffffffffffff1661200f83611524565b73ffffffffffffffffffffffffffffffffffffffff167f8c5be1e5ebec7d5bd14f71427d1e84f3dd0314c0f7b2291e5b200ac8c7c3b92560405160405180910390a45050565b600073ffffffffffffffffffffffffffffffffffffffff168273ffffffffffffffffffffffffffffffffffffffff1614156120c5576040517f08c379a00000000000000000000000000000000000000000000000000000000081526004016120bc90614f73565b60405180910390fd5b6120ce81611f28565b1561210e576040517f08c379a000000000000000000000000000000000000000000000000000000000815260040161210590614e33565b60405180910390fd5b61211a60008383612dcf565b6001600560008473ffffffffffffffffffffffffffffffffffffffff1673ffffffffffffffffffffffffffffffffffffffff168152602001908152602001600020600082825461216a9190615256565b92505081905550816004600083815260200190815260200160002060006101000a81548173ffffffffffffffffffffffffffffffffffffffff021916908373ffffffffffffffffffffffffffffffffffffffff160217905550808273ffffffffffffffffffffffffffffffffffffffff16600073ffffffffffffffffffffffffffffffffffffffff167fddf252ad1be2c89b69c2b068fc378daa952ba7f163c4a11628f55a4df523b3ef60405160405180910390a45050565b6000600167ffffffffffffffff811115612266577f4e487b7100000000000000000000000000000000000000000000000000000000600052604160045260246000fd5b60405190808252806020026020018201604052801561229f57816020015b61228c61417d565b8152602001906001900390816122845790505b50905081816000815181106122dd577f4e487b7100000000000000000000000000000000000000000000000000000000600052603260045260246000fd5b6020026020010151602001906bffffffffffffffffffffffff1690816bffffffffffffffffffffffff16815250508281600081518110612346577f4e487b7100000000000000000000000000000000000000000000000000000000600052603260045260246000fd5b60200260200101516000019073ffffffffffffffffffffffffffffffffffffffff16908173ffffffffffffffffffffffffffffffffffffffff168152505061238e8482612ddf565b50505050565b600061239f82611f28565b6123de576040517f08c379a00000000000000000000000000000000000000000000000000000000081526004016123d590614eb3565b60405180910390fd5b60006123e983611524565b90508073ffffffffffffffffffffffffffffffffffffffff168473ffffffffffffffffffffffffffffffffffffffff16148061245857508373ffffffffffffffffffffffffffffffffffffffff1661244084610c42565b73ffffffffffffffffffffffffffffffffffffffff16145b8061246957506124688185611c0c565b5b91505092915050565b8273ffffffffffffffffffffffffffffffffffffffff1661249282611524565b73ffffffffffffffffffffffffffffffffffffffff16146124e8576040517f08c379a00000000000000000000000000000000000000000000000000000000081526004016124df90614fd3565b60405180910390fd5b600073ffffffffffffffffffffffffffffffffffffffff168273ffffffffffffffffffffffffffffffffffffffff161415612558576040517f08c379a000000000000000000000000000000000000000000000000000000000815260040161254f90614e73565b60405180910390fd5b612563838383612dcf565b61256e600082611f9c565b6001600560008573ffffffffffffffffffffffffffffffffffffffff1673ffffffffffffffffffffffffffffffffffffffff16815260200190815260200160002060008282546125be91906153a4565b925050819055506001600560008473ffffffffffffffffffffffffffffffffffffffff1673ffffffffffffffffffffffffffffffffffffffff16815260200190815260200160002060008282546126159190615256565b92505081905550816004600083815260200190815260200160002060006101000a81548173ffffffffffffffffffffffffffffffffffffffff021916908373ffffffffffffffffffffffffffffffffffffffff160217905550808273ffffffffffffffffffffffffffffffffffffffff168473ffffffffffffffffffffffffffffffffffffffff167fddf252ad1be2c89b69c2b068fc378daa952ba7f163c4a11628f55a4df523b3ef60405160405180910390a4505050565b6126d882826117e9565b612767576126fd8173ffffffffffffffffffffffffffffffffffffffff1660146130fa565b61270b8360001c60206130fa565b60405160200161271c929190614c2f565b6040516020818303038152906040526040517f08c379a000000000000000000000000000000000000000000000000000000000815260040161275e9190614d51565b60405180910390fd5b5050565b6127758282611d9e565b61279a8160016000858152602001908152602001600020611e7e90919063ffffffff16565b505050565b6127a982826133f4565b6127ce81600160008581526020019081526020016000206134d590919063ffffffff16565b505050565b6127db61150d565b61281a576040517f08c379a000000000000000000000000000000000000000000000000000000000815260040161281190614db3565b60405180910390fd5b6000600c60006101000a81548160ff0219169083151502179055507f5db9ee0a495bf2e6ff9c91a7834c1ba4fdd244a5e8aa4e537bd38aeae4b073aa61285e611f94565b60405161286b9190614c69565b60405180910390a1565b6000600c60019054906101000a900473ffffffffffffffffffffffffffffffffffffffff16905081600c60016101000a81548173ffffffffffffffffffffffffffffffffffffffff021916908373ffffffffffffffffffffffffffffffffffffffff1602179055508173ffffffffffffffffffffffffffffffffffffffff168173ffffffffffffffffffffffffffffffffffffffff167f8be0079c531659141344cd1fd0a4f28419497f9722a3daafe3b4186f6b6457e060405160405180910390a35050565b61294361150d565b15612983576040517f08c379a000000000000000000000000000000000000000000000000000000000815260040161297a90614ef3565b60405180910390fd5b6001600c60006101000a81548160ff0219169083151502179055507f62e78cea01bee320cd4e420270b5ea74000d11b0c9f74754ebdbfc544b05a2586129c7611f94565b6040516129d49190614c69565b60405180910390a1565b60006129ed8360000183613505565b60001c905092915050565b8173ffffffffffffffffffffffffffffffffffffffff168373ffffffffffffffffffffffffffffffffffffffff161415612a67576040517f08c379a0000000000000000000000000000000000000000000000000000000008152600401612a5e90614e93565b60405180910390fd5b80600760008573ffffffffffffffffffffffffffffffffffffffff1673ffffffffffffffffffffffffffffffffffffffff16815260200190815260200160002060008473ffffffffffffffffffffffffffffffffffffffff1673ffffffffffffffffffffffffffffffffffffffff16815260200190815260200160002060006101000a81548160ff0219169083151502179055508173ffffffffffffffffffffffffffffffffffffffff168373ffffffffffffffffffffffffffffffffffffffff167f17307eab39ab6107e8899845ad3d59bd9653f200f220920489ca2b5937696c3183604051612b589190614d1b565b60405180910390a3505050565b612b70848484612472565b612b7c84848484613556565b612bbb576040517f08c379a0000000000000000000000000000000000000000000000000000000008152600401612bb290614df3565b60405180910390fd5b50505050565b6060612bcc82611f28565b612c0b576040517f08c379a0000000000000000000000000000000000000000000000000000000008152600401612c0290614ff3565b60405180910390fd5b6000612c156136ed565b90506000815111612c355760405180602001604052806000815250612c60565b80612c3f8461377f565b604051602001612c50929190614bd4565b6040516020818303038152906040525b915050919050565b6000612c768260000161392c565b9050919050565b6000612c89838361393d565b612ce2578260000182908060018154018082558091505060019003906000526020600020016000909190919091505582600001805490508360010160008481526020019081526020016000208190555060019050612ce7565b600090505b92915050565b60007f80ac58cd000000000000000000000000000000000000000000000000000000007bffffffffffffffffffffffffffffffffffffffffffffffffffffffff1916827bffffffffffffffffffffffffffffffffffffffffffffffffffffffff19161480612db857507f5b5e139f000000000000000000000000000000000000000000000000000000007bffffffffffffffffffffffffffffffffffffffffffffffffffffffff1916827bffffffffffffffffffffffffffffffffffffffffffffffffffffffff1916145b80612dc85750612dc782613960565b5b9050919050565b612dda8383836139da565b505050565b600080600090505b82518110156130a657600073ffffffffffffffffffffffffffffffffffffffff16838281518110612e41577f4e487b7100000000000000000000000000000000000000000000000000000000600052603260045260246000fd5b60200260200101516000015173ffffffffffffffffffffffffffffffffffffffff161415612ea4576040517f08c379a0000000000000000000000000000000000000000000000000000000008152600401612e9b906150b3565b60405180910390fd5b6000838281518110612edf577f4e487b7100000000000000000000000000000000000000000000000000000000600052603260045260246000fd5b6020026020010151602001516bffffffffffffffffffffffff161415612f3a576040517f08c379a0000000000000000000000000000000000000000000000000000000008152600401612f3190614ed3565b60405180910390fd5b828181518110612f73577f4e487b7100000000000000000000000000000000000000000000000000000000600052603260045260246000fd5b6020026020010151602001516bffffffffffffffffffffffff1682612f989190615256565b9150600d6000858152602001908152602001600020838281518110612fe6577f4e487b7100000000000000000000000000000000000000000000000000000000600052603260045260246000fd5b60200260200101519080600181540180825580915050600190039060005260206000200160009091909190915060008201518160000160006101000a81548173ffffffffffffffffffffffffffffffffffffffff021916908373ffffffffffffffffffffffffffffffffffffffff16021790555060208201518160000160146101000a8154816bffffffffffffffffffffffff02191690836bffffffffffffffffffffffff1602179055505050808061309e9061555d565b915050612de7565b5061271081106130eb576040517f08c379a00000000000000000000000000000000000000000000000000000000081526004016130e290615073565b60405180910390fd5b6130f58383613a32565b505050565b60606000600283600261310d919061534a565b6131179190615256565b67ffffffffffffffff811115613156577f4e487b7100000000000000000000000000000000000000000000000000000000600052604160045260246000fd5b6040519080825280601f01601f1916602001820160405280156131885781602001600182028036833780820191505090505b5090507f3000000000000000000000000000000000000000000000000000000000000000816000815181106131e6577f4e487b7100000000000000000000000000000000000000000000000000000000600052603260045260246000fd5b60200101907effffffffffffffffffffffffffffffffffffffffffffffffffffffffffffff1916908160001a9053507f780000000000000000000000000000000000000000000000000000000000000081600181518110613270577f4e487b7100000000000000000000000000000000000000000000000000000000600052603260045260246000fd5b60200101907effffffffffffffffffffffffffffffffffffffffffffffffffffffffffffff1916908160001a905350600060018460026132b0919061534a565b6132ba9190615256565b90505b60018111156133a6577f3031323334353637383961626364656600000000000000000000000000000000600f861660108110613322577f4e487b7100000000000000000000000000000000000000000000000000000000600052603260045260246000fd5b1a60f81b82828151811061335f577f4e487b7100000000000000000000000000000000000000000000000000000000600052603260045260246000fd5b60200101907effffffffffffffffffffffffffffffffffffffffffffffffffffffffffffff1916908160001a905350600485901c94508061339f906154d0565b90506132bd565b50600084146133ea576040517f08c379a00000000000000000000000000000000000000000000000000000000081526004016133e190614d73565b60405180910390fd5b8091505092915050565b6133fe82826117e9565b156134d157600080600084815260200190815260200160002060000160008373ffffffffffffffffffffffffffffffffffffffff1673ffffffffffffffffffffffffffffffffffffffff16815260200190815260200160002060006101000a81548160ff021916908315150217905550613476611f94565b73ffffffffffffffffffffffffffffffffffffffff168173ffffffffffffffffffffffffffffffffffffffff16837ff6391f5c32d9c69d2a47ea670b442974b53935d1edc7fd64eb21e047a839171b60405160405180910390a45b5050565b60006134fd836000018373ffffffffffffffffffffffffffffffffffffffff1660001b613a6f565b905092915050565b6000826000018281548110613543577f4e487b7100000000000000000000000000000000000000000000000000000000600052603260045260246000fd5b9060005260206000200154905092915050565b60006135778473ffffffffffffffffffffffffffffffffffffffff16613bf5565b156136e0578373ffffffffffffffffffffffffffffffffffffffff1663150b7a026135a0611f94565b8786866040518563ffffffff1660e01b81526004016135c29493929190614c84565b602060405180830381600087803b1580156135dc57600080fd5b505af192505050801561360d57506040513d601f19601f8201168201806040525081019061360a9190614512565b60015b613690573d806000811461363d576040519150601f19603f3d011682016040523d82523d6000602084013e613642565b606091505b50600081511415613688576040517f08c379a000000000000000000000000000000000000000000000000000000000815260040161367f90614df3565b60405180910390fd5b805181602001fd5b63150b7a0260e01b7bffffffffffffffffffffffffffffffffffffffffffffffffffffffff1916817bffffffffffffffffffffffffffffffffffffffffffffffffffffffff1916149150506136e5565b600190505b949350505050565b6060600e80546136fc906154fa565b80601f0160208091040260200160405190810160405280929190818152602001828054613728906154fa565b80156137755780601f1061374a57610100808354040283529160200191613775565b820191906000526020600020905b81548152906001019060200180831161375857829003601f168201915b5050505050905090565b606060008214156137c7576040518060400160405280600181526020017f30000000000000000000000000000000000000000000000000000000000000008152509050613927565b600082905060005b600082146137f95780806137e29061555d565b915050600a826137f291906152dd565b91506137cf565b60008167ffffffffffffffff81111561383b577f4e487b7100000000000000000000000000000000000000000000000000000000600052604160045260246000fd5b6040519080825280601f01601f19166020018201604052801561386d5781602001600182028036833780820191505090505b5090505b600085146139205760018261388691906153a4565b9150600a8561389591906155a6565b60306138a19190615256565b60f81b8183815181106138dd577f4e487b7100000000000000000000000000000000000000000000000000000000600052603260045260246000fd5b60200101907effffffffffffffffffffffffffffffffffffffffffffffffffffffffffffff1916908160001a905350600a8561391991906152dd565b9450613871565b8093505050505b919050565b600081600001805490509050919050565b600080836001016000848152602001908152602001600020541415905092915050565b60007f5a05180f000000000000000000000000000000000000000000000000000000007bffffffffffffffffffffffffffffffffffffffffffffffffffffffff1916827bffffffffffffffffffffffffffffffffffffffffffffffffffffffff191614806139d357506139d282613c08565b5b9050919050565b6139e5838383613c82565b6139ed61150d565b15613a2d576040517f08c379a0000000000000000000000000000000000000000000000000000000008152600401613a2490614d93565b60405180910390fd5b505050565b7f3fa96d7b6bcbfe71ef171666d84db3cf52fa2d1c8afdb1cc8e486177f208b7df8282604051613a63929190615149565b60405180910390a15050565b60008083600101600084815260200190815260200160002054905060008114613be9576000600182613aa191906153a4565b9050600060018660000180549050613ab991906153a4565b9050818114613b74576000866000018281548110613b00577f4e487b7100000000000000000000000000000000000000000000000000000000600052603260045260246000fd5b9060005260206000200154905080876000018481548110613b4a577f4e487b7100000000000000000000000000000000000000000000000000000000600052603260045260246000fd5b90600052602060002001819055508387600101600083815260200190815260200160002081905550505b85600001805480613bae577f4e487b7100000000000000000000000000000000000000000000000000000000600052603160045260246000fd5b600190038181906000526020600020016000905590558560010160008681526020019081526020016000206000905560019350505050613bef565b60009150505b92915050565b600080823b905060008111915050919050565b60007f7965db0b000000000000000000000000000000000000000000000000000000007bffffffffffffffffffffffffffffffffffffffffffffffffffffffff1916827bffffffffffffffffffffffffffffffffffffffffffffffffffffffff19161480613c7b5750613c7a82613d96565b5b9050919050565b613c8d838383613e00565b600073ffffffffffffffffffffffffffffffffffffffff168373ffffffffffffffffffffffffffffffffffffffff161415613cd057613ccb81613e05565b613d0f565b8173ffffffffffffffffffffffffffffffffffffffff168373ffffffffffffffffffffffffffffffffffffffff1614613d0e57613d0d8382613e4e565b5b5b600073ffffffffffffffffffffffffffffffffffffffff168273ffffffffffffffffffffffffffffffffffffffff161415613d5257613d4d81613fbb565b613d91565b8273ffffffffffffffffffffffffffffffffffffffff168273ffffffffffffffffffffffffffffffffffffffff1614613d9057613d8f82826140fe565b5b5b505050565b60007f01ffc9a7000000000000000000000000000000000000000000000000000000007bffffffffffffffffffffffffffffffffffffffffffffffffffffffff1916827bffffffffffffffffffffffffffffffffffffffffffffffffffffffff1916149050919050565b505050565b600a80549050600b600083815260200190815260200160002081905550600a81908060018154018082558091505060019003906000526020600020016000909190919091505550565b60006001613e5b846115d6565b613e6591906153a4565b9050600060096000848152602001908152602001600020549050818114613f4a576000600860008673ffffffffffffffffffffffffffffffffffffffff1673ffffffffffffffffffffffffffffffffffffffff168152602001908152602001600020600084815260200190815260200160002054905080600860008773ffffffffffffffffffffffffffffffffffffffff1673ffffffffffffffffffffffffffffffffffffffff168152602001908152602001600020600084815260200190815260200160002081905550816009600083815260200190815260200160002081905550505b6009600084815260200190815260200160002060009055600860008573ffffffffffffffffffffffffffffffffffffffff1673ffffffffffffffffffffffffffffffffffffffff16815260200190815260200160002060008381526020019081526020016000206000905550505050565b60006001600a80549050613fcf91906153a4565b90506000600b60008481526020019081526020016000205490506000600a8381548110614025577f4e487b7100000000000000000000000000000000000000000000000000000000600052603260045260246000fd5b9060005260206000200154905080600a838154811061406d577f4e487b7100000000000000000000000000000000000000000000000000000000600052603260045260246000fd5b906000526020600020018190555081600b600083815260200190815260200160002081905550600b600085815260200190815260200160002060009055600a8054806140e2577f4e487b7100000000000000000000000000000000000000000000000000000000600052603160045260246000fd5b6001900381819060005260206000200160009055905550505050565b6000614109836115d6565b905081600860008573ffffffffffffffffffffffffffffffffffffffff1673ffffffffffffffffffffffffffffffffffffffff168152602001908152602001600020600083815260200190815260200160002081905550806009600084815260200190815260200160002081905550505050565b6040518060400160405280600073ffffffffffffffffffffffffffffffffffffffff16815260200160006bffffffffffffffffffffffff1681525090565b60006141ce6141c98461519e565b615179565b9050828152602081018484840111156141e657600080fd5b6141f184828561548e565b509392505050565b60008135905061420881615e99565b92915050565b60008135905061421d81615eb0565b92915050565b60008135905061423281615ec7565b92915050565b60008135905061424781615ede565b92915050565b60008151905061425c81615ede565b92915050565b600082601f83011261427357600080fd5b81356142838482602086016141bb565b91505092915050565b60008135905061429b81615ef5565b92915050565b6000602082840312156142b357600080fd5b60006142c1848285016141f9565b91505092915050565b600080604083850312156142dd57600080fd5b60006142eb858286016141f9565b92505060206142fc858286016141f9565b9150509250929050565b60008060006060848603121561431b57600080fd5b6000614329868287016141f9565b935050602061433a868287016141f9565b925050604061434b8682870161428c565b9150509250925092565b6000806000806080858703121561436b57600080fd5b6000614379878288016141f9565b945050602061438a878288016141f9565b935050604061439b8782880161428c565b925050606085013567ffffffffffffffff8111156143b857600080fd5b6143c487828801614262565b91505092959194509250565b600080604083850312156143e357600080fd5b60006143f1858286016141f9565b92505060206144028582860161420e565b9150509250929050565b6000806040838503121561441f57600080fd5b600061442d858286016141f9565b925050602061443e8582860161428c565b9150509250929050565b60006020828403121561445a57600080fd5b600061446884828501614223565b91505092915050565b6000806040838503121561448457600080fd5b600061449285828601614223565b92505060206144a3858286016141f9565b9150509250929050565b600080604083850312156144c057600080fd5b60006144ce85828601614223565b92505060206144df8582860161428c565b9150509250929050565b6000602082840312156144fb57600080fd5b600061450984828501614238565b91505092915050565b60006020828403121561452457600080fd5b60006145328482850161424d565b91505092915050565b60006020828403121561454d57600080fd5b600061455b8482850161428c565b91505092915050565b6000806040838503121561457757600080fd5b60006145858582860161428c565b92505060206145968582860161428c565b9150509250929050565b60006145ac8383614b78565b60408301905092915050565b6145c1816153ea565b82525050565b6145d0816153d8565b82525050565b60006145e1826151df565b6145eb818561520d565b93506145f6836151cf565b8060005b8381101561462757815161460e88826145a0565b975061461983615200565b9250506001810190506145fa565b5085935050505092915050565b61463d816153fc565b82525050565b61464c81615408565b82525050565b600061465d826151ea565b614667818561521e565b935061467781856020860161549d565b61468081615693565b840191505092915050565b6000614696826151f5565b6146a0818561523a565b93506146b081856020860161549d565b6146b981615693565b840191505092915050565b60006146cf826151f5565b6146d9818561524b565b93506146e981856020860161549d565b80840191505092915050565b600061470260208361523a565b915061470d826156a4565b602082019050919050565b6000614725602b8361523a565b9150614730826156cd565b604082019050919050565b600061474860148361523a565b91506147538261571c565b602082019050919050565b600061476b602b8361523a565b915061477682615745565b604082019050919050565b600061478e60328361523a565b915061479982615794565b604082019050919050565b60006147b160268361523a565b91506147bc826157e3565b604082019050919050565b60006147d4601c8361523a565b91506147df82615832565b602082019050919050565b60006147f7603e8361523a565b91506148028261585b565b604082019050919050565b600061481a60248361523a565b9150614825826158aa565b604082019050919050565b600061483d60198361523a565b9150614848826158f9565b602082019050919050565b6000614860602c8361523a565b915061486b82615922565b604082019050919050565b600061488360208361523a565b915061488e82615971565b602082019050919050565b60006148a660108361523a565b91506148b18261599a565b602082019050919050565b60006148c960388361523a565b91506148d4826159c3565b604082019050919050565b60006148ec602a8361523a565b91506148f782615a12565b604082019050919050565b600061490f60298361523a565b915061491a82615a61565b604082019050919050565b600061493260208361523a565b915061493d82615ab0565b602082019050919050565b6000614955602c8361523a565b915061496082615ad9565b604082019050919050565b600061497860058361524b565b915061498382615b28565b600582019050919050565b600061499b60208361523a565b91506149a682615b51565b602082019050919050565b60006149be60298361523a565b91506149c982615b7a565b604082019050919050565b60006149e1602f8361523a565b91506149ec82615bc9565b604082019050919050565b6000614a0460218361523a565b9150614a0f82615c18565b604082019050919050565b6000614a2760008361522f565b9150614a3282615c67565b600082019050919050565b6000614a4a60318361523a565b9150614a5582615c6a565b604082019050919050565b6000614a6d602c8361523a565b9150614a7882615cb9565b604082019050919050565b6000614a9060258361523a565b9150614a9b82615d08565b604082019050919050565b6000614ab360058361523a565b9150614abe82615d57565b602082019050919050565b6000614ad660178361524b565b9150614ae182615d80565b601782019050919050565b6000614af9601b8361523a565b9150614b0482615da9565b602082019050919050565b6000614b1c60408361523a565b9150614b2782615dd2565b604082019050919050565b6000614b3f60118361524b565b9150614b4a82615e21565b601182019050919050565b6000614b62602f8361523a565b9150614b6d82615e4a565b604082019050919050565b604082016000820151614b8e60008501826145b8565b506020820151614ba16020850182614bc5565b50505050565b614bb08161543e565b82525050565b614bbf8161546c565b82525050565b614bce81615476565b82525050565b6000614be082856146c4565b9150614bec82846146c4565b91508190509392505050565b6000614c0482846146c4565b9150614c0f8261496b565b915081905092915050565b6000614c2582614a1a565b9150819050919050565b6000614c3a82614ac9565b9150614c4682856146c4565b9150614c5182614b32565b9150614c5d82846146c4565b91508190509392505050565b6000602082019050614c7e60008301846145c7565b92915050565b6000608082019050614c9960008301876145c7565b614ca660208301866145c7565b614cb36040830185614bb6565b8181036060830152614cc58184614652565b905095945050505050565b6000604082019050614ce560008301856145c7565b614cf26020830184614bb6565b9392505050565b60006020820190508181036000830152614d1381846145d6565b905092915050565b6000602082019050614d306000830184614634565b92915050565b6000602082019050614d4b6000830184614643565b92915050565b60006020820190508181036000830152614d6b818461468b565b905092915050565b60006020820190508181036000830152614d8c816146f5565b9050919050565b60006020820190508181036000830152614dac81614718565b9050919050565b60006020820190508181036000830152614dcc8161473b565b9050919050565b60006020820190508181036000830152614dec8161475e565b9050919050565b60006020820190508181036000830152614e0c81614781565b9050919050565b60006020820190508181036000830152614e2c816147a4565b9050919050565b60006020820190508181036000830152614e4c816147c7565b9050919050565b60006020820190508181036000830152614e6c816147ea565b9050919050565b60006020820190508181036000830152614e8c8161480d565b9050919050565b60006020820190508181036000830152614eac81614830565b9050919050565b60006020820190508181036000830152614ecc81614853565b9050919050565b60006020820190508181036000830152614eec81614876565b9050919050565b60006020820190508181036000830152614f0c81614899565b9050919050565b60006020820190508181036000830152614f2c816148bc565b9050919050565b60006020820190508181036000830152614f4c816148df565b9050919050565b60006020820190508181036000830152614f6c81614902565b9050919050565b60006020820190508181036000830152614f8c81614925565b9050919050565b60006020820190508181036000830152614fac81614948565b9050919050565b60006020820190508181036000830152614fcc8161498e565b9050919050565b60006020820190508181036000830152614fec816149b1565b9050919050565b6000602082019050818103600083015261500c816149d4565b9050919050565b6000602082019050818103600083015261502c816149f7565b9050919050565b6000602082019050818103600083015261504c81614a3d565b9050919050565b6000602082019050818103600083015261506c81614a60565b9050919050565b6000602082019050818103600083015261508c81614a83565b9050919050565b600060208201905081810360008301526150ac81614aa6565b9050919050565b600060208201905081810360008301526150cc81614aec565b9050919050565b600060208201905081810360008301526150ec81614b0f565b9050919050565b6000602082019050818103600083015261510c81614b55565b9050919050565b60006020820190506151286000830184614ba7565b92915050565b60006020820190506151436000830184614bb6565b92915050565b600060408201905061515e6000830185614bb6565b818103602083015261517081846145d6565b90509392505050565b6000615183615194565b905061518f828261552c565b919050565b6000604051905090565b600067ffffffffffffffff8211156151b9576151b8615664565b5b6151c282615693565b9050602081019050919050565b6000819050602082019050919050565b600081519050919050565b600081519050919050565b600081519050919050565b6000602082019050919050565b600082825260208201905092915050565b600082825260208201905092915050565b600081905092915050565b600082825260208201905092915050565b600081905092915050565b60006152618261546c565b915061526c8361546c565b9250827fffffffffffffffffffffffffffffffffffffffffffffffffffffffffffffffff038211156152a1576152a06155d7565b5b828201905092915050565b60006152b78261543e565b91506152c28361543e565b9250826152d2576152d1615606565b5b828204905092915050565b60006152e88261546c565b91506152f38361546c565b92508261530357615302615606565b5b828204905092915050565b60006153198261543e565b91506153248361543e565b92508161ffff048311821515161561533f5761533e6155d7565b5b828202905092915050565b60006153558261546c565b91506153608361546c565b9250817fffffffffffffffffffffffffffffffffffffffffffffffffffffffffffffffff0483118215151615615399576153986155d7565b5b828202905092915050565b60006153af8261546c565b91506153ba8361546c565b9250828210156153cd576153cc6155d7565b5b828203905092915050565b60006153e38261544c565b9050919050565b60006153f58261544c565b9050919050565b60008115159050919050565b6000819050919050565b60007fffffffff0000000000000000000000000000000000000000000000000000000082169050919050565b600061ffff82169050919050565b600073ffffffffffffffffffffffffffffffffffffffff82169050919050565b6000819050919050565b60006bffffffffffffffffffffffff82169050919050565b82818337600083830152505050565b60005b838110156154bb5780820151818401526020810190506154a0565b838111156154ca576000848401525b50505050565b60006154db8261546c565b915060008214156154ef576154ee6155d7565b5b600182039050919050565b6000600282049050600182168061551257607f821691505b6020821081141561552657615525615635565b5b50919050565b61553582615693565b810181811067ffffffffffffffff8211171561555457615553615664565b5b80604052505050565b60006155688261546c565b91507fffffffffffffffffffffffffffffffffffffffffffffffffffffffffffffffff82141561559b5761559a6155d7565b5b600182019050919050565b60006155b18261546c565b91506155bc8361546c565b9250826155cc576155cb615606565b5b828206905092915050565b7f4e487b7100000000000000000000000000000000000000000000000000000000600052601160045260246000fd5b7f4e487b7100000000000000000000000000000000000000000000000000000000600052601260045260246000fd5b7f4e487b7100000000000000000000000000000000000000000000000000000000600052602260045260246000fd5b7f4e487b7100000000000000000000000000000000000000000000000000000000600052604160045260246000fd5b6000601f19601f8301169050919050565b7f537472696e67733a20686578206c656e67746820696e73756666696369656e74600082015250565b7f4552433732315061757361626c653a20746f6b656e207472616e73666572207760008201527f68696c6520706175736564000000000000000000000000000000000000000000602082015250565b7f5061757361626c653a206e6f7420706175736564000000000000000000000000600082015250565b7f455243373231456e756d657261626c653a206f776e657220696e646578206f7560008201527f74206f6620626f756e6473000000000000000000000000000000000000000000602082015250565b7f4552433732313a207472616e7366657220746f206e6f6e20455243373231526560008201527f63656976657220696d706c656d656e7465720000000000000000000000000000602082015250565b7f4f776e61626c653a206e6577206f776e657220697320746865207a65726f206160008201527f6464726573730000000000000000000000000000000000000000000000000000602082015250565b7f4552433732313a20746f6b656e20616c7265616479206d696e74656400000000600082015250565b7f4552433732315072657365744d696e7465725061757365724175746f49643a2060008201527f6d75737420686176652070617573657220726f6c6520746f2070617573650000602082015250565b7f4552433732313a207472616e7366657220746f20746865207a65726f2061646460008201527f7265737300000000000000000000000000000000000000000000000000000000602082015250565b7f4552433732313a20617070726f766520746f2063616c6c657200000000000000600082015250565b7f4552433732313a206f70657261746f7220717565727920666f72206e6f6e657860008201527f697374656e7420746f6b656e0000000000000000000000000000000000000000602082015250565b7f526f79616c74792076616c75652073686f756c6420626520706f736974697665600082015250565b7f5061757361626c653a2070617573656400000000000000000000000000000000600082015250565b7f4552433732313a20617070726f76652063616c6c6572206973206e6f74206f7760008201527f6e6572206e6f7220617070726f76656420666f7220616c6c0000000000000000602082015250565b7f4552433732313a2062616c616e636520717565727920666f7220746865207a6560008201527f726f206164647265737300000000000000000000000000000000000000000000602082015250565b7f4552433732313a206f776e657220717565727920666f72206e6f6e657869737460008201527f656e7420746f6b656e0000000000000000000000000000000000000000000000602082015250565b7f4552433732313a206d696e7420746f20746865207a65726f2061646472657373600082015250565b7f4552433732313a20617070726f76656420717565727920666f72206e6f6e657860008201527f697374656e7420746f6b656e0000000000000000000000000000000000000000602082015250565b7f2e6a736f6e000000000000000000000000000000000000000000000000000000600082015250565b7f4f776e61626c653a2063616c6c6572206973206e6f7420746865206f776e6572600082015250565b7f4552433732313a207472616e73666572206f6620746f6b656e2074686174206960008201527f73206e6f74206f776e0000000000000000000000000000000000000000000000602082015250565b7f4552433732314d657461646174613a2055524920717565727920666f72206e6f60008201527f6e6578697374656e7420746f6b656e0000000000000000000000000000000000602082015250565b7f4552433732313a20617070726f76616c20746f2063757272656e74206f776e6560008201527f7200000000000000000000000000000000000000000000000000000000000000602082015250565b50565b7f4552433732313a207472616e736665722063616c6c6572206973206e6f74206f60008201527f776e6572206e6f7220617070726f766564000000000000000000000000000000602082015250565b7f455243373231456e756d657261626c653a20676c6f62616c20696e646578206f60008201527f7574206f6620626f756e64730000000000000000000000000000000000000000602082015250565b7f526f79616c747920746f74616c2076616c75652073686f756c64206265203c2060008201527f3130303030000000000000000000000000000000000000000000000000000000602082015250565b7f4c696d6974000000000000000000000000000000000000000000000000000000600082015250565b7f416363657373436f6e74726f6c3a206163636f756e7420000000000000000000600082015250565b7f526563697069656e742073686f756c642062652070726573656e740000000000600082015250565b7f4552433732315072657365744d696e7465725061757365724175746f49643a2060008201527f6d75737420686176652070617573657220726f6c6520746f20756e7061757365602082015250565b7f206973206d697373696e6720726f6c6520000000000000000000000000000000600082015250565b7f416363657373436f6e74726f6c3a2063616e206f6e6c792072656e6f756e636560008201527f20726f6c657320666f722073656c660000000000000000000000000000000000602082015250565b615ea2816153d8565b8114615ead57600080fd5b50565b615eb9816153fc565b8114615ec457600080fd5b50565b615ed081615408565b8114615edb57600080fd5b50565b615ee781615412565b8114615ef257600080fd5b50565b615efe8161546c565b8114615f0957600080fd5b5056fea2646970667358221220c1f5531b4c387f176462102a4ab6b785f6d6cb1870aa438b605a77824917fb5f64736f6c6343000804003368747470733a2f2f67616c616765742e636f6d2f67616c616765742d636f6e74726163742d6d657461646174612e6a736f6e",
  "linkReferences": {},
  "deployedLinkReferences": {}
}