{
  "_format": "hh-sol-artifact-1",
  "contractName": "Galaget",
  "sourceName": "contracts/Galaget.sol",
  "abi": [
    {
      "inputs": [
        {
          "internalType": "string",
          "name": "name",
          "type": "string"
        },
        {
          "internalType": "string",
          "name": "symbol",
          "type": "string"
        },
        {
          "internalType": "string",
          "name": "baseTokenURI",
          "type": "string"
        }
      ],
      "stateMutability": "nonpayable",
      "type": "constructor"
    },
    {
      "anonymous": false,
      "inputs": [
        {
          "indexed": true,
          "internalType": "address",
          "name": "owner",
          "type": "address"
        },
        {
          "indexed": true,
          "internalType": "address",
          "name": "approved",
          "type": "address"
        },
        {
          "indexed": true,
          "internalType": "uint256",
          "name": "tokenId",
          "type": "uint256"
        }
      ],
      "name": "Approval",
      "type": "event"
    },
    {
      "anonymous": false,
      "inputs": [
        {
          "indexed": true,
          "internalType": "address",
          "name": "owner",
          "type": "address"
        },
        {
          "indexed": true,
          "internalType": "address",
          "name": "operator",
          "type": "address"
        },
        {
          "indexed": false,
          "internalType": "bool",
          "name": "approved",
          "type": "bool"
        }
      ],
      "name": "ApprovalForAll",
      "type": "event"
    },
    {
      "anonymous": false,
      "inputs": [
        {
          "indexed": true,
          "internalType": "address",
          "name": "previousOwner",
          "type": "address"
        },
        {
          "indexed": true,
          "internalType": "address",
          "name": "newOwner",
          "type": "address"
        }
      ],
      "name": "OwnershipTransferred",
      "type": "event"
    },
    {
      "anonymous": false,
      "inputs": [
        {
          "indexed": false,
          "internalType": "address",
          "name": "account",
          "type": "address"
        }
      ],
      "name": "Paused",
      "type": "event"
    },
    {
      "anonymous": false,
      "inputs": [
        {
          "indexed": true,
          "internalType": "address",
          "name": "from",
          "type": "address"
        },
        {
          "indexed": true,
          "internalType": "address",
          "name": "to",
          "type": "address"
        },
        {
          "indexed": true,
          "internalType": "uint256",
          "name": "tokenId",
          "type": "uint256"
        }
      ],
      "name": "Transfer",
      "type": "event"
    },
    {
      "anonymous": false,
      "inputs": [
        {
          "indexed": false,
          "internalType": "address",
          "name": "account",
          "type": "address"
        }
      ],
      "name": "Unpaused",
      "type": "event"
    },
    {
      "inputs": [],
      "name": "TOKEN_LIMIT",
      "outputs": [
        {
          "internalType": "uint16",
          "name": "",
          "type": "uint16"
        }
      ],
      "stateMutability": "view",
      "type": "function"
    },
    {
      "inputs": [
        {
          "internalType": "address",
          "name": "to",
          "type": "address"
        },
        {
          "internalType": "uint256",
          "name": "tokenId",
          "type": "uint256"
        }
      ],
      "name": "approve",
      "outputs": [],
      "stateMutability": "nonpayable",
      "type": "function"
    },
    {
      "inputs": [
        {
          "internalType": "address",
          "name": "owner",
          "type": "address"
        }
      ],
      "name": "balanceOf",
      "outputs": [
        {
          "internalType": "uint256",
          "name": "",
          "type": "uint256"
        }
      ],
      "stateMutability": "view",
      "type": "function"
    },
    {
      "inputs": [],
      "name": "contractURI",
      "outputs": [
        {
          "internalType": "string",
          "name": "",
          "type": "string"
        }
      ],
      "stateMutability": "pure",
      "type": "function"
    },
    {
      "inputs": [
        {
          "internalType": "uint256",
          "name": "tokenId",
          "type": "uint256"
        }
      ],
      "name": "getApproved",
      "outputs": [
        {
          "internalType": "address",
          "name": "",
          "type": "address"
        }
      ],
      "stateMutability": "view",
      "type": "function"
    },
    {
      "inputs": [
        {
          "internalType": "uint256",
          "name": "tokenId",
          "type": "uint256"
        }
      ],
      "name": "getMintPrice",
      "outputs": [
        {
          "internalType": "uint256",
          "name": "",
          "type": "uint256"
        }
      ],
      "stateMutability": "pure",
      "type": "function"
    },
    {
      "inputs": [
        {
          "internalType": "address",
          "name": "owner",
          "type": "address"
        },
        {
          "internalType": "address",
          "name": "operator",
          "type": "address"
        }
      ],
      "name": "isApprovedForAll",
      "outputs": [
        {
          "internalType": "bool",
          "name": "",
          "type": "bool"
        }
      ],
      "stateMutability": "view",
      "type": "function"
    },
    {
      "inputs": [],
      "name": "mintToken",
      "outputs": [],
      "stateMutability": "payable",
      "type": "function"
    },
    {
      "inputs": [],
      "name": "name",
      "outputs": [
        {
          "internalType": "string",
          "name": "",
          "type": "string"
        }
      ],
      "stateMutability": "view",
      "type": "function"
    },
    {
      "inputs": [],
      "name": "owner",
      "outputs": [
        {
          "internalType": "address",
          "name": "",
          "type": "address"
        }
      ],
      "stateMutability": "view",
      "type": "function"
    },
    {
      "inputs": [
        {
          "internalType": "uint256",
          "name": "tokenId",
          "type": "uint256"
        }
      ],
      "name": "ownerOf",
      "outputs": [
        {
          "internalType": "address",
          "name": "",
          "type": "address"
        }
      ],
      "stateMutability": "view",
      "type": "function"
    },
    {
      "inputs": [],
      "name": "pause",
      "outputs": [],
      "stateMutability": "nonpayable",
      "type": "function"
    },
    {
      "inputs": [],
      "name": "paused",
      "outputs": [
        {
          "internalType": "bool",
          "name": "",
          "type": "bool"
        }
      ],
      "stateMutability": "view",
      "type": "function"
    },
    {
      "inputs": [],
      "name": "renounceOwnership",
      "outputs": [],
      "stateMutability": "nonpayable",
      "type": "function"
    },
    {
      "inputs": [
        {
          "internalType": "uint256",
          "name": "",
          "type": "uint256"
        },
        {
          "internalType": "uint256",
          "name": "_salePrice",
          "type": "uint256"
        }
      ],
      "name": "royaltyInfo",
      "outputs": [
        {
          "internalType": "address",
          "name": "receiver",
          "type": "address"
        },
        {
          "internalType": "uint256",
          "name": "royaltyAmount",
          "type": "uint256"
        }
      ],
      "stateMutability": "view",
      "type": "function"
    },
    {
      "inputs": [
        {
          "internalType": "address",
          "name": "from",
          "type": "address"
        },
        {
          "internalType": "address",
          "name": "to",
          "type": "address"
        },
        {
          "internalType": "uint256",
          "name": "tokenId",
          "type": "uint256"
        }
      ],
      "name": "safeTransferFrom",
      "outputs": [],
      "stateMutability": "nonpayable",
      "type": "function"
    },
    {
      "inputs": [
        {
          "internalType": "address",
          "name": "from",
          "type": "address"
        },
        {
          "internalType": "address",
          "name": "to",
          "type": "address"
        },
        {
          "internalType": "uint256",
          "name": "tokenId",
          "type": "uint256"
        },
        {
          "internalType": "bytes",
          "name": "_data",
          "type": "bytes"
        }
      ],
      "name": "safeTransferFrom",
      "outputs": [],
      "stateMutability": "nonpayable",
      "type": "function"
    },
    {
      "inputs": [
        {
          "internalType": "address",
          "name": "operator",
          "type": "address"
        },
        {
          "internalType": "bool",
          "name": "approved",
          "type": "bool"
        }
      ],
      "name": "setApprovalForAll",
      "outputs": [],
      "stateMutability": "nonpayable",
      "type": "function"
    },
    {
      "inputs": [
        {
          "internalType": "string",
          "name": "newBaseURI",
          "type": "string"
        }
      ],
      "name": "setBaseURI",
      "outputs": [],
      "stateMutability": "nonpayable",
      "type": "function"
    },
    {
      "inputs": [
        {
          "internalType": "bytes4",
          "name": "interfaceId",
          "type": "bytes4"
        }
      ],
      "name": "supportsInterface",
      "outputs": [
        {
          "internalType": "bool",
          "name": "",
          "type": "bool"
        }
      ],
      "stateMutability": "view",
      "type": "function"
    },
    {
      "inputs": [],
      "name": "symbol",
      "outputs": [
        {
          "internalType": "string",
          "name": "",
          "type": "string"
        }
      ],
      "stateMutability": "view",
      "type": "function"
    },
    {
      "inputs": [
        {
          "internalType": "uint256",
          "name": "index",
          "type": "uint256"
        }
      ],
      "name": "tokenByIndex",
      "outputs": [
        {
          "internalType": "uint256",
          "name": "",
          "type": "uint256"
        }
      ],
      "stateMutability": "view",
      "type": "function"
    },
    {
      "inputs": [
        {
          "internalType": "address",
          "name": "owner",
          "type": "address"
        },
        {
          "internalType": "uint256",
          "name": "index",
          "type": "uint256"
        }
      ],
      "name": "tokenOfOwnerByIndex",
      "outputs": [
        {
          "internalType": "uint256",
          "name": "",
          "type": "uint256"
        }
      ],
      "stateMutability": "view",
      "type": "function"
    },
    {
      "inputs": [
        {
          "internalType": "uint256",
          "name": "tokenId",
          "type": "uint256"
        }
      ],
      "name": "tokenURI",
      "outputs": [
        {
          "internalType": "string",
          "name": "",
          "type": "string"
        }
      ],
      "stateMutability": "view",
      "type": "function"
    },
    {
      "inputs": [],
      "name": "totalSupply",
      "outputs": [
        {
          "internalType": "uint256",
          "name": "",
          "type": "uint256"
        }
      ],
      "stateMutability": "view",
      "type": "function"
    },
    {
      "inputs": [
        {
          "internalType": "address",
          "name": "from",
          "type": "address"
        },
        {
          "internalType": "address",
          "name": "to",
          "type": "address"
        },
        {
          "internalType": "uint256",
          "name": "tokenId",
          "type": "uint256"
        }
      ],
      "name": "transferFrom",
      "outputs": [],
      "stateMutability": "nonpayable",
      "type": "function"
    },
    {
      "inputs": [
        {
          "internalType": "address",
          "name": "newOwner",
          "type": "address"
        }
      ],
      "name": "transferOwnership",
      "outputs": [],
      "stateMutability": "nonpayable",
      "type": "function"
    },
    {
      "inputs": [],
      "name": "unpause",
      "outputs": [],
      "stateMutability": "nonpayable",
      "type": "function"
    },
    {
      "inputs": [
        {
          "internalType": "address payable",
          "name": "recipient",
          "type": "address"
        }
      ],
      "name": "withdraw",
      "outputs": [],
      "stateMutability": "payable",
      "type": "function"
    }
  ],
  "bytecode": "0x60806040523480156200001157600080fd5b50604051620046a6380380620046a68339818101604052810190620000379190620002b8565b8282620000596200004d620000ca60201b60201c565b620000d260201b60201c565b81600190805190602001906200007192919062000196565b5080600290805190602001906200008a92919062000196565b5050506000600b60006101000a81548160ff02191690831515021790555080600c9080519060200190620000c092919062000196565b50505050620004c9565b600033905090565b60008060009054906101000a900473ffffffffffffffffffffffffffffffffffffffff169050816000806101000a81548173ffffffffffffffffffffffffffffffffffffffff021916908373ffffffffffffffffffffffffffffffffffffffff1602179055508173ffffffffffffffffffffffffffffffffffffffff168173ffffffffffffffffffffffffffffffffffffffff167f8be0079c531659141344cd1fd0a4f28419497f9722a3daafe3b4186f6b6457e060405160405180910390a35050565b828054620001a490620003ee565b90600052602060002090601f016020900481019282620001c8576000855562000214565b82601f10620001e357805160ff191683800117855562000214565b8280016001018555821562000214579182015b8281111562000213578251825591602001919060010190620001f6565b5b50905062000223919062000227565b5090565b5b808211156200024257600081600090555060010162000228565b5090565b60006200025d620002578462000382565b62000359565b9050828152602081018484840111156200027657600080fd5b62000283848285620003b8565b509392505050565b600082601f8301126200029d57600080fd5b8151620002af84826020860162000246565b91505092915050565b600080600060608486031215620002ce57600080fd5b600084015167ffffffffffffffff811115620002e957600080fd5b620002f7868287016200028b565b935050602084015167ffffffffffffffff8111156200031557600080fd5b62000323868287016200028b565b925050604084015167ffffffffffffffff8111156200034157600080fd5b6200034f868287016200028b565b9150509250925092565b60006200036562000378565b905062000373828262000424565b919050565b6000604051905090565b600067ffffffffffffffff821115620003a0576200039f62000489565b5b620003ab82620004b8565b9050602081019050919050565b60005b83811015620003d8578082015181840152602081019050620003bb565b83811115620003e8576000848401525b50505050565b600060028204905060018216806200040757607f821691505b602082108114156200041e576200041d6200045a565b5b50919050565b6200042f82620004b8565b810181811067ffffffffffffffff8211171562000451576200045062000489565b5b80604052505050565b7f4e487b7100000000000000000000000000000000000000000000000000000000600052602260045260246000fd5b7f4e487b7100000000000000000000000000000000000000000000000000000000600052604160045260246000fd5b6000601f19601f8301169050919050565b6141cd80620004d96000396000f3fe6080604052600436106101c25760003560e01c8063559e775b116100f75780638da5cb5b11610095578063c87b56dd11610064578063c87b56dd14610613578063e8a3d48514610650578063e985e9c51461067b578063f2fde38b146106b8576101c2565b80638da5cb5b1461056b57806395d89b4114610596578063a22cb465146105c1578063b88d4fde146105ea576101c2565b80636352211e116100d15780636352211e146104c357806370a0823114610500578063715018a61461053d5780638456cb5914610554576101c2565b8063559e775b1461043257806355f804b31461046f5780635c975abb14610498576101c2565b806323b872dd116101645780633f4ba83a1161013e5780633f4ba83a1461039957806342842e0e146103b05780634f6ccce7146103d957806351cff8d914610416576101c2565b806323b872dd146102f55780632a55205a1461031e5780632f745c591461035c576101c2565b8063081812fc116101a0578063081812fc1461025a578063095ea7b31461029757806318160ddd146102c05780632004ffd9146102eb576101c2565b806301ffc9a7146101c7578063031bd4c41461020457806306fdde031461022f575b600080fd5b3480156101d357600080fd5b506101ee60048036038101906101e99190612d5f565b6106e1565b6040516101fb9190613369565b60405180910390f35b34801561021057600080fd5b5061021961074a565b6040516102269190613666565b60405180910390f35b34801561023b57600080fd5b50610244610750565b6040516102519190613384565b60405180910390f35b34801561026657600080fd5b50610281600480360381019061027c9190612df2565b6107e2565b60405161028e91906132d9565b60405180910390f35b3480156102a357600080fd5b506102be60048036038101906102b99190612d23565b610867565b005b3480156102cc57600080fd5b506102d561097f565b6040516102e29190613681565b60405180910390f35b6102f361098c565b005b34801561030157600080fd5b5061031c60048036038101906103179190612c1d565b610a4c565b005b34801561032a57600080fd5b5061034560048036038101906103409190612e1b565b610aac565b604051610353929190613340565b60405180910390f35b34801561036857600080fd5b50610383600480360381019061037e9190612d23565b610add565b6040516103909190613681565b60405180910390f35b3480156103a557600080fd5b506103ae610b82565b005b3480156103bc57600080fd5b506103d760048036038101906103d29190612c1d565b610c08565b005b3480156103e557600080fd5b5061040060048036038101906103fb9190612df2565b610c28565b60405161040d9190613681565b60405180910390f35b610430600480360381019061042b9190612bb8565b610cbf565b005b34801561043e57600080fd5b5061045960048036038101906104549190612df2565b610db5565b6040516104669190613681565b60405180910390f35b34801561047b57600080fd5b5061049660048036038101906104919190612db1565b610e13565b005b3480156104a457600080fd5b506104ad610ea9565b6040516104ba9190613369565b60405180910390f35b3480156104cf57600080fd5b506104ea60048036038101906104e59190612df2565b610ec0565b6040516104f791906132d9565b60405180910390f35b34801561050c57600080fd5b5061052760048036038101906105229190612b8f565b610f72565b6040516105349190613681565b60405180910390f35b34801561054957600080fd5b5061055261102a565b005b34801561056057600080fd5b506105696110b2565b005b34801561057757600080fd5b50610580611138565b60405161058d91906132d9565b60405180910390f35b3480156105a257600080fd5b506105ab611161565b6040516105b89190613384565b60405180910390f35b3480156105cd57600080fd5b506105e860048036038101906105e39190612ce7565b6111f3565b005b3480156105f657600080fd5b50610611600480360381019061060c9190612c6c565b611209565b005b34801561061f57600080fd5b5061063a60048036038101906106359190612df2565b61126b565b6040516106479190613384565b60405180910390f35b34801561065c57600080fd5b5061066561129c565b6040516106729190613384565b60405180910390f35b34801561068757600080fd5b506106a2600480360381019061069d9190612be1565b6112bc565b6040516106af9190613369565b60405180910390f35b3480156106c457600080fd5b506106df60048036038101906106da9190612b8f565b611350565b005b6000632a55205a60e01b7bffffffffffffffffffffffffffffffffffffffffffffffffffffffff1916827bffffffffffffffffffffffffffffffffffffffffffffffffffffffff191614156107395760019050610745565b61074282611448565b90505b919050565b61115c81565b60606001805461075f9061395c565b80601f016020809104026020016040519081016040528092919081815260200182805461078b9061395c565b80156107d85780601f106107ad576101008083540402835291602001916107d8565b820191906000526020600020905b8154815290600101906020018083116107bb57829003601f168201915b5050505050905090565b60006107ed826114c2565b61082c576040517f08c379a000000000000000000000000000000000000000000000000000000000815260040161082390613566565b60405180910390fd5b6005600083815260200190815260200160002060009054906101000a900473ffffffffffffffffffffffffffffffffffffffff169050919050565b600061087282610ec0565b90508073ffffffffffffffffffffffffffffffffffffffff168373ffffffffffffffffffffffffffffffffffffffff1614156108e3576040517f08c379a00000000000000000000000000000000000000000000000000000000081526004016108da906135e6565b60405180910390fd5b8073ffffffffffffffffffffffffffffffffffffffff1661090261152e565b73ffffffffffffffffffffffffffffffffffffffff16148061093157506109308161092b61152e565b6112bc565b5b610970576040517f08c379a0000000000000000000000000000000000000000000000000000000008152600401610967906134e6565b60405180910390fd5b61097a8383611536565b505050565b6000600980549050905090565b600061099661097f565b905061115c61ffff168111156109e1576040517f08c379a00000000000000000000000000000000000000000000000000000000081526004016109d890613646565b60405180910390fd5b6109e9611138565b73ffffffffffffffffffffffffffffffffffffffff16610a0761152e565b73ffffffffffffffffffffffffffffffffffffffff1614610a3857610a2b81610db5565b341015610a3757600080fd5b5b610a49610a4361152e565b826115ef565b50565b610a5d610a5761152e565b826117bd565b610a9c576040517f08c379a0000000000000000000000000000000000000000000000000000000008152600401610a9390613606565b60405180910390fd5b610aa783838361189b565b505050565b600080610ab7611138565b61271061019085610ac891906137f8565b610ad291906137c7565b915091509250929050565b6000610ae883610f72565b8210610b29576040517f08c379a0000000000000000000000000000000000000000000000000000000008152600401610b20906133e6565b60405180910390fd5b600760008473ffffffffffffffffffffffffffffffffffffffff1673ffffffffffffffffffffffffffffffffffffffff168152602001908152602001600020600083815260200190815260200160002054905092915050565b610b8a61152e565b73ffffffffffffffffffffffffffffffffffffffff16610ba8611138565b73ffffffffffffffffffffffffffffffffffffffff1614610bfe576040517f08c379a0000000000000000000000000000000000000000000000000000000008152600401610bf590613586565b60405180910390fd5b610c06611af7565b565b610c2383838360405180602001604052806000815250611209565b505050565b6000610c3261097f565b8210610c73576040517f08c379a0000000000000000000000000000000000000000000000000000000008152600401610c6a90613626565b60405180910390fd5b60098281548110610cad577f4e487b7100000000000000000000000000000000000000000000000000000000600052603260045260246000fd5b90600052602060002001549050919050565b610cc761152e565b73ffffffffffffffffffffffffffffffffffffffff16610ce5611138565b73ffffffffffffffffffffffffffffffffffffffff1614610d3b576040517f08c379a0000000000000000000000000000000000000000000000000000000008152600401610d3290613586565b60405180910390fd5b60008173ffffffffffffffffffffffffffffffffffffffff1647604051610d61906132c4565b60006040518083038185875af1925050503d8060008114610d9e576040519150601f19603f3d011682016040523d82523d6000602084013e610da3565b606091505b5050905080610db157600080fd5b5050565b6000610457821015610dd05766470de4df8200009050610e0e565b6108ae821015610de957668e1bc9bf0400009050610e0e565b610d05821015610e025766d529ae9e8600009050610e0e565b67011c37937e08000090505b919050565b610e1b61152e565b73ffffffffffffffffffffffffffffffffffffffff16610e39611138565b73ffffffffffffffffffffffffffffffffffffffff1614610e8f576040517f08c379a0000000000000000000000000000000000000000000000000000000008152600401610e8690613586565b60405180910390fd5b80600c9080519060200190610ea592919061299e565b5050565b6000600b60009054906101000a900460ff16905090565b6000806003600084815260200190815260200160002060009054906101000a900473ffffffffffffffffffffffffffffffffffffffff169050600073ffffffffffffffffffffffffffffffffffffffff168173ffffffffffffffffffffffffffffffffffffffff161415610f69576040517f08c379a0000000000000000000000000000000000000000000000000000000008152600401610f6090613526565b60405180910390fd5b80915050919050565b60008073ffffffffffffffffffffffffffffffffffffffff168273ffffffffffffffffffffffffffffffffffffffff161415610fe3576040517f08c379a0000000000000000000000000000000000000000000000000000000008152600401610fda90613506565b60405180910390fd5b600460008373ffffffffffffffffffffffffffffffffffffffff1673ffffffffffffffffffffffffffffffffffffffff168152602001908152602001600020549050919050565b61103261152e565b73ffffffffffffffffffffffffffffffffffffffff16611050611138565b73ffffffffffffffffffffffffffffffffffffffff16146110a6576040517f08c379a000000000000000000000000000000000000000000000000000000000815260040161109d90613586565b60405180910390fd5b6110b06000611b99565b565b6110ba61152e565b73ffffffffffffffffffffffffffffffffffffffff166110d8611138565b73ffffffffffffffffffffffffffffffffffffffff161461112e576040517f08c379a000000000000000000000000000000000000000000000000000000000815260040161112590613586565b60405180910390fd5b611136611c5d565b565b60008060009054906101000a900473ffffffffffffffffffffffffffffffffffffffff16905090565b6060600280546111709061395c565b80601f016020809104026020016040519081016040528092919081815260200182805461119c9061395c565b80156111e95780601f106111be576101008083540402835291602001916111e9565b820191906000526020600020905b8154815290600101906020018083116111cc57829003601f168201915b5050505050905090565b6112056111fe61152e565b8383611d00565b5050565b61121a61121461152e565b836117bd565b611259576040517f08c379a000000000000000000000000000000000000000000000000000000000815260040161125090613606565b60405180910390fd5b61126584848484611e6d565b50505050565b606061127682611ec9565b60405160200161128691906132a2565b6040516020818303038152906040529050919050565b606060405180606001604052806032815260200161416660329139905090565b6000600660008473ffffffffffffffffffffffffffffffffffffffff1673ffffffffffffffffffffffffffffffffffffffff16815260200190815260200160002060008373ffffffffffffffffffffffffffffffffffffffff1673ffffffffffffffffffffffffffffffffffffffff16815260200190815260200160002060009054906101000a900460ff16905092915050565b61135861152e565b73ffffffffffffffffffffffffffffffffffffffff16611376611138565b73ffffffffffffffffffffffffffffffffffffffff16146113cc576040517f08c379a00000000000000000000000000000000000000000000000000000000081526004016113c390613586565b60405180910390fd5b600073ffffffffffffffffffffffffffffffffffffffff168173ffffffffffffffffffffffffffffffffffffffff16141561143c576040517f08c379a000000000000000000000000000000000000000000000000000000000815260040161143390613426565b60405180910390fd5b61144581611b99565b50565b60007f780e9d63000000000000000000000000000000000000000000000000000000007bffffffffffffffffffffffffffffffffffffffffffffffffffffffff1916827bffffffffffffffffffffffffffffffffffffffffffffffffffffffff191614806114bb57506114ba82611f70565b5b9050919050565b60008073ffffffffffffffffffffffffffffffffffffffff166003600084815260200190815260200160002060009054906101000a900473ffffffffffffffffffffffffffffffffffffffff1673ffffffffffffffffffffffffffffffffffffffff1614159050919050565b600033905090565b816005600083815260200190815260200160002060006101000a81548173ffffffffffffffffffffffffffffffffffffffff021916908373ffffffffffffffffffffffffffffffffffffffff160217905550808273ffffffffffffffffffffffffffffffffffffffff166115a983610ec0565b73ffffffffffffffffffffffffffffffffffffffff167f8c5be1e5ebec7d5bd14f71427d1e84f3dd0314c0f7b2291e5b200ac8c7c3b92560405160405180910390a45050565b600073ffffffffffffffffffffffffffffffffffffffff168273ffffffffffffffffffffffffffffffffffffffff16141561165f576040517f08c379a000000000000000000000000000000000000000000000000000000000815260040161165690613546565b60405180910390fd5b611668816114c2565b156116a8576040517f08c379a000000000000000000000000000000000000000000000000000000000815260040161169f90613446565b60405180910390fd5b6116b460008383612052565b6001600460008473ffffffffffffffffffffffffffffffffffffffff1673ffffffffffffffffffffffffffffffffffffffff16815260200190815260200160002060008282546117049190613771565b92505081905550816003600083815260200190815260200160002060006101000a81548173ffffffffffffffffffffffffffffffffffffffff021916908373ffffffffffffffffffffffffffffffffffffffff160217905550808273ffffffffffffffffffffffffffffffffffffffff16600073ffffffffffffffffffffffffffffffffffffffff167fddf252ad1be2c89b69c2b068fc378daa952ba7f163c4a11628f55a4df523b3ef60405160405180910390a45050565b60006117c8826114c2565b611807576040517f08c379a00000000000000000000000000000000000000000000000000000000081526004016117fe906134a6565b60405180910390fd5b600061181283610ec0565b90508073ffffffffffffffffffffffffffffffffffffffff168473ffffffffffffffffffffffffffffffffffffffff16148061188157508373ffffffffffffffffffffffffffffffffffffffff16611869846107e2565b73ffffffffffffffffffffffffffffffffffffffff16145b80611892575061189181856112bc565b5b91505092915050565b8273ffffffffffffffffffffffffffffffffffffffff166118bb82610ec0565b73ffffffffffffffffffffffffffffffffffffffff1614611911576040517f08c379a0000000000000000000000000000000000000000000000000000000008152600401611908906135a6565b60405180910390fd5b600073ffffffffffffffffffffffffffffffffffffffff168273ffffffffffffffffffffffffffffffffffffffff161415611981576040517f08c379a000000000000000000000000000000000000000000000000000000000815260040161197890613466565b60405180910390fd5b61198c838383612052565b611997600082611536565b6001600460008573ffffffffffffffffffffffffffffffffffffffff1673ffffffffffffffffffffffffffffffffffffffff16815260200190815260200160002060008282546119e79190613852565b925050819055506001600460008473ffffffffffffffffffffffffffffffffffffffff1673ffffffffffffffffffffffffffffffffffffffff1681526020019081526020016000206000828254611a3e9190613771565b92505081905550816003600083815260200190815260200160002060006101000a81548173ffffffffffffffffffffffffffffffffffffffff021916908373ffffffffffffffffffffffffffffffffffffffff160217905550808273ffffffffffffffffffffffffffffffffffffffff168473ffffffffffffffffffffffffffffffffffffffff167fddf252ad1be2c89b69c2b068fc378daa952ba7f163c4a11628f55a4df523b3ef60405160405180910390a4505050565b611aff610ea9565b611b3e576040517f08c379a0000000000000000000000000000000000000000000000000000000008152600401611b35906133c6565b60405180910390fd5b6000600b60006101000a81548160ff0219169083151502179055507f5db9ee0a495bf2e6ff9c91a7834c1ba4fdd244a5e8aa4e537bd38aeae4b073aa611b8261152e565b604051611b8f91906132d9565b60405180910390a1565b60008060009054906101000a900473ffffffffffffffffffffffffffffffffffffffff169050816000806101000a81548173ffffffffffffffffffffffffffffffffffffffff021916908373ffffffffffffffffffffffffffffffffffffffff1602179055508173ffffffffffffffffffffffffffffffffffffffff168173ffffffffffffffffffffffffffffffffffffffff167f8be0079c531659141344cd1fd0a4f28419497f9722a3daafe3b4186f6b6457e060405160405180910390a35050565b611c65610ea9565b15611ca5576040517f08c379a0000000000000000000000000000000000000000000000000000000008152600401611c9c906134c6565b60405180910390fd5b6001600b60006101000a81548160ff0219169083151502179055507f62e78cea01bee320cd4e420270b5ea74000d11b0c9f74754ebdbfc544b05a258611ce961152e565b604051611cf691906132d9565b60405180910390a1565b8173ffffffffffffffffffffffffffffffffffffffff168373ffffffffffffffffffffffffffffffffffffffff161415611d6f576040517f08c379a0000000000000000000000000000000000000000000000000000000008152600401611d6690613486565b60405180910390fd5b80600660008573ffffffffffffffffffffffffffffffffffffffff1673ffffffffffffffffffffffffffffffffffffffff16815260200190815260200160002060008473ffffffffffffffffffffffffffffffffffffffff1673ffffffffffffffffffffffffffffffffffffffff16815260200190815260200160002060006101000a81548160ff0219169083151502179055508173ffffffffffffffffffffffffffffffffffffffff168373ffffffffffffffffffffffffffffffffffffffff167f17307eab39ab6107e8899845ad3d59bd9653f200f220920489ca2b5937696c3183604051611e609190613369565b60405180910390a3505050565b611e7884848461189b565b611e8484848484612062565b611ec3576040517f08c379a0000000000000000000000000000000000000000000000000000000008152600401611eba90613406565b60405180910390fd5b50505050565b6060611ed4826114c2565b611f13576040517f08c379a0000000000000000000000000000000000000000000000000000000008152600401611f0a906135c6565b60405180910390fd5b6000611f1d6121f9565b90506000815111611f3d5760405180602001604052806000815250611f68565b80611f478461228b565b604051602001611f5892919061327e565b6040516020818303038152906040525b915050919050565b60007f80ac58cd000000000000000000000000000000000000000000000000000000007bffffffffffffffffffffffffffffffffffffffffffffffffffffffff1916827bffffffffffffffffffffffffffffffffffffffffffffffffffffffff1916148061203b57507f5b5e139f000000000000000000000000000000000000000000000000000000007bffffffffffffffffffffffffffffffffffffffffffffffffffffffff1916827bffffffffffffffffffffffffffffffffffffffffffffffffffffffff1916145b8061204b575061204a82612438565b5b9050919050565b61205d8383836124a2565b505050565b60006120838473ffffffffffffffffffffffffffffffffffffffff166124fa565b156121ec578373ffffffffffffffffffffffffffffffffffffffff1663150b7a026120ac61152e565b8786866040518563ffffffff1660e01b81526004016120ce94939291906132f4565b602060405180830381600087803b1580156120e857600080fd5b505af192505050801561211957506040513d601f19601f820116820180604052508101906121169190612d88565b60015b61219c573d8060008114612149576040519150601f19603f3d011682016040523d82523d6000602084013e61214e565b606091505b50600081511415612194576040517f08c379a000000000000000000000000000000000000000000000000000000000815260040161218b90613406565b60405180910390fd5b805181602001fd5b63150b7a0260e01b7bffffffffffffffffffffffffffffffffffffffffffffffffffffffff1916817bffffffffffffffffffffffffffffffffffffffffffffffffffffffff1916149150506121f1565b600190505b949350505050565b6060600c80546122089061395c565b80601f01602080910402602001604051908101604052809291908181526020018280546122349061395c565b80156122815780601f1061225657610100808354040283529160200191612281565b820191906000526020600020905b81548152906001019060200180831161226457829003601f168201915b5050505050905090565b606060008214156122d3576040518060400160405280600181526020017f30000000000000000000000000000000000000000000000000000000000000008152509050612433565b600082905060005b600082146123055780806122ee906139bf565b915050600a826122fe91906137c7565b91506122db565b60008167ffffffffffffffff811115612347577f4e487b7100000000000000000000000000000000000000000000000000000000600052604160045260246000fd5b6040519080825280601f01601f1916602001820160405280156123795781602001600182028036833780820191505090505b5090505b6000851461242c576001826123929190613852565b9150600a856123a19190613a08565b60306123ad9190613771565b60f81b8183815181106123e9577f4e487b7100000000000000000000000000000000000000000000000000000000600052603260045260246000fd5b60200101907effffffffffffffffffffffffffffffffffffffffffffffffffffffffffffff1916908160001a905350600a8561242591906137c7565b945061237d565b8093505050505b919050565b60007f01ffc9a7000000000000000000000000000000000000000000000000000000007bffffffffffffffffffffffffffffffffffffffffffffffffffffffff1916827bffffffffffffffffffffffffffffffffffffffffffffffffffffffff1916149050919050565b6124ad83838361250d565b6124b5610ea9565b156124f5576040517f08c379a00000000000000000000000000000000000000000000000000000000081526004016124ec906133a6565b60405180910390fd5b505050565b600080823b905060008111915050919050565b612518838383612621565b600073ffffffffffffffffffffffffffffffffffffffff168373ffffffffffffffffffffffffffffffffffffffff16141561255b5761255681612626565b61259a565b8173ffffffffffffffffffffffffffffffffffffffff168373ffffffffffffffffffffffffffffffffffffffff161461259957612598838261266f565b5b5b600073ffffffffffffffffffffffffffffffffffffffff168273ffffffffffffffffffffffffffffffffffffffff1614156125dd576125d8816127dc565b61261c565b8273ffffffffffffffffffffffffffffffffffffffff168273ffffffffffffffffffffffffffffffffffffffff161461261b5761261a828261291f565b5b5b505050565b505050565b600980549050600a600083815260200190815260200160002081905550600981908060018154018082558091505060019003906000526020600020016000909190919091505550565b6000600161267c84610f72565b6126869190613852565b905060006008600084815260200190815260200160002054905081811461276b576000600760008673ffffffffffffffffffffffffffffffffffffffff1673ffffffffffffffffffffffffffffffffffffffff168152602001908152602001600020600084815260200190815260200160002054905080600760008773ffffffffffffffffffffffffffffffffffffffff1673ffffffffffffffffffffffffffffffffffffffff168152602001908152602001600020600084815260200190815260200160002081905550816008600083815260200190815260200160002081905550505b6008600084815260200190815260200160002060009055600760008573ffffffffffffffffffffffffffffffffffffffff1673ffffffffffffffffffffffffffffffffffffffff16815260200190815260200160002060008381526020019081526020016000206000905550505050565b600060016009805490506127f09190613852565b90506000600a6000848152602001908152602001600020549050600060098381548110612846577f4e487b7100000000000000000000000000000000000000000000000000000000600052603260045260246000fd5b90600052602060002001549050806009838154811061288e577f4e487b7100000000000000000000000000000000000000000000000000000000600052603260045260246000fd5b906000526020600020018190555081600a600083815260200190815260200160002081905550600a6000858152602001908152602001600020600090556009805480612903577f4e487b7100000000000000000000000000000000000000000000000000000000600052603160045260246000fd5b6001900381819060005260206000200160009055905550505050565b600061292a83610f72565b905081600760008573ffffffffffffffffffffffffffffffffffffffff1673ffffffffffffffffffffffffffffffffffffffff168152602001908152602001600020600083815260200190815260200160002081905550806008600084815260200190815260200160002081905550505050565b8280546129aa9061395c565b90600052602060002090601f0160209004810192826129cc5760008555612a13565b82601f106129e557805160ff1916838001178555612a13565b82800160010185558215612a13579182015b82811115612a125782518255916020019190600101906129f7565b5b509050612a209190612a24565b5090565b5b80821115612a3d576000816000905550600101612a25565b5090565b6000612a54612a4f846136c1565b61369c565b905082815260208101848484011115612a6c57600080fd5b612a7784828561391a565b509392505050565b6000612a92612a8d846136f2565b61369c565b905082815260208101848484011115612aaa57600080fd5b612ab584828561391a565b509392505050565b600081359050612acc816140f2565b92915050565b600081359050612ae181614109565b92915050565b600081359050612af681614120565b92915050565b600081359050612b0b81614137565b92915050565b600081519050612b2081614137565b92915050565b600082601f830112612b3757600080fd5b8135612b47848260208601612a41565b91505092915050565b600082601f830112612b6157600080fd5b8135612b71848260208601612a7f565b91505092915050565b600081359050612b898161414e565b92915050565b600060208284031215612ba157600080fd5b6000612baf84828501612abd565b91505092915050565b600060208284031215612bca57600080fd5b6000612bd884828501612ad2565b91505092915050565b60008060408385031215612bf457600080fd5b6000612c0285828601612abd565b9250506020612c1385828601612abd565b9150509250929050565b600080600060608486031215612c3257600080fd5b6000612c4086828701612abd565b9350506020612c5186828701612abd565b9250506040612c6286828701612b7a565b9150509250925092565b60008060008060808587031215612c8257600080fd5b6000612c9087828801612abd565b9450506020612ca187828801612abd565b9350506040612cb287828801612b7a565b925050606085013567ffffffffffffffff811115612ccf57600080fd5b612cdb87828801612b26565b91505092959194509250565b60008060408385031215612cfa57600080fd5b6000612d0885828601612abd565b9250506020612d1985828601612ae7565b9150509250929050565b60008060408385031215612d3657600080fd5b6000612d4485828601612abd565b9250506020612d5585828601612b7a565b9150509250929050565b600060208284031215612d7157600080fd5b6000612d7f84828501612afc565b91505092915050565b600060208284031215612d9a57600080fd5b6000612da884828501612b11565b91505092915050565b600060208284031215612dc357600080fd5b600082013567ffffffffffffffff811115612ddd57600080fd5b612de984828501612b50565b91505092915050565b600060208284031215612e0457600080fd5b6000612e1284828501612b7a565b91505092915050565b60008060408385031215612e2e57600080fd5b6000612e3c85828601612b7a565b9250506020612e4d85828601612b7a565b9150509250929050565b612e6081613886565b82525050565b612e6f816138aa565b82525050565b6000612e8082613723565b612e8a8185613739565b9350612e9a818560208601613929565b612ea381613af5565b840191505092915050565b6000612eb98261372e565b612ec38185613755565b9350612ed3818560208601613929565b612edc81613af5565b840191505092915050565b6000612ef28261372e565b612efc8185613766565b9350612f0c818560208601613929565b80840191505092915050565b6000612f25602b83613755565b9150612f3082613b06565b604082019050919050565b6000612f48601483613755565b9150612f5382613b55565b602082019050919050565b6000612f6b602b83613755565b9150612f7682613b7e565b604082019050919050565b6000612f8e603283613755565b9150612f9982613bcd565b604082019050919050565b6000612fb1602683613755565b9150612fbc82613c1c565b604082019050919050565b6000612fd4601c83613755565b9150612fdf82613c6b565b602082019050919050565b6000612ff7602483613755565b915061300282613c94565b604082019050919050565b600061301a601983613755565b915061302582613ce3565b602082019050919050565b600061303d602c83613755565b915061304882613d0c565b604082019050919050565b6000613060601083613755565b915061306b82613d5b565b602082019050919050565b6000613083603883613755565b915061308e82613d84565b604082019050919050565b60006130a6602a83613755565b91506130b182613dd3565b604082019050919050565b60006130c9602983613755565b91506130d482613e22565b604082019050919050565b60006130ec602083613755565b91506130f782613e71565b602082019050919050565b600061310f602c83613755565b915061311a82613e9a565b604082019050919050565b6000613132600583613766565b915061313d82613ee9565b600582019050919050565b6000613155602083613755565b915061316082613f12565b602082019050919050565b6000613178602983613755565b915061318382613f3b565b604082019050919050565b600061319b602f83613755565b91506131a682613f8a565b604082019050919050565b60006131be602183613755565b91506131c982613fd9565b604082019050919050565b60006131e160008361374a565b91506131ec82614028565b600082019050919050565b6000613204603183613755565b915061320f8261402b565b604082019050919050565b6000613227602c83613755565b91506132328261407a565b604082019050919050565b600061324a600583613755565b9150613255826140c9565b602082019050919050565b613269816138e2565b82525050565b61327881613910565b82525050565b600061328a8285612ee7565b91506132968284612ee7565b91508190509392505050565b60006132ae8284612ee7565b91506132b982613125565b915081905092915050565b60006132cf826131d4565b9150819050919050565b60006020820190506132ee6000830184612e57565b92915050565b60006080820190506133096000830187612e57565b6133166020830186612e57565b613323604083018561326f565b81810360608301526133358184612e75565b905095945050505050565b60006040820190506133556000830185612e57565b613362602083018461326f565b9392505050565b600060208201905061337e6000830184612e66565b92915050565b6000602082019050818103600083015261339e8184612eae565b905092915050565b600060208201905081810360008301526133bf81612f18565b9050919050565b600060208201905081810360008301526133df81612f3b565b9050919050565b600060208201905081810360008301526133ff81612f5e565b9050919050565b6000602082019050818103600083015261341f81612f81565b9050919050565b6000602082019050818103600083015261343f81612fa4565b9050919050565b6000602082019050818103600083015261345f81612fc7565b9050919050565b6000602082019050818103600083015261347f81612fea565b9050919050565b6000602082019050818103600083015261349f8161300d565b9050919050565b600060208201905081810360008301526134bf81613030565b9050919050565b600060208201905081810360008301526134df81613053565b9050919050565b600060208201905081810360008301526134ff81613076565b9050919050565b6000602082019050818103600083015261351f81613099565b9050919050565b6000602082019050818103600083015261353f816130bc565b9050919050565b6000602082019050818103600083015261355f816130df565b9050919050565b6000602082019050818103600083015261357f81613102565b9050919050565b6000602082019050818103600083015261359f81613148565b9050919050565b600060208201905081810360008301526135bf8161316b565b9050919050565b600060208201905081810360008301526135df8161318e565b9050919050565b600060208201905081810360008301526135ff816131b1565b9050919050565b6000602082019050818103600083015261361f816131f7565b9050919050565b6000602082019050818103600083015261363f8161321a565b9050919050565b6000602082019050818103600083015261365f8161323d565b9050919050565b600060208201905061367b6000830184613260565b92915050565b6000602082019050613696600083018461326f565b92915050565b60006136a66136b7565b90506136b2828261398e565b919050565b6000604051905090565b600067ffffffffffffffff8211156136dc576136db613ac6565b5b6136e582613af5565b9050602081019050919050565b600067ffffffffffffffff82111561370d5761370c613ac6565b5b61371682613af5565b9050602081019050919050565b600081519050919050565b600081519050919050565b600082825260208201905092915050565b600081905092915050565b600082825260208201905092915050565b600081905092915050565b600061377c82613910565b915061378783613910565b9250827fffffffffffffffffffffffffffffffffffffffffffffffffffffffffffffffff038211156137bc576137bb613a39565b5b828201905092915050565b60006137d282613910565b91506137dd83613910565b9250826137ed576137ec613a68565b5b828204905092915050565b600061380382613910565b915061380e83613910565b9250817fffffffffffffffffffffffffffffffffffffffffffffffffffffffffffffffff048311821515161561384757613846613a39565b5b828202905092915050565b600061385d82613910565b915061386883613910565b92508282101561387b5761387a613a39565b5b828203905092915050565b6000613891826138f0565b9050919050565b60006138a3826138f0565b9050919050565b60008115159050919050565b60007fffffffff0000000000000000000000000000000000000000000000000000000082169050919050565b600061ffff82169050919050565b600073ffffffffffffffffffffffffffffffffffffffff82169050919050565b6000819050919050565b82818337600083830152505050565b60005b8381101561394757808201518184015260208101905061392c565b83811115613956576000848401525b50505050565b6000600282049050600182168061397457607f821691505b6020821081141561398857613987613a97565b5b50919050565b61399782613af5565b810181811067ffffffffffffffff821117156139b6576139b5613ac6565b5b80604052505050565b60006139ca82613910565b91507fffffffffffffffffffffffffffffffffffffffffffffffffffffffffffffffff8214156139fd576139fc613a39565b5b600182019050919050565b6000613a1382613910565b9150613a1e83613910565b925082613a2e57613a2d613a68565b5b828206905092915050565b7f4e487b7100000000000000000000000000000000000000000000000000000000600052601160045260246000fd5b7f4e487b7100000000000000000000000000000000000000000000000000000000600052601260045260246000fd5b7f4e487b7100000000000000000000000000000000000000000000000000000000600052602260045260246000fd5b7f4e487b7100000000000000000000000000000000000000000000000000000000600052604160045260246000fd5b6000601f19601f8301169050919050565b7f4552433732315061757361626c653a20746f6b656e207472616e73666572207760008201527f68696c6520706175736564000000000000000000000000000000000000000000602082015250565b7f5061757361626c653a206e6f7420706175736564000000000000000000000000600082015250565b7f455243373231456e756d657261626c653a206f776e657220696e646578206f7560008201527f74206f6620626f756e6473000000000000000000000000000000000000000000602082015250565b7f4552433732313a207472616e7366657220746f206e6f6e20455243373231526560008201527f63656976657220696d706c656d656e7465720000000000000000000000000000602082015250565b7f4f776e61626c653a206e6577206f776e657220697320746865207a65726f206160008201527f6464726573730000000000000000000000000000000000000000000000000000602082015250565b7f4552433732313a20746f6b656e20616c7265616479206d696e74656400000000600082015250565b7f4552433732313a207472616e7366657220746f20746865207a65726f2061646460008201527f7265737300000000000000000000000000000000000000000000000000000000602082015250565b7f4552433732313a20617070726f766520746f2063616c6c657200000000000000600082015250565b7f4552433732313a206f70657261746f7220717565727920666f72206e6f6e657860008201527f697374656e7420746f6b656e0000000000000000000000000000000000000000602082015250565b7f5061757361626c653a2070617573656400000000000000000000000000000000600082015250565b7f4552433732313a20617070726f76652063616c6c6572206973206e6f74206f7760008201527f6e6572206e6f7220617070726f76656420666f7220616c6c0000000000000000602082015250565b7f4552433732313a2062616c616e636520717565727920666f7220746865207a6560008201527f726f206164647265737300000000000000000000000000000000000000000000602082015250565b7f4552433732313a206f776e657220717565727920666f72206e6f6e657869737460008201527f656e7420746f6b656e0000000000000000000000000000000000000000000000602082015250565b7f4552433732313a206d696e7420746f20746865207a65726f2061646472657373600082015250565b7f4552433732313a20617070726f76656420717565727920666f72206e6f6e657860008201527f697374656e7420746f6b656e0000000000000000000000000000000000000000602082015250565b7f2e6a736f6e000000000000000000000000000000000000000000000000000000600082015250565b7f4f776e61626c653a2063616c6c6572206973206e6f7420746865206f776e6572600082015250565b7f4552433732313a207472616e73666572206f6620746f6b656e2074686174206960008201527f73206e6f74206f776e0000000000000000000000000000000000000000000000602082015250565b7f4552433732314d657461646174613a2055524920717565727920666f72206e6f60008201527f6e6578697374656e7420746f6b656e0000000000000000000000000000000000602082015250565b7f4552433732313a20617070726f76616c20746f2063757272656e74206f776e6560008201527f7200000000000000000000000000000000000000000000000000000000000000602082015250565b50565b7f4552433732313a207472616e736665722063616c6c6572206973206e6f74206f60008201527f776e6572206e6f7220617070726f766564000000000000000000000000000000602082015250565b7f455243373231456e756d657261626c653a20676c6f62616c20696e646578206f60008201527f7574206f6620626f756e64730000000000000000000000000000000000000000602082015250565b7f4c696d6974000000000000000000000000000000000000000000000000000000600082015250565b6140fb81613886565b811461410657600080fd5b50565b61411281613898565b811461411d57600080fd5b50565b614129816138aa565b811461413457600080fd5b50565b614140816138b6565b811461414b57600080fd5b50565b61415781613910565b811461416257600080fd5b5056fe68747470733a2f2f67616c616765742e636f6d2f67616c616765742d636f6e74726163742d6d657461646174612e6a736f6ea26469706673582212209197441029e69008133e617e1faabb0f1abb152138a0c59d2f0dd304642c8d7464736f6c63430008020033",
  "linkReferences": {},
  "deployedLinkReferences": {}
}