{
  "_format": "hh-sol-artifact-1",
  "contractName": "Galaget",
  "sourceName": "contracts/Galaget.sol",
  "abi": [
    {
      "inputs": [
        {
          "internalType": "string",
          "name": "name",
          "type": "string"
        },
        {
          "internalType": "string",
          "name": "symbol",
          "type": "string"
        },
        {
          "internalType": "string",
          "name": "baseTokenURI",
          "type": "string"
        }
      ],
      "stateMutability": "nonpayable",
      "type": "constructor"
    },
    {
      "anonymous": false,
      "inputs": [
        {
          "indexed": true,
          "internalType": "address",
          "name": "owner",
          "type": "address"
        },
        {
          "indexed": true,
          "internalType": "address",
          "name": "approved",
          "type": "address"
        },
        {
          "indexed": true,
          "internalType": "uint256",
          "name": "tokenId",
          "type": "uint256"
        }
      ],
      "name": "Approval",
      "type": "event"
    },
    {
      "anonymous": false,
      "inputs": [
        {
          "indexed": true,
          "internalType": "address",
          "name": "owner",
          "type": "address"
        },
        {
          "indexed": true,
          "internalType": "address",
          "name": "operator",
          "type": "address"
        },
        {
          "indexed": false,
          "internalType": "bool",
          "name": "approved",
          "type": "bool"
        }
      ],
      "name": "ApprovalForAll",
      "type": "event"
    },
    {
      "anonymous": false,
      "inputs": [
        {
          "indexed": true,
          "internalType": "address",
          "name": "previousOwner",
          "type": "address"
        },
        {
          "indexed": true,
          "internalType": "address",
          "name": "newOwner",
          "type": "address"
        }
      ],
      "name": "OwnershipTransferred",
      "type": "event"
    },
    {
      "anonymous": false,
      "inputs": [
        {
          "indexed": false,
          "internalType": "address",
          "name": "account",
          "type": "address"
        }
      ],
      "name": "Paused",
      "type": "event"
    },
    {
      "anonymous": false,
      "inputs": [
        {
          "indexed": true,
          "internalType": "bytes32",
          "name": "role",
          "type": "bytes32"
        },
        {
          "indexed": true,
          "internalType": "bytes32",
          "name": "previousAdminRole",
          "type": "bytes32"
        },
        {
          "indexed": true,
          "internalType": "bytes32",
          "name": "newAdminRole",
          "type": "bytes32"
        }
      ],
      "name": "RoleAdminChanged",
      "type": "event"
    },
    {
      "anonymous": false,
      "inputs": [
        {
          "indexed": true,
          "internalType": "bytes32",
          "name": "role",
          "type": "bytes32"
        },
        {
          "indexed": true,
          "internalType": "address",
          "name": "account",
          "type": "address"
        },
        {
          "indexed": true,
          "internalType": "address",
          "name": "sender",
          "type": "address"
        }
      ],
      "name": "RoleGranted",
      "type": "event"
    },
    {
      "anonymous": false,
      "inputs": [
        {
          "indexed": true,
          "internalType": "bytes32",
          "name": "role",
          "type": "bytes32"
        },
        {
          "indexed": true,
          "internalType": "address",
          "name": "account",
          "type": "address"
        },
        {
          "indexed": true,
          "internalType": "address",
          "name": "sender",
          "type": "address"
        }
      ],
      "name": "RoleRevoked",
      "type": "event"
    },
    {
      "anonymous": false,
      "inputs": [
        {
          "indexed": false,
          "internalType": "uint256",
          "name": "tokenId",
          "type": "uint256"
        },
        {
          "components": [
            {
              "internalType": "address payable",
              "name": "account",
              "type": "address"
            },
            {
              "internalType": "uint96",
              "name": "value",
              "type": "uint96"
            }
          ],
          "indexed": false,
          "internalType": "struct LibPart.Part[]",
          "name": "royalties",
          "type": "tuple[]"
        }
      ],
      "name": "RoyaltiesSet",
      "type": "event"
    },
    {
      "anonymous": false,
      "inputs": [
        {
          "indexed": true,
          "internalType": "address",
          "name": "from",
          "type": "address"
        },
        {
          "indexed": true,
          "internalType": "address",
          "name": "to",
          "type": "address"
        },
        {
          "indexed": true,
          "internalType": "uint256",
          "name": "tokenId",
          "type": "uint256"
        }
      ],
      "name": "Transfer",
      "type": "event"
    },
    {
      "anonymous": false,
      "inputs": [
        {
          "indexed": false,
          "internalType": "address",
          "name": "account",
          "type": "address"
        }
      ],
      "name": "Unpaused",
      "type": "event"
    },
    {
      "inputs": [],
      "name": "DEFAULT_ADMIN_ROLE",
      "outputs": [
        {
          "internalType": "bytes32",
          "name": "",
          "type": "bytes32"
        }
      ],
      "stateMutability": "view",
      "type": "function"
    },
    {
      "inputs": [],
      "name": "MINTER_ROLE",
      "outputs": [
        {
          "internalType": "bytes32",
          "name": "",
          "type": "bytes32"
        }
      ],
      "stateMutability": "view",
      "type": "function"
    },
    {
      "inputs": [],
      "name": "PAUSER_ROLE",
      "outputs": [
        {
          "internalType": "bytes32",
          "name": "",
          "type": "bytes32"
        }
      ],
      "stateMutability": "view",
      "type": "function"
    },
    {
      "inputs": [
        {
          "internalType": "address",
          "name": "to",
          "type": "address"
        },
        {
          "internalType": "uint256",
          "name": "tokenId",
          "type": "uint256"
        }
      ],
      "name": "approve",
      "outputs": [],
      "stateMutability": "nonpayable",
      "type": "function"
    },
    {
      "inputs": [
        {
          "internalType": "address",
          "name": "owner",
          "type": "address"
        }
      ],
      "name": "balanceOf",
      "outputs": [
        {
          "internalType": "uint256",
          "name": "",
          "type": "uint256"
        }
      ],
      "stateMutability": "view",
      "type": "function"
    },
    {
      "inputs": [
        {
          "internalType": "uint256",
          "name": "tokenId",
          "type": "uint256"
        }
      ],
      "name": "getApproved",
      "outputs": [
        {
          "internalType": "address",
          "name": "",
          "type": "address"
        }
      ],
      "stateMutability": "view",
      "type": "function"
    },
    {
      "inputs": [
        {
          "internalType": "uint256",
          "name": "tokenId",
          "type": "uint256"
        }
      ],
      "name": "getMintPrice",
      "outputs": [
        {
          "internalType": "uint256",
          "name": "",
          "type": "uint256"
        }
      ],
      "stateMutability": "pure",
      "type": "function"
    },
    {
      "inputs": [
        {
          "internalType": "uint256",
          "name": "id",
          "type": "uint256"
        }
      ],
      "name": "getRaribleV2Royalties",
      "outputs": [
        {
          "components": [
            {
              "internalType": "address payable",
              "name": "account",
              "type": "address"
            },
            {
              "internalType": "uint96",
              "name": "value",
              "type": "uint96"
            }
          ],
          "internalType": "struct LibPart.Part[]",
          "name": "",
          "type": "tuple[]"
        }
      ],
      "stateMutability": "view",
      "type": "function"
    },
    {
      "inputs": [
        {
          "internalType": "bytes32",
          "name": "role",
          "type": "bytes32"
        }
      ],
      "name": "getRoleAdmin",
      "outputs": [
        {
          "internalType": "bytes32",
          "name": "",
          "type": "bytes32"
        }
      ],
      "stateMutability": "view",
      "type": "function"
    },
    {
      "inputs": [
        {
          "internalType": "bytes32",
          "name": "role",
          "type": "bytes32"
        },
        {
          "internalType": "uint256",
          "name": "index",
          "type": "uint256"
        }
      ],
      "name": "getRoleMember",
      "outputs": [
        {
          "internalType": "address",
          "name": "",
          "type": "address"
        }
      ],
      "stateMutability": "view",
      "type": "function"
    },
    {
      "inputs": [
        {
          "internalType": "bytes32",
          "name": "role",
          "type": "bytes32"
        }
      ],
      "name": "getRoleMemberCount",
      "outputs": [
        {
          "internalType": "uint256",
          "name": "",
          "type": "uint256"
        }
      ],
      "stateMutability": "view",
      "type": "function"
    },
    {
      "inputs": [
        {
          "internalType": "bytes32",
          "name": "role",
          "type": "bytes32"
        },
        {
          "internalType": "address",
          "name": "account",
          "type": "address"
        }
      ],
      "name": "grantRole",
      "outputs": [],
      "stateMutability": "nonpayable",
      "type": "function"
    },
    {
      "inputs": [
        {
          "internalType": "bytes32",
          "name": "role",
          "type": "bytes32"
        },
        {
          "internalType": "address",
          "name": "account",
          "type": "address"
        }
      ],
      "name": "hasRole",
      "outputs": [
        {
          "internalType": "bool",
          "name": "",
          "type": "bool"
        }
      ],
      "stateMutability": "view",
      "type": "function"
    },
    {
      "inputs": [
        {
          "internalType": "address",
          "name": "owner",
          "type": "address"
        },
        {
          "internalType": "address",
          "name": "operator",
          "type": "address"
        }
      ],
      "name": "isApprovedForAll",
      "outputs": [
        {
          "internalType": "bool",
          "name": "",
          "type": "bool"
        }
      ],
      "stateMutability": "view",
      "type": "function"
    },
    {
      "inputs": [],
      "name": "mintToken",
      "outputs": [],
      "stateMutability": "payable",
      "type": "function"
    },
    {
      "inputs": [],
      "name": "name",
      "outputs": [
        {
          "internalType": "string",
          "name": "",
          "type": "string"
        }
      ],
      "stateMutability": "view",
      "type": "function"
    },
    {
      "inputs": [],
      "name": "owner",
      "outputs": [
        {
          "internalType": "address",
          "name": "",
          "type": "address"
        }
      ],
      "stateMutability": "view",
      "type": "function"
    },
    {
      "inputs": [
        {
          "internalType": "uint256",
          "name": "tokenId",
          "type": "uint256"
        }
      ],
      "name": "ownerOf",
      "outputs": [
        {
          "internalType": "address",
          "name": "",
          "type": "address"
        }
      ],
      "stateMutability": "view",
      "type": "function"
    },
    {
      "inputs": [],
      "name": "pause",
      "outputs": [],
      "stateMutability": "nonpayable",
      "type": "function"
    },
    {
      "inputs": [],
      "name": "paused",
      "outputs": [
        {
          "internalType": "bool",
          "name": "",
          "type": "bool"
        }
      ],
      "stateMutability": "view",
      "type": "function"
    },
    {
      "inputs": [],
      "name": "renounceOwnership",
      "outputs": [],
      "stateMutability": "nonpayable",
      "type": "function"
    },
    {
      "inputs": [
        {
          "internalType": "bytes32",
          "name": "role",
          "type": "bytes32"
        },
        {
          "internalType": "address",
          "name": "account",
          "type": "address"
        }
      ],
      "name": "renounceRole",
      "outputs": [],
      "stateMutability": "nonpayable",
      "type": "function"
    },
    {
      "inputs": [
        {
          "internalType": "bytes32",
          "name": "role",
          "type": "bytes32"
        },
        {
          "internalType": "address",
          "name": "account",
          "type": "address"
        }
      ],
      "name": "revokeRole",
      "outputs": [],
      "stateMutability": "nonpayable",
      "type": "function"
    },
    {
      "inputs": [
        {
          "internalType": "uint256",
          "name": "_tokenId",
          "type": "uint256"
        },
        {
          "internalType": "uint256",
          "name": "_salePrice",
          "type": "uint256"
        }
      ],
      "name": "royaltyInfo",
      "outputs": [
        {
          "internalType": "address",
          "name": "receiver",
          "type": "address"
        },
        {
          "internalType": "uint256",
          "name": "royaltyAmount",
          "type": "uint256"
        }
      ],
      "stateMutability": "view",
      "type": "function"
    },
    {
      "inputs": [
        {
          "internalType": "address",
          "name": "from",
          "type": "address"
        },
        {
          "internalType": "address",
          "name": "to",
          "type": "address"
        },
        {
          "internalType": "uint256",
          "name": "tokenId",
          "type": "uint256"
        }
      ],
      "name": "safeTransferFrom",
      "outputs": [],
      "stateMutability": "nonpayable",
      "type": "function"
    },
    {
      "inputs": [
        {
          "internalType": "address",
          "name": "from",
          "type": "address"
        },
        {
          "internalType": "address",
          "name": "to",
          "type": "address"
        },
        {
          "internalType": "uint256",
          "name": "tokenId",
          "type": "uint256"
        },
        {
          "internalType": "bytes",
          "name": "_data",
          "type": "bytes"
        }
      ],
      "name": "safeTransferFrom",
      "outputs": [],
      "stateMutability": "nonpayable",
      "type": "function"
    },
    {
      "inputs": [
        {
          "internalType": "address",
          "name": "operator",
          "type": "address"
        },
        {
          "internalType": "bool",
          "name": "approved",
          "type": "bool"
        }
      ],
      "name": "setApprovalForAll",
      "outputs": [],
      "stateMutability": "nonpayable",
      "type": "function"
    },
    {
      "inputs": [
        {
          "internalType": "bytes4",
          "name": "interfaceId",
          "type": "bytes4"
        }
      ],
      "name": "supportsInterface",
      "outputs": [
        {
          "internalType": "bool",
          "name": "",
          "type": "bool"
        }
      ],
      "stateMutability": "view",
      "type": "function"
    },
    {
      "inputs": [],
      "name": "symbol",
      "outputs": [
        {
          "internalType": "string",
          "name": "",
          "type": "string"
        }
      ],
      "stateMutability": "view",
      "type": "function"
    },
    {
      "inputs": [
        {
          "internalType": "uint256",
          "name": "index",
          "type": "uint256"
        }
      ],
      "name": "tokenByIndex",
      "outputs": [
        {
          "internalType": "uint256",
          "name": "",
          "type": "uint256"
        }
      ],
      "stateMutability": "view",
      "type": "function"
    },
    {
      "inputs": [
        {
          "internalType": "address",
          "name": "owner",
          "type": "address"
        },
        {
          "internalType": "uint256",
          "name": "index",
          "type": "uint256"
        }
      ],
      "name": "tokenOfOwnerByIndex",
      "outputs": [
        {
          "internalType": "uint256",
          "name": "",
          "type": "uint256"
        }
      ],
      "stateMutability": "view",
      "type": "function"
    },
    {
      "inputs": [
        {
          "internalType": "uint256",
          "name": "tokenId",
          "type": "uint256"
        }
      ],
      "name": "tokenURI",
      "outputs": [
        {
          "internalType": "string",
          "name": "",
          "type": "string"
        }
      ],
      "stateMutability": "view",
      "type": "function"
    },
    {
      "inputs": [],
      "name": "totalSupply",
      "outputs": [
        {
          "internalType": "uint256",
          "name": "",
          "type": "uint256"
        }
      ],
      "stateMutability": "view",
      "type": "function"
    },
    {
      "inputs": [
        {
          "internalType": "address",
          "name": "from",
          "type": "address"
        },
        {
          "internalType": "address",
          "name": "to",
          "type": "address"
        },
        {
          "internalType": "uint256",
          "name": "tokenId",
          "type": "uint256"
        }
      ],
      "name": "transferFrom",
      "outputs": [],
      "stateMutability": "nonpayable",
      "type": "function"
    },
    {
      "inputs": [
        {
          "internalType": "address",
          "name": "newOwner",
          "type": "address"
        }
      ],
      "name": "transferOwnership",
      "outputs": [],
      "stateMutability": "nonpayable",
      "type": "function"
    },
    {
      "inputs": [],
      "name": "unpause",
      "outputs": [],
      "stateMutability": "nonpayable",
      "type": "function"
    },
    {
      "inputs": [],
      "name": "withdraw",
      "outputs": [],
      "stateMutability": "payable",
      "type": "function"
    }
  ],
  "bytecode": "0x60806040523480156200001157600080fd5b50604051620063e6380380620063e68339818101604052810190620000379190620005ee565b8282816002908051906020019062000051929190620004cc565b5080600390805190602001906200006a929190620004cc565b5050506000600c60006101000a81548160ff021916908315150217905550620000a86200009c6200017060201b60201c565b6200017860201b60201c565b80600e9080519060200190620000c0929190620004cc565b50620000e56000801b620000d96200017060201b60201c565b6200023e60201b60201c565b620001267f9f2df0fed2c77648de5860a4cc508cd0818c85b8b8a1ab4ceeef8d981c8956a66200011a6200017060201b60201c565b6200023e60201b60201c565b620001677f65d7a28e3265b37a6474929f336521b332c1681b933f6cb9f3376673440d862a6200015b6200017060201b60201c565b6200023e60201b60201c565b505050620007ff565b600033905090565b6000600c60019054906101000a900473ffffffffffffffffffffffffffffffffffffffff16905081600c60016101000a81548173ffffffffffffffffffffffffffffffffffffffff021916908373ffffffffffffffffffffffffffffffffffffffff1602179055508173ffffffffffffffffffffffffffffffffffffffff168173ffffffffffffffffffffffffffffffffffffffff167f8be0079c531659141344cd1fd0a4f28419497f9722a3daafe3b4186f6b6457e060405160405180910390a35050565b6200025082826200025460201b60201c565b5050565b6200026b82826200029c60201b62001a5d1760201c565b6200029781600160008581526020019081526020016000206200038d60201b62001b3d1790919060201c565b505050565b620002ae8282620003c560201b60201c565b6200038957600160008084815260200190815260200160002060000160008373ffffffffffffffffffffffffffffffffffffffff1673ffffffffffffffffffffffffffffffffffffffff16815260200190815260200160002060006101000a81548160ff0219169083151502179055506200032e6200017060201b60201c565b73ffffffffffffffffffffffffffffffffffffffff168173ffffffffffffffffffffffffffffffffffffffff16837f2f8788117e7eff1d82e926ec794901d17c78024a50270940304540a733656f0d60405160405180910390a45b5050565b6000620003bd836000018373ffffffffffffffffffffffffffffffffffffffff1660001b6200042f60201b60201c565b905092915050565b600080600084815260200190815260200160002060000160008373ffffffffffffffffffffffffffffffffffffffff1673ffffffffffffffffffffffffffffffffffffffff16815260200190815260200160002060009054906101000a900460ff16905092915050565b6000620004438383620004a960201b60201c565b6200049e578260000182908060018154018082558091505060019003906000526020600020016000909190919091505582600001805490508360010160008481526020019081526020016000208190555060019050620004a3565b600090505b92915050565b600080836001016000848152602001908152602001600020541415905092915050565b828054620004da9062000724565b90600052602060002090601f016020900481019282620004fe57600085556200054a565b82601f106200051957805160ff19168380011785556200054a565b828001600101855582156200054a579182015b82811115620005495782518255916020019190600101906200052c565b5b5090506200055991906200055d565b5090565b5b80821115620005785760008160009055506001016200055e565b5090565b6000620005936200058d84620006b8565b6200068f565b905082815260208101848484011115620005ac57600080fd5b620005b9848285620006ee565b509392505050565b600082601f830112620005d357600080fd5b8151620005e58482602086016200057c565b91505092915050565b6000806000606084860312156200060457600080fd5b600084015167ffffffffffffffff8111156200061f57600080fd5b6200062d86828701620005c1565b935050602084015167ffffffffffffffff8111156200064b57600080fd5b6200065986828701620005c1565b925050604084015167ffffffffffffffff8111156200067757600080fd5b6200068586828701620005c1565b9150509250925092565b60006200069b620006ae565b9050620006a982826200075a565b919050565b6000604051905090565b600067ffffffffffffffff821115620006d657620006d5620007bf565b5b620006e182620007ee565b9050602081019050919050565b60005b838110156200070e578082015181840152602081019050620006f1565b838111156200071e576000848401525b50505050565b600060028204905060018216806200073d57607f821691505b6020821081141562000754576200075362000790565b5b50919050565b6200076582620007ee565b810181811067ffffffffffffffff82111715620007875762000786620007bf565b5b80604052505050565b7f4e487b7100000000000000000000000000000000000000000000000000000000600052602260045260246000fd5b7f4e487b7100000000000000000000000000000000000000000000000000000000600052604160045260246000fd5b6000601f19601f8301169050919050565b615bd7806200080f6000396000f3fe60806040526004361061021a5760003560e01c80636352211e11610123578063a22cb465116100ab578063d53913931161006f578063d5391393146107f0578063d547741f1461081b578063e63ab1e914610844578063e985e9c51461086f578063f2fde38b146108ac5761021a565b8063a22cb465146106e7578063b88d4fde14610710578063c87b56dd14610739578063ca15c87314610776578063cad96cca146107b35761021a565b80638da5cb5b116100f25780638da5cb5b146105ec5780639010d07c1461061757806391d148541461065457806395d89b4114610691578063a217fddf146106bc5761021a565b80636352211e1461054457806370a0823114610581578063715018a6146105be5780638456cb59146105d55761021a565b80632f2ff15d116101a65780633f4ba83a116101755780633f4ba83a1461045f57806342842e0e146104765780634f6ccce71461049f578063559e775b146104dc5780635c975abb146105195761021a565b80632f2ff15d146103c65780632f745c59146103ef57806336568abe1461042c5780633ccfd60b146104555761021a565b806318160ddd116101ed57806318160ddd146102ed5780632004ffd91461031857806323b872dd14610322578063248a9ca31461034b5780632a55205a146103885761021a565b806301ffc9a71461021f57806306fdde031461025c578063081812fc14610287578063095ea7b3146102c4575b600080fd5b34801561022b57600080fd5b50610246600480360381019061024191906141a8565b6108d5565b60405161025391906149cb565b60405180910390f35b34801561026857600080fd5b50610271610994565b60405161027e9190614a01565b60405180910390f35b34801561029357600080fd5b506102ae60048036038101906102a991906141fa565b610a26565b6040516102bb9190614919565b60405180910390f35b3480156102d057600080fd5b506102eb60048036038101906102e691906140cb565b610aab565b005b3480156102f957600080fd5b50610302610bc3565b60405161030f9190614dc3565b60405180910390f35b610320610bd0565b005b34801561032e57600080fd5b5061034960048036038101906103449190613fc5565b610c98565b005b34801561035757600080fd5b50610372600480360381019061036d9190614107565b610cf8565b60405161037f91906149e6565b60405180910390f35b34801561039457600080fd5b506103af60048036038101906103aa9190614223565b610d17565b6040516103bd929190614980565b60405180910390f35b3480156103d257600080fd5b506103ed60048036038101906103e89190614130565b610eed565b005b3480156103fb57600080fd5b50610416600480360381019061041191906140cb565b610f16565b6040516104239190614dc3565b60405180910390f35b34801561043857600080fd5b50610453600480360381019061044e9190614130565b610fbb565b005b61045d61103e565b005b34801561046b57600080fd5b506104746110db565b005b34801561048257600080fd5b5061049d60048036038101906104989190613fc5565b611155565b005b3480156104ab57600080fd5b506104c660048036038101906104c191906141fa565b611175565b6040516104d39190614dc3565b60405180910390f35b3480156104e857600080fd5b5061050360048036038101906104fe91906141fa565b61120c565b6040516105109190614dc3565b60405180910390f35b34801561052557600080fd5b5061052e6112b2565b60405161053b91906149cb565b60405180910390f35b34801561055057600080fd5b5061056b600480360381019061056691906141fa565b6112c9565b6040516105789190614919565b60405180910390f35b34801561058d57600080fd5b506105a860048036038101906105a39190613f60565b61137b565b6040516105b59190614dc3565b60405180910390f35b3480156105ca57600080fd5b506105d3611433565b005b3480156105e157600080fd5b506105ea6114bb565b005b3480156105f857600080fd5b50610601611535565b60405161060e9190614919565b60405180910390f35b34801561062357600080fd5b5061063e6004803603810190610639919061416c565b61155f565b60405161064b9190614919565b60405180910390f35b34801561066057600080fd5b5061067b60048036038101906106769190614130565b61158e565b60405161068891906149cb565b60405180910390f35b34801561069d57600080fd5b506106a66115f8565b6040516106b39190614a01565b60405180910390f35b3480156106c857600080fd5b506106d161168a565b6040516106de91906149e6565b60405180910390f35b3480156106f357600080fd5b5061070e6004803603810190610709919061408f565b611691565b005b34801561071c57600080fd5b5061073760048036038101906107329190614014565b6116a7565b005b34801561074557600080fd5b50610760600480360381019061075b91906141fa565b611709565b60405161076d9190614a01565b60405180910390f35b34801561078257600080fd5b5061079d60048036038101906107989190614107565b61173a565b6040516107aa9190614dc3565b60405180910390f35b3480156107bf57600080fd5b506107da60048036038101906107d591906141fa565b61175e565b6040516107e791906149a9565b60405180910390f35b3480156107fc57600080fd5b50610805611860565b60405161081291906149e6565b60405180910390f35b34801561082757600080fd5b50610842600480360381019061083d9190614130565b611884565b005b34801561085057600080fd5b506108596118ad565b60405161086691906149e6565b60405180910390f35b34801561087b57600080fd5b5061089660048036038101906108919190613f89565b6118d1565b6040516108a391906149cb565b60405180910390f35b3480156108b857600080fd5b506108d360048036038101906108ce9190613f60565b611965565b005b600063cad96cca60e01b7bffffffffffffffffffffffffffffffffffffffffffffffffffffffff1916827bffffffffffffffffffffffffffffffffffffffffffffffffffffffff1916141561092d576001905061098f565b632a55205a60e01b7bffffffffffffffffffffffffffffffffffffffffffffffffffffffff1916827bffffffffffffffffffffffffffffffffffffffffffffffffffffffff19161415610983576001905061098f565b61098c82611b6d565b90505b919050565b6060600280546109a39061518f565b80601f01602080910402602001604051908101604052809291908181526020018280546109cf9061518f565b8015610a1c5780601f106109f157610100808354040283529160200191610a1c565b820191906000526020600020905b8154815290600101906020018083116109ff57829003601f168201915b5050505050905090565b6000610a3182611be7565b610a70576040517f08c379a0000000000000000000000000000000000000000000000000000000008152600401610a6790614c43565b60405180910390fd5b6006600083815260200190815260200160002060009054906101000a900473ffffffffffffffffffffffffffffffffffffffff169050919050565b6000610ab6826112c9565b90508073ffffffffffffffffffffffffffffffffffffffff168373ffffffffffffffffffffffffffffffffffffffff161415610b27576040517f08c379a0000000000000000000000000000000000000000000000000000000008152600401610b1e90614cc3565b60405180910390fd5b8073ffffffffffffffffffffffffffffffffffffffff16610b46611c53565b73ffffffffffffffffffffffffffffffffffffffff161480610b755750610b7481610b6f611c53565b6118d1565b5b610bb4576040517f08c379a0000000000000000000000000000000000000000000000000000000008152600401610bab90614bc3565b60405180910390fd5b610bbe8383611c5b565b505050565b6000600a80549050905090565b6000610bda610bc3565b905061115c61ffff16811115610c25576040517f08c379a0000000000000000000000000000000000000000000000000000000008152600401610c1c90614d43565b60405180910390fd5b610c567f9f2df0fed2c77648de5860a4cc508cd0818c85b8b8a1ab4ceeef8d981c8956a6610c51611c53565b61158e565b610c7057610c638161120c565b341015610c6f57600080fd5b5b610c81610c7b611c53565b82611d14565b610c9581610c8d611535565b610190611ee2565b50565b610ca9610ca3611c53565b82612053565b610ce8576040517f08c379a0000000000000000000000000000000000000000000000000000000008152600401610cdf90614ce3565b60405180910390fd5b610cf3838383612131565b505050565b6000806000838152602001908152602001600020600101549050919050565b6000806000600d6000868152602001908152602001600020805480602002602001604051908101604052809291908181526020016000905b82821015610e11578382906000526020600020016040518060400160405290816000820160009054906101000a900473ffffffffffffffffffffffffffffffffffffffff1673ffffffffffffffffffffffffffffffffffffffff1673ffffffffffffffffffffffffffffffffffffffff1681526020016000820160149054906101000a90046bffffffffffffffffffffffff166bffffffffffffffffffffffff166bffffffffffffffffffffffff168152505081526020019060010190610d4f565b505050509050600081511115610edd5780600081518110610e5b577f4e487b7100000000000000000000000000000000000000000000000000000000600052603260045260246000fd5b60200260200101516000015161271082600081518110610ea4577f4e487b7100000000000000000000000000000000000000000000000000000000600052603260045260246000fd5b6020026020010151602001516bffffffffffffffffffffffff1686610ec99190614fdf565b610ed39190614f72565b9250925050610ee6565b60008092509250505b9250929050565b610ef682610cf8565b610f0781610f02611c53565b61238d565b610f11838361242a565b505050565b6000610f218361137b565b8210610f62576040517f08c379a0000000000000000000000000000000000000000000000000000000008152600401610f5990614a83565b60405180910390fd5b600860008473ffffffffffffffffffffffffffffffffffffffff1673ffffffffffffffffffffffffffffffffffffffff168152602001908152602001600020600083815260200190815260200160002054905092915050565b610fc3611c53565b73ffffffffffffffffffffffffffffffffffffffff168173ffffffffffffffffffffffffffffffffffffffff1614611030576040517f08c379a000000000000000000000000000000000000000000000000000000000815260040161102790614da3565b60405180910390fd5b61103a828261245e565b5050565b6110526000801b61104d611c53565b61158e565b61105b57600080fd5b6000611065611c53565b73ffffffffffffffffffffffffffffffffffffffff1647604051611088906148ca565b60006040518083038185875af1925050503d80600081146110c5576040519150601f19603f3d011682016040523d82523d6000602084013e6110ca565b606091505b50509050806110d857600080fd5b50565b61110c7f65d7a28e3265b37a6474929f336521b332c1681b933f6cb9f3376673440d862a611107611c53565b61158e565b61114b576040517f08c379a000000000000000000000000000000000000000000000000000000000815260040161114290614d83565b60405180910390fd5b611153612492565b565b611170838383604051806020016040528060008152506116a7565b505050565b600061117f610bc3565b82106111c0576040517f08c379a00000000000000000000000000000000000000000000000000000000081526004016111b790614d03565b60405180910390fd5b600a82815481106111fa577f4e487b7100000000000000000000000000000000000000000000000000000000600052603260045260246000fd5b90600052602060002001549050919050565b6000600461115c61121d9190614f41565b61ffff168210156112375766470de4df82000090506112ad565b6002600461115c6112489190614f41565b6112529190614fa3565b61ffff1682101561126c57668e1bc9bf04000090506112ad565b6003600461115c61127d9190614f41565b6112879190614fa3565b61ffff168210156112a15766d529ae9e86000090506112ad565b67011c37937e08000090505b919050565b6000600c60009054906101000a900460ff16905090565b6000806004600084815260200190815260200160002060009054906101000a900473ffffffffffffffffffffffffffffffffffffffff169050600073ffffffffffffffffffffffffffffffffffffffff168173ffffffffffffffffffffffffffffffffffffffff161415611372576040517f08c379a000000000000000000000000000000000000000000000000000000000815260040161136990614c03565b60405180910390fd5b80915050919050565b60008073ffffffffffffffffffffffffffffffffffffffff168273ffffffffffffffffffffffffffffffffffffffff1614156113ec576040517f08c379a00000000000000000000000000000000000000000000000000000000081526004016113e390614be3565b60405180910390fd5b600560008373ffffffffffffffffffffffffffffffffffffffff1673ffffffffffffffffffffffffffffffffffffffff168152602001908152602001600020549050919050565b61143b611c53565b73ffffffffffffffffffffffffffffffffffffffff16611459611535565b73ffffffffffffffffffffffffffffffffffffffff16146114af576040517f08c379a00000000000000000000000000000000000000000000000000000000081526004016114a690614c63565b60405180910390fd5b6114b96000612534565b565b6114ec7f65d7a28e3265b37a6474929f336521b332c1681b933f6cb9f3376673440d862a6114e7611c53565b61158e565b61152b576040517f08c379a000000000000000000000000000000000000000000000000000000000815260040161152290614b03565b60405180910390fd5b6115336125fa565b565b6000600c60019054906101000a900473ffffffffffffffffffffffffffffffffffffffff16905090565b6000611586826001600086815260200190815260200160002061269d90919063ffffffff16565b905092915050565b600080600084815260200190815260200160002060000160008373ffffffffffffffffffffffffffffffffffffffff1673ffffffffffffffffffffffffffffffffffffffff16815260200190815260200160002060009054906101000a900460ff16905092915050565b6060600380546116079061518f565b80601f01602080910402602001604051908101604052809291908181526020018280546116339061518f565b80156116805780601f1061165557610100808354040283529160200191611680565b820191906000526020600020905b81548152906001019060200180831161166357829003601f168201915b5050505050905090565b6000801b81565b6116a361169c611c53565b83836126b7565b5050565b6116b86116b2611c53565b83612053565b6116f7576040517f08c379a00000000000000000000000000000000000000000000000000000000081526004016116ee90614ce3565b60405180910390fd5b61170384848484612824565b50505050565b606061171482612880565b60405160200161172491906148a8565b6040516020818303038152906040529050919050565b600061175760016000848152602001908152602001600020612927565b9050919050565b6060600d6000838152602001908152602001600020805480602002602001604051908101604052809291908181526020016000905b82821015611855578382906000526020600020016040518060400160405290816000820160009054906101000a900473ffffffffffffffffffffffffffffffffffffffff1673ffffffffffffffffffffffffffffffffffffffff1673ffffffffffffffffffffffffffffffffffffffff1681526020016000820160149054906101000a90046bffffffffffffffffffffffff166bffffffffffffffffffffffff166bffffffffffffffffffffffff168152505081526020019060010190611793565b505050509050919050565b7f9f2df0fed2c77648de5860a4cc508cd0818c85b8b8a1ab4ceeef8d981c8956a681565b61188d82610cf8565b61189e81611899611c53565b61238d565b6118a8838361245e565b505050565b7f65d7a28e3265b37a6474929f336521b332c1681b933f6cb9f3376673440d862a81565b6000600760008473ffffffffffffffffffffffffffffffffffffffff1673ffffffffffffffffffffffffffffffffffffffff16815260200190815260200160002060008373ffffffffffffffffffffffffffffffffffffffff1673ffffffffffffffffffffffffffffffffffffffff16815260200190815260200160002060009054906101000a900460ff16905092915050565b61196d611c53565b73ffffffffffffffffffffffffffffffffffffffff1661198b611535565b73ffffffffffffffffffffffffffffffffffffffff16146119e1576040517f08c379a00000000000000000000000000000000000000000000000000000000081526004016119d890614c63565b60405180910390fd5b600073ffffffffffffffffffffffffffffffffffffffff168173ffffffffffffffffffffffffffffffffffffffff161415611a51576040517f08c379a0000000000000000000000000000000000000000000000000000000008152600401611a4890614ac3565b60405180910390fd5b611a5a81612534565b50565b611a67828261158e565b611b3957600160008084815260200190815260200160002060000160008373ffffffffffffffffffffffffffffffffffffffff1673ffffffffffffffffffffffffffffffffffffffff16815260200190815260200160002060006101000a81548160ff021916908315150217905550611ade611c53565b73ffffffffffffffffffffffffffffffffffffffff168173ffffffffffffffffffffffffffffffffffffffff16837f2f8788117e7eff1d82e926ec794901d17c78024a50270940304540a733656f0d60405160405180910390a45b5050565b6000611b65836000018373ffffffffffffffffffffffffffffffffffffffff1660001b61293c565b905092915050565b60007f780e9d63000000000000000000000000000000000000000000000000000000007bffffffffffffffffffffffffffffffffffffffffffffffffffffffff1916827bffffffffffffffffffffffffffffffffffffffffffffffffffffffff19161480611be05750611bdf826129ac565b5b9050919050565b60008073ffffffffffffffffffffffffffffffffffffffff166004600084815260200190815260200160002060009054906101000a900473ffffffffffffffffffffffffffffffffffffffff1673ffffffffffffffffffffffffffffffffffffffff1614159050919050565b600033905090565b816006600083815260200190815260200160002060006101000a81548173ffffffffffffffffffffffffffffffffffffffff021916908373ffffffffffffffffffffffffffffffffffffffff160217905550808273ffffffffffffffffffffffffffffffffffffffff16611cce836112c9565b73ffffffffffffffffffffffffffffffffffffffff167f8c5be1e5ebec7d5bd14f71427d1e84f3dd0314c0f7b2291e5b200ac8c7c3b92560405160405180910390a45050565b600073ffffffffffffffffffffffffffffffffffffffff168273ffffffffffffffffffffffffffffffffffffffff161415611d84576040517f08c379a0000000000000000000000000000000000000000000000000000000008152600401611d7b90614c23565b60405180910390fd5b611d8d81611be7565b15611dcd576040517f08c379a0000000000000000000000000000000000000000000000000000000008152600401611dc490614ae3565b60405180910390fd5b611dd960008383612a8e565b6001600560008473ffffffffffffffffffffffffffffffffffffffff1673ffffffffffffffffffffffffffffffffffffffff1681526020019081526020016000206000828254611e299190614eeb565b92505081905550816004600083815260200190815260200160002060006101000a81548173ffffffffffffffffffffffffffffffffffffffff021916908373ffffffffffffffffffffffffffffffffffffffff160217905550808273ffffffffffffffffffffffffffffffffffffffff16600073ffffffffffffffffffffffffffffffffffffffff167fddf252ad1be2c89b69c2b068fc378daa952ba7f163c4a11628f55a4df523b3ef60405160405180910390a45050565b6000600167ffffffffffffffff811115611f25577f4e487b7100000000000000000000000000000000000000000000000000000000600052604160045260246000fd5b604051908082528060200260200182016040528015611f5e57816020015b611f4b613e3c565b815260200190600190039081611f435790505b5090508181600081518110611f9c577f4e487b7100000000000000000000000000000000000000000000000000000000600052603260045260246000fd5b6020026020010151602001906bffffffffffffffffffffffff1690816bffffffffffffffffffffffff16815250508281600081518110612005577f4e487b7100000000000000000000000000000000000000000000000000000000600052603260045260246000fd5b60200260200101516000019073ffffffffffffffffffffffffffffffffffffffff16908173ffffffffffffffffffffffffffffffffffffffff168152505061204d8482612a9e565b50505050565b600061205e82611be7565b61209d576040517f08c379a000000000000000000000000000000000000000000000000000000000815260040161209490614b63565b60405180910390fd5b60006120a8836112c9565b90508073ffffffffffffffffffffffffffffffffffffffff168473ffffffffffffffffffffffffffffffffffffffff16148061211757508373ffffffffffffffffffffffffffffffffffffffff166120ff84610a26565b73ffffffffffffffffffffffffffffffffffffffff16145b80612128575061212781856118d1565b5b91505092915050565b8273ffffffffffffffffffffffffffffffffffffffff16612151826112c9565b73ffffffffffffffffffffffffffffffffffffffff16146121a7576040517f08c379a000000000000000000000000000000000000000000000000000000000815260040161219e90614c83565b60405180910390fd5b600073ffffffffffffffffffffffffffffffffffffffff168273ffffffffffffffffffffffffffffffffffffffff161415612217576040517f08c379a000000000000000000000000000000000000000000000000000000000815260040161220e90614b23565b60405180910390fd5b612222838383612a8e565b61222d600082611c5b565b6001600560008573ffffffffffffffffffffffffffffffffffffffff1673ffffffffffffffffffffffffffffffffffffffff168152602001908152602001600020600082825461227d9190615039565b925050819055506001600560008473ffffffffffffffffffffffffffffffffffffffff1673ffffffffffffffffffffffffffffffffffffffff16815260200190815260200160002060008282546122d49190614eeb565b92505081905550816004600083815260200190815260200160002060006101000a81548173ffffffffffffffffffffffffffffffffffffffff021916908373ffffffffffffffffffffffffffffffffffffffff160217905550808273ffffffffffffffffffffffffffffffffffffffff168473ffffffffffffffffffffffffffffffffffffffff167fddf252ad1be2c89b69c2b068fc378daa952ba7f163c4a11628f55a4df523b3ef60405160405180910390a4505050565b612397828261158e565b612426576123bc8173ffffffffffffffffffffffffffffffffffffffff166014612db9565b6123ca8360001c6020612db9565b6040516020016123db9291906148df565b6040516020818303038152906040526040517f08c379a000000000000000000000000000000000000000000000000000000000815260040161241d9190614a01565b60405180910390fd5b5050565b6124348282611a5d565b6124598160016000858152602001908152602001600020611b3d90919063ffffffff16565b505050565b61246882826130b3565b61248d816001600085815260200190815260200160002061319490919063ffffffff16565b505050565b61249a6112b2565b6124d9576040517f08c379a00000000000000000000000000000000000000000000000000000000081526004016124d090614a63565b60405180910390fd5b6000600c60006101000a81548160ff0219169083151502179055507f5db9ee0a495bf2e6ff9c91a7834c1ba4fdd244a5e8aa4e537bd38aeae4b073aa61251d611c53565b60405161252a9190614919565b60405180910390a1565b6000600c60019054906101000a900473ffffffffffffffffffffffffffffffffffffffff16905081600c60016101000a81548173ffffffffffffffffffffffffffffffffffffffff021916908373ffffffffffffffffffffffffffffffffffffffff1602179055508173ffffffffffffffffffffffffffffffffffffffff168173ffffffffffffffffffffffffffffffffffffffff167f8be0079c531659141344cd1fd0a4f28419497f9722a3daafe3b4186f6b6457e060405160405180910390a35050565b6126026112b2565b15612642576040517f08c379a000000000000000000000000000000000000000000000000000000000815260040161263990614ba3565b60405180910390fd5b6001600c60006101000a81548160ff0219169083151502179055507f62e78cea01bee320cd4e420270b5ea74000d11b0c9f74754ebdbfc544b05a258612686611c53565b6040516126939190614919565b60405180910390a1565b60006126ac83600001836131c4565b60001c905092915050565b8173ffffffffffffffffffffffffffffffffffffffff168373ffffffffffffffffffffffffffffffffffffffff161415612726576040517f08c379a000000000000000000000000000000000000000000000000000000000815260040161271d90614b43565b60405180910390fd5b80600760008573ffffffffffffffffffffffffffffffffffffffff1673ffffffffffffffffffffffffffffffffffffffff16815260200190815260200160002060008473ffffffffffffffffffffffffffffffffffffffff1673ffffffffffffffffffffffffffffffffffffffff16815260200190815260200160002060006101000a81548160ff0219169083151502179055508173ffffffffffffffffffffffffffffffffffffffff168373ffffffffffffffffffffffffffffffffffffffff167f17307eab39ab6107e8899845ad3d59bd9653f200f220920489ca2b5937696c318360405161281791906149cb565b60405180910390a3505050565b61282f848484612131565b61283b84848484613215565b61287a576040517f08c379a000000000000000000000000000000000000000000000000000000000815260040161287190614aa3565b60405180910390fd5b50505050565b606061288b82611be7565b6128ca576040517f08c379a00000000000000000000000000000000000000000000000000000000081526004016128c190614ca3565b60405180910390fd5b60006128d46133ac565b905060008151116128f4576040518060200160405280600081525061291f565b806128fe8461343e565b60405160200161290f929190614884565b6040516020818303038152906040525b915050919050565b6000612935826000016135eb565b9050919050565b600061294883836135fc565b6129a15782600001829080600181540180825580915050600190039060005260206000200160009091909190915055826000018054905083600101600084815260200190815260200160002081905550600190506129a6565b600090505b92915050565b60007f80ac58cd000000000000000000000000000000000000000000000000000000007bffffffffffffffffffffffffffffffffffffffffffffffffffffffff1916827bffffffffffffffffffffffffffffffffffffffffffffffffffffffff19161480612a7757507f5b5e139f000000000000000000000000000000000000000000000000000000007bffffffffffffffffffffffffffffffffffffffffffffffffffffffff1916827bffffffffffffffffffffffffffffffffffffffffffffffffffffffff1916145b80612a875750612a868261361f565b5b9050919050565b612a99838383613699565b505050565b600080600090505b8251811015612d6557600073ffffffffffffffffffffffffffffffffffffffff16838281518110612b00577f4e487b7100000000000000000000000000000000000000000000000000000000600052603260045260246000fd5b60200260200101516000015173ffffffffffffffffffffffffffffffffffffffff161415612b63576040517f08c379a0000000000000000000000000000000000000000000000000000000008152600401612b5a90614d63565b60405180910390fd5b6000838281518110612b9e577f4e487b7100000000000000000000000000000000000000000000000000000000600052603260045260246000fd5b6020026020010151602001516bffffffffffffffffffffffff161415612bf9576040517f08c379a0000000000000000000000000000000000000000000000000000000008152600401612bf090614b83565b60405180910390fd5b828181518110612c32577f4e487b7100000000000000000000000000000000000000000000000000000000600052603260045260246000fd5b6020026020010151602001516bffffffffffffffffffffffff1682612c579190614eeb565b9150600d6000858152602001908152602001600020838281518110612ca5577f4e487b7100000000000000000000000000000000000000000000000000000000600052603260045260246000fd5b60200260200101519080600181540180825580915050600190039060005260206000200160009091909190915060008201518160000160006101000a81548173ffffffffffffffffffffffffffffffffffffffff021916908373ffffffffffffffffffffffffffffffffffffffff16021790555060208201518160000160146101000a8154816bffffffffffffffffffffffff02191690836bffffffffffffffffffffffff16021790555050508080612d5d906151f2565b915050612aa6565b506127108110612daa576040517f08c379a0000000000000000000000000000000000000000000000000000000008152600401612da190614d23565b60405180910390fd5b612db483836136f1565b505050565b606060006002836002612dcc9190614fdf565b612dd69190614eeb565b67ffffffffffffffff811115612e15577f4e487b7100000000000000000000000000000000000000000000000000000000600052604160045260246000fd5b6040519080825280601f01601f191660200182016040528015612e475781602001600182028036833780820191505090505b5090507f300000000000000000000000000000000000000000000000000000000000000081600081518110612ea5577f4e487b7100000000000000000000000000000000000000000000000000000000600052603260045260246000fd5b60200101907effffffffffffffffffffffffffffffffffffffffffffffffffffffffffffff1916908160001a9053507f780000000000000000000000000000000000000000000000000000000000000081600181518110612f2f577f4e487b7100000000000000000000000000000000000000000000000000000000600052603260045260246000fd5b60200101907effffffffffffffffffffffffffffffffffffffffffffffffffffffffffffff1916908160001a90535060006001846002612f6f9190614fdf565b612f799190614eeb565b90505b6001811115613065577f3031323334353637383961626364656600000000000000000000000000000000600f861660108110612fe1577f4e487b7100000000000000000000000000000000000000000000000000000000600052603260045260246000fd5b1a60f81b82828151811061301e577f4e487b7100000000000000000000000000000000000000000000000000000000600052603260045260246000fd5b60200101907effffffffffffffffffffffffffffffffffffffffffffffffffffffffffffff1916908160001a905350600485901c94508061305e90615165565b9050612f7c565b50600084146130a9576040517f08c379a00000000000000000000000000000000000000000000000000000000081526004016130a090614a23565b60405180910390fd5b8091505092915050565b6130bd828261158e565b1561319057600080600084815260200190815260200160002060000160008373ffffffffffffffffffffffffffffffffffffffff1673ffffffffffffffffffffffffffffffffffffffff16815260200190815260200160002060006101000a81548160ff021916908315150217905550613135611c53565b73ffffffffffffffffffffffffffffffffffffffff168173ffffffffffffffffffffffffffffffffffffffff16837ff6391f5c32d9c69d2a47ea670b442974b53935d1edc7fd64eb21e047a839171b60405160405180910390a45b5050565b60006131bc836000018373ffffffffffffffffffffffffffffffffffffffff1660001b61372e565b905092915050565b6000826000018281548110613202577f4e487b7100000000000000000000000000000000000000000000000000000000600052603260045260246000fd5b9060005260206000200154905092915050565b60006132368473ffffffffffffffffffffffffffffffffffffffff166138b4565b1561339f578373ffffffffffffffffffffffffffffffffffffffff1663150b7a0261325f611c53565b8786866040518563ffffffff1660e01b81526004016132819493929190614934565b602060405180830381600087803b15801561329b57600080fd5b505af19250505080156132cc57506040513d601f19601f820116820180604052508101906132c991906141d1565b60015b61334f573d80600081146132fc576040519150601f19603f3d011682016040523d82523d6000602084013e613301565b606091505b50600081511415613347576040517f08c379a000000000000000000000000000000000000000000000000000000000815260040161333e90614aa3565b60405180910390fd5b805181602001fd5b63150b7a0260e01b7bffffffffffffffffffffffffffffffffffffffffffffffffffffffff1916817bffffffffffffffffffffffffffffffffffffffffffffffffffffffff1916149150506133a4565b600190505b949350505050565b6060600e80546133bb9061518f565b80601f01602080910402602001604051908101604052809291908181526020018280546133e79061518f565b80156134345780601f1061340957610100808354040283529160200191613434565b820191906000526020600020905b81548152906001019060200180831161341757829003601f168201915b5050505050905090565b60606000821415613486576040518060400160405280600181526020017f300000000000000000000000000000000000000000000000000000000000000081525090506135e6565b600082905060005b600082146134b85780806134a1906151f2565b915050600a826134b19190614f72565b915061348e565b60008167ffffffffffffffff8111156134fa577f4e487b7100000000000000000000000000000000000000000000000000000000600052604160045260246000fd5b6040519080825280601f01601f19166020018201604052801561352c5781602001600182028036833780820191505090505b5090505b600085146135df576001826135459190615039565b9150600a85613554919061523b565b60306135609190614eeb565b60f81b81838151811061359c577f4e487b7100000000000000000000000000000000000000000000000000000000600052603260045260246000fd5b60200101907effffffffffffffffffffffffffffffffffffffffffffffffffffffffffffff1916908160001a905350600a856135d89190614f72565b9450613530565b8093505050505b919050565b600081600001805490509050919050565b600080836001016000848152602001908152602001600020541415905092915050565b60007f5a05180f000000000000000000000000000000000000000000000000000000007bffffffffffffffffffffffffffffffffffffffffffffffffffffffff1916827bffffffffffffffffffffffffffffffffffffffffffffffffffffffff191614806136925750613691826138c7565b5b9050919050565b6136a4838383613941565b6136ac6112b2565b156136ec576040517f08c379a00000000000000000000000000000000000000000000000000000000081526004016136e390614a43565b60405180910390fd5b505050565b7f3fa96d7b6bcbfe71ef171666d84db3cf52fa2d1c8afdb1cc8e486177f208b7df8282604051613722929190614dde565b60405180910390a15050565b600080836001016000848152602001908152602001600020549050600081146138a85760006001826137609190615039565b90506000600186600001805490506137789190615039565b90508181146138335760008660000182815481106137bf577f4e487b7100000000000000000000000000000000000000000000000000000000600052603260045260246000fd5b9060005260206000200154905080876000018481548110613809577f4e487b7100000000000000000000000000000000000000000000000000000000600052603260045260246000fd5b90600052602060002001819055508387600101600083815260200190815260200160002081905550505b8560000180548061386d577f4e487b7100000000000000000000000000000000000000000000000000000000600052603160045260246000fd5b6001900381819060005260206000200160009055905585600101600086815260200190815260200160002060009055600193505050506138ae565b60009150505b92915050565b600080823b905060008111915050919050565b60007f7965db0b000000000000000000000000000000000000000000000000000000007bffffffffffffffffffffffffffffffffffffffffffffffffffffffff1916827bffffffffffffffffffffffffffffffffffffffffffffffffffffffff1916148061393a575061393982613a55565b5b9050919050565b61394c838383613abf565b600073ffffffffffffffffffffffffffffffffffffffff168373ffffffffffffffffffffffffffffffffffffffff16141561398f5761398a81613ac4565b6139ce565b8173ffffffffffffffffffffffffffffffffffffffff168373ffffffffffffffffffffffffffffffffffffffff16146139cd576139cc8382613b0d565b5b5b600073ffffffffffffffffffffffffffffffffffffffff168273ffffffffffffffffffffffffffffffffffffffff161415613a1157613a0c81613c7a565b613a50565b8273ffffffffffffffffffffffffffffffffffffffff168273ffffffffffffffffffffffffffffffffffffffff1614613a4f57613a4e8282613dbd565b5b5b505050565b60007f01ffc9a7000000000000000000000000000000000000000000000000000000007bffffffffffffffffffffffffffffffffffffffffffffffffffffffff1916827bffffffffffffffffffffffffffffffffffffffffffffffffffffffff1916149050919050565b505050565b600a80549050600b600083815260200190815260200160002081905550600a81908060018154018082558091505060019003906000526020600020016000909190919091505550565b60006001613b1a8461137b565b613b249190615039565b9050600060096000848152602001908152602001600020549050818114613c09576000600860008673ffffffffffffffffffffffffffffffffffffffff1673ffffffffffffffffffffffffffffffffffffffff168152602001908152602001600020600084815260200190815260200160002054905080600860008773ffffffffffffffffffffffffffffffffffffffff1673ffffffffffffffffffffffffffffffffffffffff168152602001908152602001600020600084815260200190815260200160002081905550816009600083815260200190815260200160002081905550505b6009600084815260200190815260200160002060009055600860008573ffffffffffffffffffffffffffffffffffffffff1673ffffffffffffffffffffffffffffffffffffffff16815260200190815260200160002060008381526020019081526020016000206000905550505050565b60006001600a80549050613c8e9190615039565b90506000600b60008481526020019081526020016000205490506000600a8381548110613ce4577f4e487b7100000000000000000000000000000000000000000000000000000000600052603260045260246000fd5b9060005260206000200154905080600a8381548110613d2c577f4e487b7100000000000000000000000000000000000000000000000000000000600052603260045260246000fd5b906000526020600020018190555081600b600083815260200190815260200160002081905550600b600085815260200190815260200160002060009055600a805480613da1577f4e487b7100000000000000000000000000000000000000000000000000000000600052603160045260246000fd5b6001900381819060005260206000200160009055905550505050565b6000613dc88361137b565b905081600860008573ffffffffffffffffffffffffffffffffffffffff1673ffffffffffffffffffffffffffffffffffffffff168152602001908152602001600020600083815260200190815260200160002081905550806009600084815260200190815260200160002081905550505050565b6040518060400160405280600073ffffffffffffffffffffffffffffffffffffffff16815260200160006bffffffffffffffffffffffff1681525090565b6000613e8d613e8884614e33565b614e0e565b905082815260208101848484011115613ea557600080fd5b613eb0848285615123565b509392505050565b600081359050613ec781615b2e565b92915050565b600081359050613edc81615b45565b92915050565b600081359050613ef181615b5c565b92915050565b600081359050613f0681615b73565b92915050565b600081519050613f1b81615b73565b92915050565b600082601f830112613f3257600080fd5b8135613f42848260208601613e7a565b91505092915050565b600081359050613f5a81615b8a565b92915050565b600060208284031215613f7257600080fd5b6000613f8084828501613eb8565b91505092915050565b60008060408385031215613f9c57600080fd5b6000613faa85828601613eb8565b9250506020613fbb85828601613eb8565b9150509250929050565b600080600060608486031215613fda57600080fd5b6000613fe886828701613eb8565b9350506020613ff986828701613eb8565b925050604061400a86828701613f4b565b9150509250925092565b6000806000806080858703121561402a57600080fd5b600061403887828801613eb8565b945050602061404987828801613eb8565b935050604061405a87828801613f4b565b925050606085013567ffffffffffffffff81111561407757600080fd5b61408387828801613f21565b91505092959194509250565b600080604083850312156140a257600080fd5b60006140b085828601613eb8565b92505060206140c185828601613ecd565b9150509250929050565b600080604083850312156140de57600080fd5b60006140ec85828601613eb8565b92505060206140fd85828601613f4b565b9150509250929050565b60006020828403121561411957600080fd5b600061412784828501613ee2565b91505092915050565b6000806040838503121561414357600080fd5b600061415185828601613ee2565b925050602061416285828601613eb8565b9150509250929050565b6000806040838503121561417f57600080fd5b600061418d85828601613ee2565b925050602061419e85828601613f4b565b9150509250929050565b6000602082840312156141ba57600080fd5b60006141c884828501613ef7565b91505092915050565b6000602082840312156141e357600080fd5b60006141f184828501613f0c565b91505092915050565b60006020828403121561420c57600080fd5b600061421a84828501613f4b565b91505092915050565b6000806040838503121561423657600080fd5b600061424485828601613f4b565b925050602061425585828601613f4b565b9150509250929050565b600061426b8383614837565b60408301905092915050565b6142808161507f565b82525050565b61428f8161506d565b82525050565b60006142a082614e74565b6142aa8185614ea2565b93506142b583614e64565b8060005b838110156142e65781516142cd888261425f565b97506142d883614e95565b9250506001810190506142b9565b5085935050505092915050565b6142fc81615091565b82525050565b61430b8161509d565b82525050565b600061431c82614e7f565b6143268185614eb3565b9350614336818560208601615132565b61433f81615328565b840191505092915050565b600061435582614e8a565b61435f8185614ecf565b935061436f818560208601615132565b61437881615328565b840191505092915050565b600061438e82614e8a565b6143988185614ee0565b93506143a8818560208601615132565b80840191505092915050565b60006143c1602083614ecf565b91506143cc82615339565b602082019050919050565b60006143e4602b83614ecf565b91506143ef82615362565b604082019050919050565b6000614407601483614ecf565b9150614412826153b1565b602082019050919050565b600061442a602b83614ecf565b9150614435826153da565b604082019050919050565b600061444d603283614ecf565b915061445882615429565b604082019050919050565b6000614470602683614ecf565b915061447b82615478565b604082019050919050565b6000614493601c83614ecf565b915061449e826154c7565b602082019050919050565b60006144b6603e83614ecf565b91506144c1826154f0565b604082019050919050565b60006144d9602483614ecf565b91506144e48261553f565b604082019050919050565b60006144fc601983614ecf565b91506145078261558e565b602082019050919050565b600061451f602c83614ecf565b915061452a826155b7565b604082019050919050565b6000614542602083614ecf565b915061454d82615606565b602082019050919050565b6000614565601083614ecf565b91506145708261562f565b602082019050919050565b6000614588603883614ecf565b915061459382615658565b604082019050919050565b60006145ab602a83614ecf565b91506145b6826156a7565b604082019050919050565b60006145ce602983614ecf565b91506145d9826156f6565b604082019050919050565b60006145f1602083614ecf565b91506145fc82615745565b602082019050919050565b6000614614602c83614ecf565b915061461f8261576e565b604082019050919050565b6000614637600583614ee0565b9150614642826157bd565b600582019050919050565b600061465a602083614ecf565b9150614665826157e6565b602082019050919050565b600061467d602983614ecf565b91506146888261580f565b604082019050919050565b60006146a0602f83614ecf565b91506146ab8261585e565b604082019050919050565b60006146c3602183614ecf565b91506146ce826158ad565b604082019050919050565b60006146e6600083614ec4565b91506146f1826158fc565b600082019050919050565b6000614709603183614ecf565b9150614714826158ff565b604082019050919050565b600061472c602c83614ecf565b91506147378261594e565b604082019050919050565b600061474f602583614ecf565b915061475a8261599d565b604082019050919050565b6000614772600583614ecf565b915061477d826159ec565b602082019050919050565b6000614795601783614ee0565b91506147a082615a15565b601782019050919050565b60006147b8601b83614ecf565b91506147c382615a3e565b602082019050919050565b60006147db604083614ecf565b91506147e682615a67565b604082019050919050565b60006147fe601183614ee0565b915061480982615ab6565b601182019050919050565b6000614821602f83614ecf565b915061482c82615adf565b604082019050919050565b60408201600082015161484d6000850182614277565b5060208201516148606020850182614875565b50505050565b61486f81615101565b82525050565b61487e8161510b565b82525050565b60006148908285614383565b915061489c8284614383565b91508190509392505050565b60006148b48284614383565b91506148bf8261462a565b915081905092915050565b60006148d5826146d9565b9150819050919050565b60006148ea82614788565b91506148f68285614383565b9150614901826147f1565b915061490d8284614383565b91508190509392505050565b600060208201905061492e6000830184614286565b92915050565b60006080820190506149496000830187614286565b6149566020830186614286565b6149636040830185614866565b81810360608301526149758184614311565b905095945050505050565b60006040820190506149956000830185614286565b6149a26020830184614866565b9392505050565b600060208201905081810360008301526149c38184614295565b905092915050565b60006020820190506149e060008301846142f3565b92915050565b60006020820190506149fb6000830184614302565b92915050565b60006020820190508181036000830152614a1b818461434a565b905092915050565b60006020820190508181036000830152614a3c816143b4565b9050919050565b60006020820190508181036000830152614a5c816143d7565b9050919050565b60006020820190508181036000830152614a7c816143fa565b9050919050565b60006020820190508181036000830152614a9c8161441d565b9050919050565b60006020820190508181036000830152614abc81614440565b9050919050565b60006020820190508181036000830152614adc81614463565b9050919050565b60006020820190508181036000830152614afc81614486565b9050919050565b60006020820190508181036000830152614b1c816144a9565b9050919050565b60006020820190508181036000830152614b3c816144cc565b9050919050565b60006020820190508181036000830152614b5c816144ef565b9050919050565b60006020820190508181036000830152614b7c81614512565b9050919050565b60006020820190508181036000830152614b9c81614535565b9050919050565b60006020820190508181036000830152614bbc81614558565b9050919050565b60006020820190508181036000830152614bdc8161457b565b9050919050565b60006020820190508181036000830152614bfc8161459e565b9050919050565b60006020820190508181036000830152614c1c816145c1565b9050919050565b60006020820190508181036000830152614c3c816145e4565b9050919050565b60006020820190508181036000830152614c5c81614607565b9050919050565b60006020820190508181036000830152614c7c8161464d565b9050919050565b60006020820190508181036000830152614c9c81614670565b9050919050565b60006020820190508181036000830152614cbc81614693565b9050919050565b60006020820190508181036000830152614cdc816146b6565b9050919050565b60006020820190508181036000830152614cfc816146fc565b9050919050565b60006020820190508181036000830152614d1c8161471f565b9050919050565b60006020820190508181036000830152614d3c81614742565b9050919050565b60006020820190508181036000830152614d5c81614765565b9050919050565b60006020820190508181036000830152614d7c816147ab565b9050919050565b60006020820190508181036000830152614d9c816147ce565b9050919050565b60006020820190508181036000830152614dbc81614814565b9050919050565b6000602082019050614dd86000830184614866565b92915050565b6000604082019050614df36000830185614866565b8181036020830152614e058184614295565b90509392505050565b6000614e18614e29565b9050614e2482826151c1565b919050565b6000604051905090565b600067ffffffffffffffff821115614e4e57614e4d6152f9565b5b614e5782615328565b9050602081019050919050565b6000819050602082019050919050565b600081519050919050565b600081519050919050565b600081519050919050565b6000602082019050919050565b600082825260208201905092915050565b600082825260208201905092915050565b600081905092915050565b600082825260208201905092915050565b600081905092915050565b6000614ef682615101565b9150614f0183615101565b9250827fffffffffffffffffffffffffffffffffffffffffffffffffffffffffffffffff03821115614f3657614f3561526c565b5b828201905092915050565b6000614f4c826150d3565b9150614f57836150d3565b925082614f6757614f6661529b565b5b828204905092915050565b6000614f7d82615101565b9150614f8883615101565b925082614f9857614f9761529b565b5b828204905092915050565b6000614fae826150d3565b9150614fb9836150d3565b92508161ffff0483118215151615614fd457614fd361526c565b5b828202905092915050565b6000614fea82615101565b9150614ff583615101565b9250817fffffffffffffffffffffffffffffffffffffffffffffffffffffffffffffffff048311821515161561502e5761502d61526c565b5b828202905092915050565b600061504482615101565b915061504f83615101565b9250828210156150625761506161526c565b5b828203905092915050565b6000615078826150e1565b9050919050565b600061508a826150e1565b9050919050565b60008115159050919050565b6000819050919050565b60007fffffffff0000000000000000000000000000000000000000000000000000000082169050919050565b600061ffff82169050919050565b600073ffffffffffffffffffffffffffffffffffffffff82169050919050565b6000819050919050565b60006bffffffffffffffffffffffff82169050919050565b82818337600083830152505050565b60005b83811015615150578082015181840152602081019050615135565b8381111561515f576000848401525b50505050565b600061517082615101565b915060008214156151845761518361526c565b5b600182039050919050565b600060028204905060018216806151a757607f821691505b602082108114156151bb576151ba6152ca565b5b50919050565b6151ca82615328565b810181811067ffffffffffffffff821117156151e9576151e86152f9565b5b80604052505050565b60006151fd82615101565b91507fffffffffffffffffffffffffffffffffffffffffffffffffffffffffffffffff8214156152305761522f61526c565b5b600182019050919050565b600061524682615101565b915061525183615101565b9250826152615761526061529b565b5b828206905092915050565b7f4e487b7100000000000000000000000000000000000000000000000000000000600052601160045260246000fd5b7f4e487b7100000000000000000000000000000000000000000000000000000000600052601260045260246000fd5b7f4e487b7100000000000000000000000000000000000000000000000000000000600052602260045260246000fd5b7f4e487b7100000000000000000000000000000000000000000000000000000000600052604160045260246000fd5b6000601f19601f8301169050919050565b7f537472696e67733a20686578206c656e67746820696e73756666696369656e74600082015250565b7f4552433732315061757361626c653a20746f6b656e207472616e73666572207760008201527f68696c6520706175736564000000000000000000000000000000000000000000602082015250565b7f5061757361626c653a206e6f7420706175736564000000000000000000000000600082015250565b7f455243373231456e756d657261626c653a206f776e657220696e646578206f7560008201527f74206f6620626f756e6473000000000000000000000000000000000000000000602082015250565b7f4552433732313a207472616e7366657220746f206e6f6e20455243373231526560008201527f63656976657220696d706c656d656e7465720000000000000000000000000000602082015250565b7f4f776e61626c653a206e6577206f776e657220697320746865207a65726f206160008201527f6464726573730000000000000000000000000000000000000000000000000000602082015250565b7f4552433732313a20746f6b656e20616c7265616479206d696e74656400000000600082015250565b7f4552433732315072657365744d696e7465725061757365724175746f49643a2060008201527f6d75737420686176652070617573657220726f6c6520746f2070617573650000602082015250565b7f4552433732313a207472616e7366657220746f20746865207a65726f2061646460008201527f7265737300000000000000000000000000000000000000000000000000000000602082015250565b7f4552433732313a20617070726f766520746f2063616c6c657200000000000000600082015250565b7f4552433732313a206f70657261746f7220717565727920666f72206e6f6e657860008201527f697374656e7420746f6b656e0000000000000000000000000000000000000000602082015250565b7f526f79616c74792076616c75652073686f756c6420626520706f736974697665600082015250565b7f5061757361626c653a2070617573656400000000000000000000000000000000600082015250565b7f4552433732313a20617070726f76652063616c6c6572206973206e6f74206f7760008201527f6e6572206e6f7220617070726f76656420666f7220616c6c0000000000000000602082015250565b7f4552433732313a2062616c616e636520717565727920666f7220746865207a6560008201527f726f206164647265737300000000000000000000000000000000000000000000602082015250565b7f4552433732313a206f776e657220717565727920666f72206e6f6e657869737460008201527f656e7420746f6b656e0000000000000000000000000000000000000000000000602082015250565b7f4552433732313a206d696e7420746f20746865207a65726f2061646472657373600082015250565b7f4552433732313a20617070726f76656420717565727920666f72206e6f6e657860008201527f697374656e7420746f6b656e0000000000000000000000000000000000000000602082015250565b7f2e6a736f6e000000000000000000000000000000000000000000000000000000600082015250565b7f4f776e61626c653a2063616c6c6572206973206e6f7420746865206f776e6572600082015250565b7f4552433732313a207472616e73666572206f6620746f6b656e2074686174206960008201527f73206e6f74206f776e0000000000000000000000000000000000000000000000602082015250565b7f4552433732314d657461646174613a2055524920717565727920666f72206e6f60008201527f6e6578697374656e7420746f6b656e0000000000000000000000000000000000602082015250565b7f4552433732313a20617070726f76616c20746f2063757272656e74206f776e6560008201527f7200000000000000000000000000000000000000000000000000000000000000602082015250565b50565b7f4552433732313a207472616e736665722063616c6c6572206973206e6f74206f60008201527f776e6572206e6f7220617070726f766564000000000000000000000000000000602082015250565b7f455243373231456e756d657261626c653a20676c6f62616c20696e646578206f60008201527f7574206f6620626f756e64730000000000000000000000000000000000000000602082015250565b7f526f79616c747920746f74616c2076616c75652073686f756c64206265203c2060008201527f3130303030000000000000000000000000000000000000000000000000000000602082015250565b7f4c696d6974000000000000000000000000000000000000000000000000000000600082015250565b7f416363657373436f6e74726f6c3a206163636f756e7420000000000000000000600082015250565b7f526563697069656e742073686f756c642062652070726573656e740000000000600082015250565b7f4552433732315072657365744d696e7465725061757365724175746f49643a2060008201527f6d75737420686176652070617573657220726f6c6520746f20756e7061757365602082015250565b7f206973206d697373696e6720726f6c6520000000000000000000000000000000600082015250565b7f416363657373436f6e74726f6c3a2063616e206f6e6c792072656e6f756e636560008201527f20726f6c657320666f722073656c660000000000000000000000000000000000602082015250565b615b378161506d565b8114615b4257600080fd5b50565b615b4e81615091565b8114615b5957600080fd5b50565b615b658161509d565b8114615b7057600080fd5b50565b615b7c816150a7565b8114615b8757600080fd5b50565b615b9381615101565b8114615b9e57600080fd5b5056fea2646970667358221220ac99103e071e09e9604a0b788baf091ea3eb5e7151657237d20f8bc389a02e3464736f6c63430008040033",
  "linkReferences": {},
  "deployedLinkReferences": {}
}