{
  "_format": "hh-sol-artifact-1",
  "contractName": "Galaget",
  "sourceName": "contracts/Galaget.sol",
  "abi": [
    {
      "inputs": [
        {
          "internalType": "string",
          "name": "name",
          "type": "string"
        },
        {
          "internalType": "string",
          "name": "symbol",
          "type": "string"
        },
        {
          "internalType": "string",
          "name": "baseTokenURI",
          "type": "string"
        }
      ],
      "stateMutability": "nonpayable",
      "type": "constructor"
    },
    {
      "anonymous": false,
      "inputs": [
        {
          "indexed": true,
          "internalType": "address",
          "name": "owner",
          "type": "address"
        },
        {
          "indexed": true,
          "internalType": "address",
          "name": "approved",
          "type": "address"
        },
        {
          "indexed": true,
          "internalType": "uint256",
          "name": "tokenId",
          "type": "uint256"
        }
      ],
      "name": "Approval",
      "type": "event"
    },
    {
      "anonymous": false,
      "inputs": [
        {
          "indexed": true,
          "internalType": "address",
          "name": "owner",
          "type": "address"
        },
        {
          "indexed": true,
          "internalType": "address",
          "name": "operator",
          "type": "address"
        },
        {
          "indexed": false,
          "internalType": "bool",
          "name": "approved",
          "type": "bool"
        }
      ],
      "name": "ApprovalForAll",
      "type": "event"
    },
    {
      "anonymous": false,
      "inputs": [
        {
          "indexed": true,
          "internalType": "address",
          "name": "previousOwner",
          "type": "address"
        },
        {
          "indexed": true,
          "internalType": "address",
          "name": "newOwner",
          "type": "address"
        }
      ],
      "name": "OwnershipTransferred",
      "type": "event"
    },
    {
      "anonymous": false,
      "inputs": [
        {
          "indexed": false,
          "internalType": "address",
          "name": "account",
          "type": "address"
        }
      ],
      "name": "Paused",
      "type": "event"
    },
    {
      "anonymous": false,
      "inputs": [
        {
          "indexed": true,
          "internalType": "bytes32",
          "name": "role",
          "type": "bytes32"
        },
        {
          "indexed": true,
          "internalType": "bytes32",
          "name": "previousAdminRole",
          "type": "bytes32"
        },
        {
          "indexed": true,
          "internalType": "bytes32",
          "name": "newAdminRole",
          "type": "bytes32"
        }
      ],
      "name": "RoleAdminChanged",
      "type": "event"
    },
    {
      "anonymous": false,
      "inputs": [
        {
          "indexed": true,
          "internalType": "bytes32",
          "name": "role",
          "type": "bytes32"
        },
        {
          "indexed": true,
          "internalType": "address",
          "name": "account",
          "type": "address"
        },
        {
          "indexed": true,
          "internalType": "address",
          "name": "sender",
          "type": "address"
        }
      ],
      "name": "RoleGranted",
      "type": "event"
    },
    {
      "anonymous": false,
      "inputs": [
        {
          "indexed": true,
          "internalType": "bytes32",
          "name": "role",
          "type": "bytes32"
        },
        {
          "indexed": true,
          "internalType": "address",
          "name": "account",
          "type": "address"
        },
        {
          "indexed": true,
          "internalType": "address",
          "name": "sender",
          "type": "address"
        }
      ],
      "name": "RoleRevoked",
      "type": "event"
    },
    {
      "anonymous": false,
      "inputs": [
        {
          "indexed": false,
          "internalType": "uint256",
          "name": "tokenId",
          "type": "uint256"
        },
        {
          "components": [
            {
              "internalType": "address payable",
              "name": "account",
              "type": "address"
            },
            {
              "internalType": "uint96",
              "name": "value",
              "type": "uint96"
            }
          ],
          "indexed": false,
          "internalType": "struct LibPart.Part[]",
          "name": "royalties",
          "type": "tuple[]"
        }
      ],
      "name": "RoyaltiesSet",
      "type": "event"
    },
    {
      "anonymous": false,
      "inputs": [
        {
          "indexed": true,
          "internalType": "address",
          "name": "from",
          "type": "address"
        },
        {
          "indexed": true,
          "internalType": "address",
          "name": "to",
          "type": "address"
        },
        {
          "indexed": true,
          "internalType": "uint256",
          "name": "tokenId",
          "type": "uint256"
        }
      ],
      "name": "Transfer",
      "type": "event"
    },
    {
      "anonymous": false,
      "inputs": [
        {
          "indexed": false,
          "internalType": "address",
          "name": "account",
          "type": "address"
        }
      ],
      "name": "Unpaused",
      "type": "event"
    },
    {
      "inputs": [],
      "name": "DEFAULT_ADMIN_ROLE",
      "outputs": [
        {
          "internalType": "bytes32",
          "name": "",
          "type": "bytes32"
        }
      ],
      "stateMutability": "view",
      "type": "function"
    },
    {
      "inputs": [],
      "name": "MINTER_ROLE",
      "outputs": [
        {
          "internalType": "bytes32",
          "name": "",
          "type": "bytes32"
        }
      ],
      "stateMutability": "view",
      "type": "function"
    },
    {
      "inputs": [],
      "name": "PAUSER_ROLE",
      "outputs": [
        {
          "internalType": "bytes32",
          "name": "",
          "type": "bytes32"
        }
      ],
      "stateMutability": "view",
      "type": "function"
    },
    {
      "inputs": [],
      "name": "TIER_1_PRICE",
      "outputs": [
        {
          "internalType": "uint256",
          "name": "",
          "type": "uint256"
        }
      ],
      "stateMutability": "view",
      "type": "function"
    },
    {
      "inputs": [],
      "name": "TIER_1_UPPER_BOUND",
      "outputs": [
        {
          "internalType": "uint16",
          "name": "",
          "type": "uint16"
        }
      ],
      "stateMutability": "view",
      "type": "function"
    },
    {
      "inputs": [],
      "name": "TIER_2_PRICE",
      "outputs": [
        {
          "internalType": "uint256",
          "name": "",
          "type": "uint256"
        }
      ],
      "stateMutability": "view",
      "type": "function"
    },
    {
      "inputs": [],
      "name": "TIER_2_UPPER_BOUND",
      "outputs": [
        {
          "internalType": "uint16",
          "name": "",
          "type": "uint16"
        }
      ],
      "stateMutability": "view",
      "type": "function"
    },
    {
      "inputs": [],
      "name": "TIER_3_PRICE",
      "outputs": [
        {
          "internalType": "uint256",
          "name": "",
          "type": "uint256"
        }
      ],
      "stateMutability": "view",
      "type": "function"
    },
    {
      "inputs": [],
      "name": "TIER_3_UPPER_BOUND",
      "outputs": [
        {
          "internalType": "uint16",
          "name": "",
          "type": "uint16"
        }
      ],
      "stateMutability": "view",
      "type": "function"
    },
    {
      "inputs": [],
      "name": "TIER_4_PRICE",
      "outputs": [
        {
          "internalType": "uint256",
          "name": "",
          "type": "uint256"
        }
      ],
      "stateMutability": "view",
      "type": "function"
    },
    {
      "inputs": [],
      "name": "TIER_4_UPPER_BOUND",
      "outputs": [
        {
          "internalType": "uint16",
          "name": "",
          "type": "uint16"
        }
      ],
      "stateMutability": "view",
      "type": "function"
    },
    {
      "inputs": [],
      "name": "TIER_BOUND",
      "outputs": [
        {
          "internalType": "uint16",
          "name": "",
          "type": "uint16"
        }
      ],
      "stateMutability": "view",
      "type": "function"
    },
    {
      "inputs": [
        {
          "internalType": "address",
          "name": "to",
          "type": "address"
        },
        {
          "internalType": "uint256",
          "name": "tokenId",
          "type": "uint256"
        }
      ],
      "name": "approve",
      "outputs": [],
      "stateMutability": "nonpayable",
      "type": "function"
    },
    {
      "inputs": [
        {
          "internalType": "address",
          "name": "owner",
          "type": "address"
        }
      ],
      "name": "balanceOf",
      "outputs": [
        {
          "internalType": "uint256",
          "name": "",
          "type": "uint256"
        }
      ],
      "stateMutability": "view",
      "type": "function"
    },
    {
      "inputs": [
        {
          "internalType": "uint256",
          "name": "tokenId",
          "type": "uint256"
        }
      ],
      "name": "getApproved",
      "outputs": [
        {
          "internalType": "address",
          "name": "",
          "type": "address"
        }
      ],
      "stateMutability": "view",
      "type": "function"
    },
    {
      "inputs": [
        {
          "internalType": "uint256",
          "name": "tokenId",
          "type": "uint256"
        }
      ],
      "name": "getMintPrice",
      "outputs": [
        {
          "internalType": "uint256",
          "name": "",
          "type": "uint256"
        }
      ],
      "stateMutability": "pure",
      "type": "function"
    },
    {
      "inputs": [
        {
          "internalType": "uint256",
          "name": "id",
          "type": "uint256"
        }
      ],
      "name": "getRaribleV2Royalties",
      "outputs": [
        {
          "components": [
            {
              "internalType": "address payable",
              "name": "account",
              "type": "address"
            },
            {
              "internalType": "uint96",
              "name": "value",
              "type": "uint96"
            }
          ],
          "internalType": "struct LibPart.Part[]",
          "name": "",
          "type": "tuple[]"
        }
      ],
      "stateMutability": "view",
      "type": "function"
    },
    {
      "inputs": [
        {
          "internalType": "bytes32",
          "name": "role",
          "type": "bytes32"
        }
      ],
      "name": "getRoleAdmin",
      "outputs": [
        {
          "internalType": "bytes32",
          "name": "",
          "type": "bytes32"
        }
      ],
      "stateMutability": "view",
      "type": "function"
    },
    {
      "inputs": [
        {
          "internalType": "bytes32",
          "name": "role",
          "type": "bytes32"
        },
        {
          "internalType": "uint256",
          "name": "index",
          "type": "uint256"
        }
      ],
      "name": "getRoleMember",
      "outputs": [
        {
          "internalType": "address",
          "name": "",
          "type": "address"
        }
      ],
      "stateMutability": "view",
      "type": "function"
    },
    {
      "inputs": [
        {
          "internalType": "bytes32",
          "name": "role",
          "type": "bytes32"
        }
      ],
      "name": "getRoleMemberCount",
      "outputs": [
        {
          "internalType": "uint256",
          "name": "",
          "type": "uint256"
        }
      ],
      "stateMutability": "view",
      "type": "function"
    },
    {
      "inputs": [
        {
          "internalType": "bytes32",
          "name": "role",
          "type": "bytes32"
        },
        {
          "internalType": "address",
          "name": "account",
          "type": "address"
        }
      ],
      "name": "grantRole",
      "outputs": [],
      "stateMutability": "nonpayable",
      "type": "function"
    },
    {
      "inputs": [
        {
          "internalType": "bytes32",
          "name": "role",
          "type": "bytes32"
        },
        {
          "internalType": "address",
          "name": "account",
          "type": "address"
        }
      ],
      "name": "hasRole",
      "outputs": [
        {
          "internalType": "bool",
          "name": "",
          "type": "bool"
        }
      ],
      "stateMutability": "view",
      "type": "function"
    },
    {
      "inputs": [
        {
          "internalType": "address",
          "name": "owner",
          "type": "address"
        },
        {
          "internalType": "address",
          "name": "operator",
          "type": "address"
        }
      ],
      "name": "isApprovedForAll",
      "outputs": [
        {
          "internalType": "bool",
          "name": "",
          "type": "bool"
        }
      ],
      "stateMutability": "view",
      "type": "function"
    },
    {
      "inputs": [],
      "name": "mintToken",
      "outputs": [],
      "stateMutability": "payable",
      "type": "function"
    },
    {
      "inputs": [],
      "name": "name",
      "outputs": [
        {
          "internalType": "string",
          "name": "",
          "type": "string"
        }
      ],
      "stateMutability": "view",
      "type": "function"
    },
    {
      "inputs": [],
      "name": "owner",
      "outputs": [
        {
          "internalType": "address",
          "name": "",
          "type": "address"
        }
      ],
      "stateMutability": "view",
      "type": "function"
    },
    {
      "inputs": [
        {
          "internalType": "uint256",
          "name": "tokenId",
          "type": "uint256"
        }
      ],
      "name": "ownerOf",
      "outputs": [
        {
          "internalType": "address",
          "name": "",
          "type": "address"
        }
      ],
      "stateMutability": "view",
      "type": "function"
    },
    {
      "inputs": [],
      "name": "pause",
      "outputs": [],
      "stateMutability": "nonpayable",
      "type": "function"
    },
    {
      "inputs": [],
      "name": "paused",
      "outputs": [
        {
          "internalType": "bool",
          "name": "",
          "type": "bool"
        }
      ],
      "stateMutability": "view",
      "type": "function"
    },
    {
      "inputs": [],
      "name": "renounceOwnership",
      "outputs": [],
      "stateMutability": "nonpayable",
      "type": "function"
    },
    {
      "inputs": [
        {
          "internalType": "bytes32",
          "name": "role",
          "type": "bytes32"
        },
        {
          "internalType": "address",
          "name": "account",
          "type": "address"
        }
      ],
      "name": "renounceRole",
      "outputs": [],
      "stateMutability": "nonpayable",
      "type": "function"
    },
    {
      "inputs": [
        {
          "internalType": "bytes32",
          "name": "role",
          "type": "bytes32"
        },
        {
          "internalType": "address",
          "name": "account",
          "type": "address"
        }
      ],
      "name": "revokeRole",
      "outputs": [],
      "stateMutability": "nonpayable",
      "type": "function"
    },
    {
      "inputs": [
        {
          "internalType": "uint256",
          "name": "_tokenId",
          "type": "uint256"
        },
        {
          "internalType": "uint256",
          "name": "_salePrice",
          "type": "uint256"
        }
      ],
      "name": "royaltyInfo",
      "outputs": [
        {
          "internalType": "address",
          "name": "receiver",
          "type": "address"
        },
        {
          "internalType": "uint256",
          "name": "royaltyAmount",
          "type": "uint256"
        }
      ],
      "stateMutability": "view",
      "type": "function"
    },
    {
      "inputs": [
        {
          "internalType": "address",
          "name": "from",
          "type": "address"
        },
        {
          "internalType": "address",
          "name": "to",
          "type": "address"
        },
        {
          "internalType": "uint256",
          "name": "tokenId",
          "type": "uint256"
        }
      ],
      "name": "safeTransferFrom",
      "outputs": [],
      "stateMutability": "nonpayable",
      "type": "function"
    },
    {
      "inputs": [
        {
          "internalType": "address",
          "name": "from",
          "type": "address"
        },
        {
          "internalType": "address",
          "name": "to",
          "type": "address"
        },
        {
          "internalType": "uint256",
          "name": "tokenId",
          "type": "uint256"
        },
        {
          "internalType": "bytes",
          "name": "_data",
          "type": "bytes"
        }
      ],
      "name": "safeTransferFrom",
      "outputs": [],
      "stateMutability": "nonpayable",
      "type": "function"
    },
    {
      "inputs": [
        {
          "internalType": "address",
          "name": "operator",
          "type": "address"
        },
        {
          "internalType": "bool",
          "name": "approved",
          "type": "bool"
        }
      ],
      "name": "setApprovalForAll",
      "outputs": [],
      "stateMutability": "nonpayable",
      "type": "function"
    },
    {
      "inputs": [
        {
          "internalType": "bytes4",
          "name": "interfaceId",
          "type": "bytes4"
        }
      ],
      "name": "supportsInterface",
      "outputs": [
        {
          "internalType": "bool",
          "name": "",
          "type": "bool"
        }
      ],
      "stateMutability": "view",
      "type": "function"
    },
    {
      "inputs": [],
      "name": "symbol",
      "outputs": [
        {
          "internalType": "string",
          "name": "",
          "type": "string"
        }
      ],
      "stateMutability": "view",
      "type": "function"
    },
    {
      "inputs": [
        {
          "internalType": "uint256",
          "name": "index",
          "type": "uint256"
        }
      ],
      "name": "tokenByIndex",
      "outputs": [
        {
          "internalType": "uint256",
          "name": "",
          "type": "uint256"
        }
      ],
      "stateMutability": "view",
      "type": "function"
    },
    {
      "inputs": [
        {
          "internalType": "address",
          "name": "owner",
          "type": "address"
        },
        {
          "internalType": "uint256",
          "name": "index",
          "type": "uint256"
        }
      ],
      "name": "tokenOfOwnerByIndex",
      "outputs": [
        {
          "internalType": "uint256",
          "name": "",
          "type": "uint256"
        }
      ],
      "stateMutability": "view",
      "type": "function"
    },
    {
      "inputs": [
        {
          "internalType": "uint256",
          "name": "tokenId",
          "type": "uint256"
        }
      ],
      "name": "tokenURI",
      "outputs": [
        {
          "internalType": "string",
          "name": "",
          "type": "string"
        }
      ],
      "stateMutability": "view",
      "type": "function"
    },
    {
      "inputs": [],
      "name": "totalSupply",
      "outputs": [
        {
          "internalType": "uint256",
          "name": "",
          "type": "uint256"
        }
      ],
      "stateMutability": "view",
      "type": "function"
    },
    {
      "inputs": [
        {
          "internalType": "address",
          "name": "from",
          "type": "address"
        },
        {
          "internalType": "address",
          "name": "to",
          "type": "address"
        },
        {
          "internalType": "uint256",
          "name": "tokenId",
          "type": "uint256"
        }
      ],
      "name": "transferFrom",
      "outputs": [],
      "stateMutability": "nonpayable",
      "type": "function"
    },
    {
      "inputs": [
        {
          "internalType": "address",
          "name": "newOwner",
          "type": "address"
        }
      ],
      "name": "transferOwnership",
      "outputs": [],
      "stateMutability": "nonpayable",
      "type": "function"
    },
    {
      "inputs": [],
      "name": "unpause",
      "outputs": [],
      "stateMutability": "nonpayable",
      "type": "function"
    },
    {
      "inputs": [],
      "name": "withdraw",
      "outputs": [],
      "stateMutability": "payable",
      "type": "function"
    }
  ],
  "bytecode": "0x60806040523480156200001157600080fd5b5060405162006689380380620066898339818101604052810190620000379190620005ee565b8282816002908051906020019062000051929190620004cc565b5080600390805190602001906200006a929190620004cc565b5050506000600c60006101000a81548160ff021916908315150217905550620000a86200009c6200017060201b60201c565b6200017860201b60201c565b80600e9080519060200190620000c0929190620004cc565b50620000e56000801b620000d96200017060201b60201c565b6200023e60201b60201c565b620001267f9f2df0fed2c77648de5860a4cc508cd0818c85b8b8a1ab4ceeef8d981c8956a66200011a6200017060201b60201c565b6200023e60201b60201c565b620001677f65d7a28e3265b37a6474929f336521b332c1681b933f6cb9f3376673440d862a6200015b6200017060201b60201c565b6200023e60201b60201c565b505050620007ff565b600033905090565b6000600c60019054906101000a900473ffffffffffffffffffffffffffffffffffffffff16905081600c60016101000a81548173ffffffffffffffffffffffffffffffffffffffff021916908373ffffffffffffffffffffffffffffffffffffffff1602179055508173ffffffffffffffffffffffffffffffffffffffff168173ffffffffffffffffffffffffffffffffffffffff167f8be0079c531659141344cd1fd0a4f28419497f9722a3daafe3b4186f6b6457e060405160405180910390a35050565b6200025082826200025460201b60201c565b5050565b6200026b82826200029c60201b62001cd61760201c565b6200029781600160008581526020019081526020016000206200038d60201b62001db61790919060201c565b505050565b620002ae8282620003c560201b60201c565b6200038957600160008084815260200190815260200160002060000160008373ffffffffffffffffffffffffffffffffffffffff1673ffffffffffffffffffffffffffffffffffffffff16815260200190815260200160002060006101000a81548160ff0219169083151502179055506200032e6200017060201b60201c565b73ffffffffffffffffffffffffffffffffffffffff168173ffffffffffffffffffffffffffffffffffffffff16837f2f8788117e7eff1d82e926ec794901d17c78024a50270940304540a733656f0d60405160405180910390a45b5050565b6000620003bd836000018373ffffffffffffffffffffffffffffffffffffffff1660001b6200042f60201b60201c565b905092915050565b600080600084815260200190815260200160002060000160008373ffffffffffffffffffffffffffffffffffffffff1673ffffffffffffffffffffffffffffffffffffffff16815260200190815260200160002060009054906101000a900460ff16905092915050565b6000620004438383620004a960201b60201c565b6200049e578260000182908060018154018082558091505060019003906000526020600020016000909190919091505582600001805490508360010160008481526020019081526020016000208190555060019050620004a3565b600090505b92915050565b600080836001016000848152602001908152602001600020541415905092915050565b828054620004da9062000724565b90600052602060002090601f016020900481019282620004fe57600085556200054a565b82601f106200051957805160ff19168380011785556200054a565b828001600101855582156200054a579182015b82811115620005495782518255916020019190600101906200052c565b5b5090506200055991906200055d565b5090565b5b80821115620005785760008160009055506001016200055e565b5090565b6000620005936200058d84620006b8565b6200068f565b905082815260208101848484011115620005ac57600080fd5b620005b9848285620006ee565b509392505050565b600082601f830112620005d357600080fd5b8151620005e58482602086016200057c565b91505092915050565b6000806000606084860312156200060457600080fd5b600084015167ffffffffffffffff8111156200061f57600080fd5b6200062d86828701620005c1565b935050602084015167ffffffffffffffff8111156200064b57600080fd5b6200065986828701620005c1565b925050604084015167ffffffffffffffff8111156200067757600080fd5b6200068586828701620005c1565b9150509250925092565b60006200069b620006ae565b9050620006a982826200075a565b919050565b6000604051905090565b600067ffffffffffffffff821115620006d657620006d5620007bf565b5b620006e182620007ee565b9050602081019050919050565b60005b838110156200070e578082015181840152602081019050620006f1565b838111156200071e576000848401525b50505050565b600060028204905060018216806200073d57607f821691505b6020821081141562000754576200075362000790565b5b50919050565b6200076582620007ee565b810181811067ffffffffffffffff82111715620007875762000786620007bf565b5b80604052505050565b7f4e487b7100000000000000000000000000000000000000000000000000000000600052602260045260246000fd5b7f4e487b7100000000000000000000000000000000000000000000000000000000600052604160045260246000fd5b6000601f19601f8301169050919050565b615e7a806200080f6000396000f3fe60806040526004361061027d5760003560e01c806370a082311161014f578063b88d4fde116100c1578063d547741f1161007a578063d547741f146109ab578063e4f60105146109d4578063e63ab1e9146109ff578063e985e9c514610a2a578063f2fde38b14610a67578063feb25f6514610a905761027d565b8063b88d4fde14610875578063bebff7b01461089e578063c87b56dd146108c9578063ca15c87314610906578063cad96cca14610943578063d5391393146109805761027d565b806391d148541161011357806391d148541461076357806395d89b41146107a05780639649bd77146107cb578063a217fddf146107f6578063a22cb46514610821578063a4b5b43a1461084a5761027d565b806370a0823114610690578063715018a6146106cd5780638456cb59146106e45780638da5cb5b146106fb5780639010d07c146107265761027d565b80632a55205a116101f357806342842e0e116101ac57806342842e0e1461055a5780634608eb77146105835780634f6ccce7146105ae578063559e775b146105eb5780635c975abb146106285780636352211e146106535761027d565b80632a55205a1461046c5780632f2ff15d146104aa5780632f745c59146104d357806336568abe146105105780633ccfd60b146105395780633f4ba83a146105435761027d565b8063179fc16411610245578063179fc1641461037b57806318160ddd146103a65780632004ffd9146103d157806323b872dd146103db578063248a9ca314610404578063259bb97e146104415761027d565b806301ffc9a71461028257806306fdde03146102bf578063081812fc146102ea578063095ea7b31461032757806310005d6614610350575b600080fd5b34801561028e57600080fd5b506102a960048036038101906102a49190614421565b610abb565b6040516102b69190614c53565b60405180910390f35b3480156102cb57600080fd5b506102d4610b7a565b6040516102e19190614c89565b60405180910390f35b3480156102f657600080fd5b50610311600480360381019061030c9190614473565b610c0c565b60405161031e9190614ba1565b60405180910390f35b34801561033357600080fd5b5061034e60048036038101906103499190614344565b610c91565b005b34801561035c57600080fd5b50610365610da9565b6040516103729190615066565b60405180910390f35b34801561038757600080fd5b50610390610db4565b60405161039d9190615066565b60405180910390f35b3480156103b257600080fd5b506103bb610dbf565b6040516103c89190615066565b60405180910390f35b6103d9610dcc565b005b3480156103e757600080fd5b5061040260048036038101906103fd919061423e565b610e94565b005b34801561041057600080fd5b5061042b60048036038101906104269190614380565b610ef4565b6040516104389190614c6e565b60405180910390f35b34801561044d57600080fd5b50610456610f13565b604051610463919061504b565b60405180910390f35b34801561047857600080fd5b50610493600480360381019061048e919061449c565b610f31565b6040516104a1929190614c08565b60405180910390f35b3480156104b657600080fd5b506104d160048036038101906104cc91906143a9565b611107565b005b3480156104df57600080fd5b506104fa60048036038101906104f59190614344565b611130565b6040516105079190615066565b60405180910390f35b34801561051c57600080fd5b50610537600480360381019061053291906143a9565b6111d5565b005b610541611258565b005b34801561054f57600080fd5b506105586112f5565b005b34801561056657600080fd5b50610581600480360381019061057c919061423e565b61136f565b005b34801561058f57600080fd5b5061059861138f565b6040516105a59190615066565b60405180910390f35b3480156105ba57600080fd5b506105d560048036038101906105d09190614473565b61139a565b6040516105e29190615066565b60405180910390f35b3480156105f757600080fd5b50610612600480360381019061060d9190614473565b611431565b60405161061f9190615066565b60405180910390f35b34801561063457600080fd5b5061063d6114d7565b60405161064a9190614c53565b60405180910390f35b34801561065f57600080fd5b5061067a60048036038101906106759190614473565b6114ee565b6040516106879190614ba1565b60405180910390f35b34801561069c57600080fd5b506106b760048036038101906106b291906141d9565b6115a0565b6040516106c49190615066565b60405180910390f35b3480156106d957600080fd5b506106e2611658565b005b3480156106f057600080fd5b506106f96116e0565b005b34801561070757600080fd5b5061071061175a565b60405161071d9190614ba1565b60405180910390f35b34801561073257600080fd5b5061074d600480360381019061074891906143e5565b611784565b60405161075a9190614ba1565b60405180910390f35b34801561076f57600080fd5b5061078a600480360381019061078591906143a9565b6117b3565b6040516107979190614c53565b60405180910390f35b3480156107ac57600080fd5b506107b561181d565b6040516107c29190614c89565b60405180910390f35b3480156107d757600080fd5b506107e06118af565b6040516107ed9190615066565b60405180910390f35b34801561080257600080fd5b5061080b6118bb565b6040516108189190614c6e565b60405180910390f35b34801561082d57600080fd5b5061084860048036038101906108439190614308565b6118c2565b005b34801561085657600080fd5b5061085f6118d8565b60405161086c919061504b565b60405180910390f35b34801561088157600080fd5b5061089c6004803603810190610897919061428d565b6118ea565b005b3480156108aa57600080fd5b506108b361194c565b6040516108c0919061504b565b60405180910390f35b3480156108d557600080fd5b506108f060048036038101906108eb9190614473565b61196a565b6040516108fd9190614c89565b60405180910390f35b34801561091257600080fd5b5061092d60048036038101906109289190614380565b61199b565b60405161093a9190615066565b60405180910390f35b34801561094f57600080fd5b5061096a60048036038101906109659190614473565b6119bf565b6040516109779190614c31565b60405180910390f35b34801561098c57600080fd5b50610995611ac1565b6040516109a29190614c6e565b60405180910390f35b3480156109b757600080fd5b506109d260048036038101906109cd91906143a9565b611ae5565b005b3480156109e057600080fd5b506109e9611b0e565b6040516109f6919061504b565b60405180910390f35b348015610a0b57600080fd5b50610a14611b20565b604051610a219190614c6e565b60405180910390f35b348015610a3657600080fd5b50610a516004803603810190610a4c9190614202565b611b44565b604051610a5e9190614c53565b60405180910390f35b348015610a7357600080fd5b50610a8e6004803603810190610a8991906141d9565b611bd8565b005b348015610a9c57600080fd5b50610aa5611cd0565b604051610ab2919061504b565b60405180910390f35b600063cad96cca60e01b7bffffffffffffffffffffffffffffffffffffffffffffffffffffffff1916827bffffffffffffffffffffffffffffffffffffffffffffffffffffffff19161415610b135760019050610b75565b632a55205a60e01b7bffffffffffffffffffffffffffffffffffffffffffffffffffffffff1916827bffffffffffffffffffffffffffffffffffffffffffffffffffffffff19161415610b695760019050610b75565b610b7282611de6565b90505b919050565b606060028054610b8990615432565b80601f0160208091040260200160405190810160405280929190818152602001828054610bb590615432565b8015610c025780601f10610bd757610100808354040283529160200191610c02565b820191906000526020600020905b815481529060010190602001808311610be557829003601f168201915b5050505050905090565b6000610c1782611e60565b610c56576040517f08c379a0000000000000000000000000000000000000000000000000000000008152600401610c4d90614ecb565b60405180910390fd5b6006600083815260200190815260200160002060009054906101000a900473ffffffffffffffffffffffffffffffffffffffff169050919050565b6000610c9c826114ee565b90508073ffffffffffffffffffffffffffffffffffffffff168373ffffffffffffffffffffffffffffffffffffffff161415610d0d576040517f08c379a0000000000000000000000000000000000000000000000000000000008152600401610d0490614f4b565b60405180910390fd5b8073ffffffffffffffffffffffffffffffffffffffff16610d2c611ecc565b73ffffffffffffffffffffffffffffffffffffffff161480610d5b5750610d5a81610d55611ecc565b611b44565b5b610d9a576040517f08c379a0000000000000000000000000000000000000000000000000000000008152600401610d9190614e4b565b60405180910390fd5b610da48383611ed4565b505050565b66d529ae9e86000081565b668e1bc9bf04000081565b6000600a80549050905090565b6000610dd6610dbf565b905061115c61ffff16811115610e21576040517f08c379a0000000000000000000000000000000000000000000000000000000008152600401610e1890614fcb565b60405180910390fd5b610e527f9f2df0fed2c77648de5860a4cc508cd0818c85b8b8a1ab4ceeef8d981c8956a6610e4d611ecc565b6117b3565b610e6c57610e5f81611431565b341015610e6b57600080fd5b5b610e7d610e77611ecc565b82611f8d565b610e9181610e8961175a565b61019061215b565b50565b610ea5610e9f611ecc565b826122cc565b610ee4576040517f08c379a0000000000000000000000000000000000000000000000000000000008152600401610edb90614f6b565b60405180910390fd5b610eef8383836123aa565b505050565b6000806000838152602001908152602001600020600101549050919050565b6002600461115c610f2491906151e4565b610f2e9190615246565b81565b6000806000600d6000868152602001908152602001600020805480602002602001604051908101604052809291908181526020016000905b8282101561102b578382906000526020600020016040518060400160405290816000820160009054906101000a900473ffffffffffffffffffffffffffffffffffffffff1673ffffffffffffffffffffffffffffffffffffffff1673ffffffffffffffffffffffffffffffffffffffff1681526020016000820160149054906101000a90046bffffffffffffffffffffffff166bffffffffffffffffffffffff166bffffffffffffffffffffffff168152505081526020019060010190610f69565b5050505090506000815111156110f75780600081518110611075577f4e487b7100000000000000000000000000000000000000000000000000000000600052603260045260246000fd5b602002602001015160000151612710826000815181106110be577f4e487b7100000000000000000000000000000000000000000000000000000000600052603260045260246000fd5b6020026020010151602001516bffffffffffffffffffffffff16866110e39190615282565b6110ed9190615215565b9250925050611100565b60008092509250505b9250929050565b61111082610ef4565b6111218161111c611ecc565b612606565b61112b83836126a3565b505050565b600061113b836115a0565b821061117c576040517f08c379a000000000000000000000000000000000000000000000000000000000815260040161117390614d0b565b60405180910390fd5b600860008473ffffffffffffffffffffffffffffffffffffffff1673ffffffffffffffffffffffffffffffffffffffff168152602001908152602001600020600083815260200190815260200160002054905092915050565b6111dd611ecc565b73ffffffffffffffffffffffffffffffffffffffff168173ffffffffffffffffffffffffffffffffffffffff161461124a576040517f08c379a00000000000000000000000000000000000000000000000000000000081526004016112419061502b565b60405180910390fd5b61125482826126d7565b5050565b61126c6000801b611267611ecc565b6117b3565b61127557600080fd5b600061127f611ecc565b73ffffffffffffffffffffffffffffffffffffffff16476040516112a290614b52565b60006040518083038185875af1925050503d80600081146112df576040519150601f19603f3d011682016040523d82523d6000602084013e6112e4565b606091505b50509050806112f257600080fd5b50565b6113267f65d7a28e3265b37a6474929f336521b332c1681b933f6cb9f3376673440d862a611321611ecc565b6117b3565b611365576040517f08c379a000000000000000000000000000000000000000000000000000000000815260040161135c9061500b565b60405180910390fd5b61136d61270b565b565b61138a838383604051806020016040528060008152506118ea565b505050565b66470de4df82000081565b60006113a4610dbf565b82106113e5576040517f08c379a00000000000000000000000000000000000000000000000000000000081526004016113dc90614f8b565b60405180910390fd5b600a828154811061141f577f4e487b7100000000000000000000000000000000000000000000000000000000600052603260045260246000fd5b90600052602060002001549050919050565b6000600461115c61144291906151e4565b61ffff1682101561145c5766470de4df82000090506114d2565b6002600461115c61146d91906151e4565b6114779190615246565b61ffff1682101561149157668e1bc9bf04000090506114d2565b6003600461115c6114a291906151e4565b6114ac9190615246565b61ffff168210156114c65766d529ae9e86000090506114d2565b67011c37937e08000090505b919050565b6000600c60009054906101000a900460ff16905090565b6000806004600084815260200190815260200160002060009054906101000a900473ffffffffffffffffffffffffffffffffffffffff169050600073ffffffffffffffffffffffffffffffffffffffff168173ffffffffffffffffffffffffffffffffffffffff161415611597576040517f08c379a000000000000000000000000000000000000000000000000000000000815260040161158e90614e8b565b60405180910390fd5b80915050919050565b60008073ffffffffffffffffffffffffffffffffffffffff168273ffffffffffffffffffffffffffffffffffffffff161415611611576040517f08c379a000000000000000000000000000000000000000000000000000000000815260040161160890614e6b565b60405180910390fd5b600560008373ffffffffffffffffffffffffffffffffffffffff1673ffffffffffffffffffffffffffffffffffffffff168152602001908152602001600020549050919050565b611660611ecc565b73ffffffffffffffffffffffffffffffffffffffff1661167e61175a565b73ffffffffffffffffffffffffffffffffffffffff16146116d4576040517f08c379a00000000000000000000000000000000000000000000000000000000081526004016116cb90614eeb565b60405180910390fd5b6116de60006127ad565b565b6117117f65d7a28e3265b37a6474929f336521b332c1681b933f6cb9f3376673440d862a61170c611ecc565b6117b3565b611750576040517f08c379a000000000000000000000000000000000000000000000000000000000815260040161174790614d8b565b60405180910390fd5b611758612873565b565b6000600c60019054906101000a900473ffffffffffffffffffffffffffffffffffffffff16905090565b60006117ab826001600086815260200190815260200160002061291690919063ffffffff16565b905092915050565b600080600084815260200190815260200160002060000160008373ffffffffffffffffffffffffffffffffffffffff1673ffffffffffffffffffffffffffffffffffffffff16815260200190815260200160002060009054906101000a900460ff16905092915050565b60606003805461182c90615432565b80601f016020809104026020016040519081016040528092919081815260200182805461185890615432565b80156118a55780601f1061187a576101008083540402835291602001916118a5565b820191906000526020600020905b81548152906001019060200180831161188857829003601f168201915b5050505050905090565b67011c37937e08000081565b6000801b81565b6118d46118cd611ecc565b8383612930565b5050565b600461115c6118e791906151e4565b81565b6118fb6118f5611ecc565b836122cc565b61193a576040517f08c379a000000000000000000000000000000000000000000000000000000000815260040161193190614f6b565b60405180910390fd5b61194684848484612a9d565b50505050565b6003600461115c61195d91906151e4565b6119679190615246565b81565b606061197582612af9565b6040516020016119859190614b30565b6040516020818303038152906040529050919050565b60006119b860016000848152602001908152602001600020612ba0565b9050919050565b6060600d6000838152602001908152602001600020805480602002602001604051908101604052809291908181526020016000905b82821015611ab6578382906000526020600020016040518060400160405290816000820160009054906101000a900473ffffffffffffffffffffffffffffffffffffffff1673ffffffffffffffffffffffffffffffffffffffff1673ffffffffffffffffffffffffffffffffffffffff1681526020016000820160149054906101000a90046bffffffffffffffffffffffff166bffffffffffffffffffffffff166bffffffffffffffffffffffff1681525050815260200190600101906119f4565b505050509050919050565b7f9f2df0fed2c77648de5860a4cc508cd0818c85b8b8a1ab4ceeef8d981c8956a681565b611aee82610ef4565b611aff81611afa611ecc565b612606565b611b0983836126d7565b505050565b600461115c611b1d91906151e4565b81565b7f65d7a28e3265b37a6474929f336521b332c1681b933f6cb9f3376673440d862a81565b6000600760008473ffffffffffffffffffffffffffffffffffffffff1673ffffffffffffffffffffffffffffffffffffffff16815260200190815260200160002060008373ffffffffffffffffffffffffffffffffffffffff1673ffffffffffffffffffffffffffffffffffffffff16815260200190815260200160002060009054906101000a900460ff16905092915050565b611be0611ecc565b73ffffffffffffffffffffffffffffffffffffffff16611bfe61175a565b73ffffffffffffffffffffffffffffffffffffffff1614611c54576040517f08c379a0000000000000000000000000000000000000000000000000000000008152600401611c4b90614eeb565b60405180910390fd5b600073ffffffffffffffffffffffffffffffffffffffff168173ffffffffffffffffffffffffffffffffffffffff161415611cc4576040517f08c379a0000000000000000000000000000000000000000000000000000000008152600401611cbb90614d4b565b60405180910390fd5b611ccd816127ad565b50565b61115c81565b611ce082826117b3565b611db257600160008084815260200190815260200160002060000160008373ffffffffffffffffffffffffffffffffffffffff1673ffffffffffffffffffffffffffffffffffffffff16815260200190815260200160002060006101000a81548160ff021916908315150217905550611d57611ecc565b73ffffffffffffffffffffffffffffffffffffffff168173ffffffffffffffffffffffffffffffffffffffff16837f2f8788117e7eff1d82e926ec794901d17c78024a50270940304540a733656f0d60405160405180910390a45b5050565b6000611dde836000018373ffffffffffffffffffffffffffffffffffffffff1660001b612bb5565b905092915050565b60007f780e9d63000000000000000000000000000000000000000000000000000000007bffffffffffffffffffffffffffffffffffffffffffffffffffffffff1916827bffffffffffffffffffffffffffffffffffffffffffffffffffffffff19161480611e595750611e5882612c25565b5b9050919050565b60008073ffffffffffffffffffffffffffffffffffffffff166004600084815260200190815260200160002060009054906101000a900473ffffffffffffffffffffffffffffffffffffffff1673ffffffffffffffffffffffffffffffffffffffff1614159050919050565b600033905090565b816006600083815260200190815260200160002060006101000a81548173ffffffffffffffffffffffffffffffffffffffff021916908373ffffffffffffffffffffffffffffffffffffffff160217905550808273ffffffffffffffffffffffffffffffffffffffff16611f47836114ee565b73ffffffffffffffffffffffffffffffffffffffff167f8c5be1e5ebec7d5bd14f71427d1e84f3dd0314c0f7b2291e5b200ac8c7c3b92560405160405180910390a45050565b600073ffffffffffffffffffffffffffffffffffffffff168273ffffffffffffffffffffffffffffffffffffffff161415611ffd576040517f08c379a0000000000000000000000000000000000000000000000000000000008152600401611ff490614eab565b60405180910390fd5b61200681611e60565b15612046576040517f08c379a000000000000000000000000000000000000000000000000000000000815260040161203d90614d6b565b60405180910390fd5b61205260008383612d07565b6001600560008473ffffffffffffffffffffffffffffffffffffffff1673ffffffffffffffffffffffffffffffffffffffff16815260200190815260200160002060008282546120a2919061518e565b92505081905550816004600083815260200190815260200160002060006101000a81548173ffffffffffffffffffffffffffffffffffffffff021916908373ffffffffffffffffffffffffffffffffffffffff160217905550808273ffffffffffffffffffffffffffffffffffffffff16600073ffffffffffffffffffffffffffffffffffffffff167fddf252ad1be2c89b69c2b068fc378daa952ba7f163c4a11628f55a4df523b3ef60405160405180910390a45050565b6000600167ffffffffffffffff81111561219e577f4e487b7100000000000000000000000000000000000000000000000000000000600052604160045260246000fd5b6040519080825280602002602001820160405280156121d757816020015b6121c46140b5565b8152602001906001900390816121bc5790505b5090508181600081518110612215577f4e487b7100000000000000000000000000000000000000000000000000000000600052603260045260246000fd5b6020026020010151602001906bffffffffffffffffffffffff1690816bffffffffffffffffffffffff1681525050828160008151811061227e577f4e487b7100000000000000000000000000000000000000000000000000000000600052603260045260246000fd5b60200260200101516000019073ffffffffffffffffffffffffffffffffffffffff16908173ffffffffffffffffffffffffffffffffffffffff16815250506122c68482612d17565b50505050565b60006122d782611e60565b612316576040517f08c379a000000000000000000000000000000000000000000000000000000000815260040161230d90614deb565b60405180910390fd5b6000612321836114ee565b90508073ffffffffffffffffffffffffffffffffffffffff168473ffffffffffffffffffffffffffffffffffffffff16148061239057508373ffffffffffffffffffffffffffffffffffffffff1661237884610c0c565b73ffffffffffffffffffffffffffffffffffffffff16145b806123a157506123a08185611b44565b5b91505092915050565b8273ffffffffffffffffffffffffffffffffffffffff166123ca826114ee565b73ffffffffffffffffffffffffffffffffffffffff1614612420576040517f08c379a000000000000000000000000000000000000000000000000000000000815260040161241790614f0b565b60405180910390fd5b600073ffffffffffffffffffffffffffffffffffffffff168273ffffffffffffffffffffffffffffffffffffffff161415612490576040517f08c379a000000000000000000000000000000000000000000000000000000000815260040161248790614dab565b60405180910390fd5b61249b838383612d07565b6124a6600082611ed4565b6001600560008573ffffffffffffffffffffffffffffffffffffffff1673ffffffffffffffffffffffffffffffffffffffff16815260200190815260200160002060008282546124f691906152dc565b925050819055506001600560008473ffffffffffffffffffffffffffffffffffffffff1673ffffffffffffffffffffffffffffffffffffffff168152602001908152602001600020600082825461254d919061518e565b92505081905550816004600083815260200190815260200160002060006101000a81548173ffffffffffffffffffffffffffffffffffffffff021916908373ffffffffffffffffffffffffffffffffffffffff160217905550808273ffffffffffffffffffffffffffffffffffffffff168473ffffffffffffffffffffffffffffffffffffffff167fddf252ad1be2c89b69c2b068fc378daa952ba7f163c4a11628f55a4df523b3ef60405160405180910390a4505050565b61261082826117b3565b61269f576126358173ffffffffffffffffffffffffffffffffffffffff166014613032565b6126438360001c6020613032565b604051602001612654929190614b67565b6040516020818303038152906040526040517f08c379a00000000000000000000000000000000000000000000000000000000081526004016126969190614c89565b60405180910390fd5b5050565b6126ad8282611cd6565b6126d28160016000858152602001908152602001600020611db690919063ffffffff16565b505050565b6126e1828261332c565b612706816001600085815260200190815260200160002061340d90919063ffffffff16565b505050565b6127136114d7565b612752576040517f08c379a000000000000000000000000000000000000000000000000000000000815260040161274990614ceb565b60405180910390fd5b6000600c60006101000a81548160ff0219169083151502179055507f5db9ee0a495bf2e6ff9c91a7834c1ba4fdd244a5e8aa4e537bd38aeae4b073aa612796611ecc565b6040516127a39190614ba1565b60405180910390a1565b6000600c60019054906101000a900473ffffffffffffffffffffffffffffffffffffffff16905081600c60016101000a81548173ffffffffffffffffffffffffffffffffffffffff021916908373ffffffffffffffffffffffffffffffffffffffff1602179055508173ffffffffffffffffffffffffffffffffffffffff168173ffffffffffffffffffffffffffffffffffffffff167f8be0079c531659141344cd1fd0a4f28419497f9722a3daafe3b4186f6b6457e060405160405180910390a35050565b61287b6114d7565b156128bb576040517f08c379a00000000000000000000000000000000000000000000000000000000081526004016128b290614e2b565b60405180910390fd5b6001600c60006101000a81548160ff0219169083151502179055507f62e78cea01bee320cd4e420270b5ea74000d11b0c9f74754ebdbfc544b05a2586128ff611ecc565b60405161290c9190614ba1565b60405180910390a1565b6000612925836000018361343d565b60001c905092915050565b8173ffffffffffffffffffffffffffffffffffffffff168373ffffffffffffffffffffffffffffffffffffffff16141561299f576040517f08c379a000000000000000000000000000000000000000000000000000000000815260040161299690614dcb565b60405180910390fd5b80600760008573ffffffffffffffffffffffffffffffffffffffff1673ffffffffffffffffffffffffffffffffffffffff16815260200190815260200160002060008473ffffffffffffffffffffffffffffffffffffffff1673ffffffffffffffffffffffffffffffffffffffff16815260200190815260200160002060006101000a81548160ff0219169083151502179055508173ffffffffffffffffffffffffffffffffffffffff168373ffffffffffffffffffffffffffffffffffffffff167f17307eab39ab6107e8899845ad3d59bd9653f200f220920489ca2b5937696c3183604051612a909190614c53565b60405180910390a3505050565b612aa88484846123aa565b612ab48484848461348e565b612af3576040517f08c379a0000000000000000000000000000000000000000000000000000000008152600401612aea90614d2b565b60405180910390fd5b50505050565b6060612b0482611e60565b612b43576040517f08c379a0000000000000000000000000000000000000000000000000000000008152600401612b3a90614f2b565b60405180910390fd5b6000612b4d613625565b90506000815111612b6d5760405180602001604052806000815250612b98565b80612b77846136b7565b604051602001612b88929190614b0c565b6040516020818303038152906040525b915050919050565b6000612bae82600001613864565b9050919050565b6000612bc18383613875565b612c1a578260000182908060018154018082558091505060019003906000526020600020016000909190919091505582600001805490508360010160008481526020019081526020016000208190555060019050612c1f565b600090505b92915050565b60007f80ac58cd000000000000000000000000000000000000000000000000000000007bffffffffffffffffffffffffffffffffffffffffffffffffffffffff1916827bffffffffffffffffffffffffffffffffffffffffffffffffffffffff19161480612cf057507f5b5e139f000000000000000000000000000000000000000000000000000000007bffffffffffffffffffffffffffffffffffffffffffffffffffffffff1916827bffffffffffffffffffffffffffffffffffffffffffffffffffffffff1916145b80612d005750612cff82613898565b5b9050919050565b612d12838383613912565b505050565b600080600090505b8251811015612fde57600073ffffffffffffffffffffffffffffffffffffffff16838281518110612d79577f4e487b7100000000000000000000000000000000000000000000000000000000600052603260045260246000fd5b60200260200101516000015173ffffffffffffffffffffffffffffffffffffffff161415612ddc576040517f08c379a0000000000000000000000000000000000000000000000000000000008152600401612dd390614feb565b60405180910390fd5b6000838281518110612e17577f4e487b7100000000000000000000000000000000000000000000000000000000600052603260045260246000fd5b6020026020010151602001516bffffffffffffffffffffffff161415612e72576040517f08c379a0000000000000000000000000000000000000000000000000000000008152600401612e6990614e0b565b60405180910390fd5b828181518110612eab577f4e487b7100000000000000000000000000000000000000000000000000000000600052603260045260246000fd5b6020026020010151602001516bffffffffffffffffffffffff1682612ed0919061518e565b9150600d6000858152602001908152602001600020838281518110612f1e577f4e487b7100000000000000000000000000000000000000000000000000000000600052603260045260246000fd5b60200260200101519080600181540180825580915050600190039060005260206000200160009091909190915060008201518160000160006101000a81548173ffffffffffffffffffffffffffffffffffffffff021916908373ffffffffffffffffffffffffffffffffffffffff16021790555060208201518160000160146101000a8154816bffffffffffffffffffffffff02191690836bffffffffffffffffffffffff16021790555050508080612fd690615495565b915050612d1f565b506127108110613023576040517f08c379a000000000000000000000000000000000000000000000000000000000815260040161301a90614fab565b60405180910390fd5b61302d838361396a565b505050565b6060600060028360026130459190615282565b61304f919061518e565b67ffffffffffffffff81111561308e577f4e487b7100000000000000000000000000000000000000000000000000000000600052604160045260246000fd5b6040519080825280601f01601f1916602001820160405280156130c05781602001600182028036833780820191505090505b5090507f30000000000000000000000000000000000000000000000000000000000000008160008151811061311e577f4e487b7100000000000000000000000000000000000000000000000000000000600052603260045260246000fd5b60200101907effffffffffffffffffffffffffffffffffffffffffffffffffffffffffffff1916908160001a9053507f7800000000000000000000000000000000000000000000000000000000000000816001815181106131a8577f4e487b7100000000000000000000000000000000000000000000000000000000600052603260045260246000fd5b60200101907effffffffffffffffffffffffffffffffffffffffffffffffffffffffffffff1916908160001a905350600060018460026131e89190615282565b6131f2919061518e565b90505b60018111156132de577f3031323334353637383961626364656600000000000000000000000000000000600f86166010811061325a577f4e487b7100000000000000000000000000000000000000000000000000000000600052603260045260246000fd5b1a60f81b828281518110613297577f4e487b7100000000000000000000000000000000000000000000000000000000600052603260045260246000fd5b60200101907effffffffffffffffffffffffffffffffffffffffffffffffffffffffffffff1916908160001a905350600485901c9450806132d790615408565b90506131f5565b5060008414613322576040517f08c379a000000000000000000000000000000000000000000000000000000000815260040161331990614cab565b60405180910390fd5b8091505092915050565b61333682826117b3565b1561340957600080600084815260200190815260200160002060000160008373ffffffffffffffffffffffffffffffffffffffff1673ffffffffffffffffffffffffffffffffffffffff16815260200190815260200160002060006101000a81548160ff0219169083151502179055506133ae611ecc565b73ffffffffffffffffffffffffffffffffffffffff168173ffffffffffffffffffffffffffffffffffffffff16837ff6391f5c32d9c69d2a47ea670b442974b53935d1edc7fd64eb21e047a839171b60405160405180910390a45b5050565b6000613435836000018373ffffffffffffffffffffffffffffffffffffffff1660001b6139a7565b905092915050565b600082600001828154811061347b577f4e487b7100000000000000000000000000000000000000000000000000000000600052603260045260246000fd5b9060005260206000200154905092915050565b60006134af8473ffffffffffffffffffffffffffffffffffffffff16613b2d565b15613618578373ffffffffffffffffffffffffffffffffffffffff1663150b7a026134d8611ecc565b8786866040518563ffffffff1660e01b81526004016134fa9493929190614bbc565b602060405180830381600087803b15801561351457600080fd5b505af192505050801561354557506040513d601f19601f82011682018060405250810190613542919061444a565b60015b6135c8573d8060008114613575576040519150601f19603f3d011682016040523d82523d6000602084013e61357a565b606091505b506000815114156135c0576040517f08c379a00000000000000000000000000000000000000000000000000000000081526004016135b790614d2b565b60405180910390fd5b805181602001fd5b63150b7a0260e01b7bffffffffffffffffffffffffffffffffffffffffffffffffffffffff1916817bffffffffffffffffffffffffffffffffffffffffffffffffffffffff19161491505061361d565b600190505b949350505050565b6060600e805461363490615432565b80601f016020809104026020016040519081016040528092919081815260200182805461366090615432565b80156136ad5780601f10613682576101008083540402835291602001916136ad565b820191906000526020600020905b81548152906001019060200180831161369057829003601f168201915b5050505050905090565b606060008214156136ff576040518060400160405280600181526020017f3000000000000000000000000000000000000000000000000000000000000000815250905061385f565b600082905060005b6000821461373157808061371a90615495565b915050600a8261372a9190615215565b9150613707565b60008167ffffffffffffffff811115613773577f4e487b7100000000000000000000000000000000000000000000000000000000600052604160045260246000fd5b6040519080825280601f01601f1916602001820160405280156137a55781602001600182028036833780820191505090505b5090505b60008514613858576001826137be91906152dc565b9150600a856137cd91906154de565b60306137d9919061518e565b60f81b818381518110613815577f4e487b7100000000000000000000000000000000000000000000000000000000600052603260045260246000fd5b60200101907effffffffffffffffffffffffffffffffffffffffffffffffffffffffffffff1916908160001a905350600a856138519190615215565b94506137a9565b8093505050505b919050565b600081600001805490509050919050565b600080836001016000848152602001908152602001600020541415905092915050565b60007f5a05180f000000000000000000000000000000000000000000000000000000007bffffffffffffffffffffffffffffffffffffffffffffffffffffffff1916827bffffffffffffffffffffffffffffffffffffffffffffffffffffffff1916148061390b575061390a82613b40565b5b9050919050565b61391d838383613bba565b6139256114d7565b15613965576040517f08c379a000000000000000000000000000000000000000000000000000000000815260040161395c90614ccb565b60405180910390fd5b505050565b7f3fa96d7b6bcbfe71ef171666d84db3cf52fa2d1c8afdb1cc8e486177f208b7df828260405161399b929190615081565b60405180910390a15050565b60008083600101600084815260200190815260200160002054905060008114613b215760006001826139d991906152dc565b90506000600186600001805490506139f191906152dc565b9050818114613aac576000866000018281548110613a38577f4e487b7100000000000000000000000000000000000000000000000000000000600052603260045260246000fd5b9060005260206000200154905080876000018481548110613a82577f4e487b7100000000000000000000000000000000000000000000000000000000600052603260045260246000fd5b90600052602060002001819055508387600101600083815260200190815260200160002081905550505b85600001805480613ae6577f4e487b7100000000000000000000000000000000000000000000000000000000600052603160045260246000fd5b600190038181906000526020600020016000905590558560010160008681526020019081526020016000206000905560019350505050613b27565b60009150505b92915050565b600080823b905060008111915050919050565b60007f7965db0b000000000000000000000000000000000000000000000000000000007bffffffffffffffffffffffffffffffffffffffffffffffffffffffff1916827bffffffffffffffffffffffffffffffffffffffffffffffffffffffff19161480613bb35750613bb282613cce565b5b9050919050565b613bc5838383613d38565b600073ffffffffffffffffffffffffffffffffffffffff168373ffffffffffffffffffffffffffffffffffffffff161415613c0857613c0381613d3d565b613c47565b8173ffffffffffffffffffffffffffffffffffffffff168373ffffffffffffffffffffffffffffffffffffffff1614613c4657613c458382613d86565b5b5b600073ffffffffffffffffffffffffffffffffffffffff168273ffffffffffffffffffffffffffffffffffffffff161415613c8a57613c8581613ef3565b613cc9565b8273ffffffffffffffffffffffffffffffffffffffff168273ffffffffffffffffffffffffffffffffffffffff1614613cc857613cc78282614036565b5b5b505050565b60007f01ffc9a7000000000000000000000000000000000000000000000000000000007bffffffffffffffffffffffffffffffffffffffffffffffffffffffff1916827bffffffffffffffffffffffffffffffffffffffffffffffffffffffff1916149050919050565b505050565b600a80549050600b600083815260200190815260200160002081905550600a81908060018154018082558091505060019003906000526020600020016000909190919091505550565b60006001613d93846115a0565b613d9d91906152dc565b9050600060096000848152602001908152602001600020549050818114613e82576000600860008673ffffffffffffffffffffffffffffffffffffffff1673ffffffffffffffffffffffffffffffffffffffff168152602001908152602001600020600084815260200190815260200160002054905080600860008773ffffffffffffffffffffffffffffffffffffffff1673ffffffffffffffffffffffffffffffffffffffff168152602001908152602001600020600084815260200190815260200160002081905550816009600083815260200190815260200160002081905550505b6009600084815260200190815260200160002060009055600860008573ffffffffffffffffffffffffffffffffffffffff1673ffffffffffffffffffffffffffffffffffffffff16815260200190815260200160002060008381526020019081526020016000206000905550505050565b60006001600a80549050613f0791906152dc565b90506000600b60008481526020019081526020016000205490506000600a8381548110613f5d577f4e487b7100000000000000000000000000000000000000000000000000000000600052603260045260246000fd5b9060005260206000200154905080600a8381548110613fa5577f4e487b7100000000000000000000000000000000000000000000000000000000600052603260045260246000fd5b906000526020600020018190555081600b600083815260200190815260200160002081905550600b600085815260200190815260200160002060009055600a80548061401a577f4e487b7100000000000000000000000000000000000000000000000000000000600052603160045260246000fd5b6001900381819060005260206000200160009055905550505050565b6000614041836115a0565b905081600860008573ffffffffffffffffffffffffffffffffffffffff1673ffffffffffffffffffffffffffffffffffffffff168152602001908152602001600020600083815260200190815260200160002081905550806009600084815260200190815260200160002081905550505050565b6040518060400160405280600073ffffffffffffffffffffffffffffffffffffffff16815260200160006bffffffffffffffffffffffff1681525090565b6000614106614101846150d6565b6150b1565b90508281526020810184848401111561411e57600080fd5b6141298482856153c6565b509392505050565b60008135905061414081615dd1565b92915050565b60008135905061415581615de8565b92915050565b60008135905061416a81615dff565b92915050565b60008135905061417f81615e16565b92915050565b60008151905061419481615e16565b92915050565b600082601f8301126141ab57600080fd5b81356141bb8482602086016140f3565b91505092915050565b6000813590506141d381615e2d565b92915050565b6000602082840312156141eb57600080fd5b60006141f984828501614131565b91505092915050565b6000806040838503121561421557600080fd5b600061422385828601614131565b925050602061423485828601614131565b9150509250929050565b60008060006060848603121561425357600080fd5b600061426186828701614131565b935050602061427286828701614131565b9250506040614283868287016141c4565b9150509250925092565b600080600080608085870312156142a357600080fd5b60006142b187828801614131565b94505060206142c287828801614131565b93505060406142d3878288016141c4565b925050606085013567ffffffffffffffff8111156142f057600080fd5b6142fc8782880161419a565b91505092959194509250565b6000806040838503121561431b57600080fd5b600061432985828601614131565b925050602061433a85828601614146565b9150509250929050565b6000806040838503121561435757600080fd5b600061436585828601614131565b9250506020614376858286016141c4565b9150509250929050565b60006020828403121561439257600080fd5b60006143a08482850161415b565b91505092915050565b600080604083850312156143bc57600080fd5b60006143ca8582860161415b565b92505060206143db85828601614131565b9150509250929050565b600080604083850312156143f857600080fd5b60006144068582860161415b565b9250506020614417858286016141c4565b9150509250929050565b60006020828403121561443357600080fd5b600061444184828501614170565b91505092915050565b60006020828403121561445c57600080fd5b600061446a84828501614185565b91505092915050565b60006020828403121561448557600080fd5b6000614493848285016141c4565b91505092915050565b600080604083850312156144af57600080fd5b60006144bd858286016141c4565b92505060206144ce858286016141c4565b9150509250929050565b60006144e48383614ab0565b60408301905092915050565b6144f981615322565b82525050565b61450881615310565b82525050565b600061451982615117565b6145238185615145565b935061452e83615107565b8060005b8381101561455f57815161454688826144d8565b975061455183615138565b925050600181019050614532565b5085935050505092915050565b61457581615334565b82525050565b61458481615340565b82525050565b600061459582615122565b61459f8185615156565b93506145af8185602086016153d5565b6145b8816155cb565b840191505092915050565b60006145ce8261512d565b6145d88185615172565b93506145e88185602086016153d5565b6145f1816155cb565b840191505092915050565b60006146078261512d565b6146118185615183565b93506146218185602086016153d5565b80840191505092915050565b600061463a602083615172565b9150614645826155dc565b602082019050919050565b600061465d602b83615172565b915061466882615605565b604082019050919050565b6000614680601483615172565b915061468b82615654565b602082019050919050565b60006146a3602b83615172565b91506146ae8261567d565b604082019050919050565b60006146c6603283615172565b91506146d1826156cc565b604082019050919050565b60006146e9602683615172565b91506146f48261571b565b604082019050919050565b600061470c601c83615172565b91506147178261576a565b602082019050919050565b600061472f603e83615172565b915061473a82615793565b604082019050919050565b6000614752602483615172565b915061475d826157e2565b604082019050919050565b6000614775601983615172565b915061478082615831565b602082019050919050565b6000614798602c83615172565b91506147a38261585a565b604082019050919050565b60006147bb602083615172565b91506147c6826158a9565b602082019050919050565b60006147de601083615172565b91506147e9826158d2565b602082019050919050565b6000614801603883615172565b915061480c826158fb565b604082019050919050565b6000614824602a83615172565b915061482f8261594a565b604082019050919050565b6000614847602983615172565b915061485282615999565b604082019050919050565b600061486a602083615172565b9150614875826159e8565b602082019050919050565b600061488d602c83615172565b915061489882615a11565b604082019050919050565b60006148b0600583615183565b91506148bb82615a60565b600582019050919050565b60006148d3602083615172565b91506148de82615a89565b602082019050919050565b60006148f6602983615172565b915061490182615ab2565b604082019050919050565b6000614919602f83615172565b915061492482615b01565b604082019050919050565b600061493c602183615172565b915061494782615b50565b604082019050919050565b600061495f600083615167565b915061496a82615b9f565b600082019050919050565b6000614982603183615172565b915061498d82615ba2565b604082019050919050565b60006149a5602c83615172565b91506149b082615bf1565b604082019050919050565b60006149c8602583615172565b91506149d382615c40565b604082019050919050565b60006149eb600583615172565b91506149f682615c8f565b602082019050919050565b6000614a0e601783615183565b9150614a1982615cb8565b601782019050919050565b6000614a31601b83615172565b9150614a3c82615ce1565b602082019050919050565b6000614a54604083615172565b9150614a5f82615d0a565b604082019050919050565b6000614a77601183615183565b9150614a8282615d59565b601182019050919050565b6000614a9a602f83615172565b9150614aa582615d82565b604082019050919050565b604082016000820151614ac660008501826144f0565b506020820151614ad96020850182614afd565b50505050565b614ae881615376565b82525050565b614af7816153a4565b82525050565b614b06816153ae565b82525050565b6000614b1882856145fc565b9150614b2482846145fc565b91508190509392505050565b6000614b3c82846145fc565b9150614b47826148a3565b915081905092915050565b6000614b5d82614952565b9150819050919050565b6000614b7282614a01565b9150614b7e82856145fc565b9150614b8982614a6a565b9150614b9582846145fc565b91508190509392505050565b6000602082019050614bb660008301846144ff565b92915050565b6000608082019050614bd160008301876144ff565b614bde60208301866144ff565b614beb6040830185614aee565b8181036060830152614bfd818461458a565b905095945050505050565b6000604082019050614c1d60008301856144ff565b614c2a6020830184614aee565b9392505050565b60006020820190508181036000830152614c4b818461450e565b905092915050565b6000602082019050614c68600083018461456c565b92915050565b6000602082019050614c83600083018461457b565b92915050565b60006020820190508181036000830152614ca381846145c3565b905092915050565b60006020820190508181036000830152614cc48161462d565b9050919050565b60006020820190508181036000830152614ce481614650565b9050919050565b60006020820190508181036000830152614d0481614673565b9050919050565b60006020820190508181036000830152614d2481614696565b9050919050565b60006020820190508181036000830152614d44816146b9565b9050919050565b60006020820190508181036000830152614d64816146dc565b9050919050565b60006020820190508181036000830152614d84816146ff565b9050919050565b60006020820190508181036000830152614da481614722565b9050919050565b60006020820190508181036000830152614dc481614745565b9050919050565b60006020820190508181036000830152614de481614768565b9050919050565b60006020820190508181036000830152614e048161478b565b9050919050565b60006020820190508181036000830152614e24816147ae565b9050919050565b60006020820190508181036000830152614e44816147d1565b9050919050565b60006020820190508181036000830152614e64816147f4565b9050919050565b60006020820190508181036000830152614e8481614817565b9050919050565b60006020820190508181036000830152614ea48161483a565b9050919050565b60006020820190508181036000830152614ec48161485d565b9050919050565b60006020820190508181036000830152614ee481614880565b9050919050565b60006020820190508181036000830152614f04816148c6565b9050919050565b60006020820190508181036000830152614f24816148e9565b9050919050565b60006020820190508181036000830152614f448161490c565b9050919050565b60006020820190508181036000830152614f648161492f565b9050919050565b60006020820190508181036000830152614f8481614975565b9050919050565b60006020820190508181036000830152614fa481614998565b9050919050565b60006020820190508181036000830152614fc4816149bb565b9050919050565b60006020820190508181036000830152614fe4816149de565b9050919050565b6000602082019050818103600083015261500481614a24565b9050919050565b6000602082019050818103600083015261502481614a47565b9050919050565b6000602082019050818103600083015261504481614a8d565b9050919050565b60006020820190506150606000830184614adf565b92915050565b600060208201905061507b6000830184614aee565b92915050565b60006040820190506150966000830185614aee565b81810360208301526150a8818461450e565b90509392505050565b60006150bb6150cc565b90506150c78282615464565b919050565b6000604051905090565b600067ffffffffffffffff8211156150f1576150f061559c565b5b6150fa826155cb565b9050602081019050919050565b6000819050602082019050919050565b600081519050919050565b600081519050919050565b600081519050919050565b6000602082019050919050565b600082825260208201905092915050565b600082825260208201905092915050565b600081905092915050565b600082825260208201905092915050565b600081905092915050565b6000615199826153a4565b91506151a4836153a4565b9250827fffffffffffffffffffffffffffffffffffffffffffffffffffffffffffffffff038211156151d9576151d861550f565b5b828201905092915050565b60006151ef82615376565b91506151fa83615376565b92508261520a5761520961553e565b5b828204905092915050565b6000615220826153a4565b915061522b836153a4565b92508261523b5761523a61553e565b5b828204905092915050565b600061525182615376565b915061525c83615376565b92508161ffff04831182151516156152775761527661550f565b5b828202905092915050565b600061528d826153a4565b9150615298836153a4565b9250817fffffffffffffffffffffffffffffffffffffffffffffffffffffffffffffffff04831182151516156152d1576152d061550f565b5b828202905092915050565b60006152e7826153a4565b91506152f2836153a4565b9250828210156153055761530461550f565b5b828203905092915050565b600061531b82615384565b9050919050565b600061532d82615384565b9050919050565b60008115159050919050565b6000819050919050565b60007fffffffff0000000000000000000000000000000000000000000000000000000082169050919050565b600061ffff82169050919050565b600073ffffffffffffffffffffffffffffffffffffffff82169050919050565b6000819050919050565b60006bffffffffffffffffffffffff82169050919050565b82818337600083830152505050565b60005b838110156153f35780820151818401526020810190506153d8565b83811115615402576000848401525b50505050565b6000615413826153a4565b915060008214156154275761542661550f565b5b600182039050919050565b6000600282049050600182168061544a57607f821691505b6020821081141561545e5761545d61556d565b5b50919050565b61546d826155cb565b810181811067ffffffffffffffff8211171561548c5761548b61559c565b5b80604052505050565b60006154a0826153a4565b91507fffffffffffffffffffffffffffffffffffffffffffffffffffffffffffffffff8214156154d3576154d261550f565b5b600182019050919050565b60006154e9826153a4565b91506154f4836153a4565b9250826155045761550361553e565b5b828206905092915050565b7f4e487b7100000000000000000000000000000000000000000000000000000000600052601160045260246000fd5b7f4e487b7100000000000000000000000000000000000000000000000000000000600052601260045260246000fd5b7f4e487b7100000000000000000000000000000000000000000000000000000000600052602260045260246000fd5b7f4e487b7100000000000000000000000000000000000000000000000000000000600052604160045260246000fd5b6000601f19601f8301169050919050565b7f537472696e67733a20686578206c656e67746820696e73756666696369656e74600082015250565b7f4552433732315061757361626c653a20746f6b656e207472616e73666572207760008201527f68696c6520706175736564000000000000000000000000000000000000000000602082015250565b7f5061757361626c653a206e6f7420706175736564000000000000000000000000600082015250565b7f455243373231456e756d657261626c653a206f776e657220696e646578206f7560008201527f74206f6620626f756e6473000000000000000000000000000000000000000000602082015250565b7f4552433732313a207472616e7366657220746f206e6f6e20455243373231526560008201527f63656976657220696d706c656d656e7465720000000000000000000000000000602082015250565b7f4f776e61626c653a206e6577206f776e657220697320746865207a65726f206160008201527f6464726573730000000000000000000000000000000000000000000000000000602082015250565b7f4552433732313a20746f6b656e20616c7265616479206d696e74656400000000600082015250565b7f4552433732315072657365744d696e7465725061757365724175746f49643a2060008201527f6d75737420686176652070617573657220726f6c6520746f2070617573650000602082015250565b7f4552433732313a207472616e7366657220746f20746865207a65726f2061646460008201527f7265737300000000000000000000000000000000000000000000000000000000602082015250565b7f4552433732313a20617070726f766520746f2063616c6c657200000000000000600082015250565b7f4552433732313a206f70657261746f7220717565727920666f72206e6f6e657860008201527f697374656e7420746f6b656e0000000000000000000000000000000000000000602082015250565b7f526f79616c74792076616c75652073686f756c6420626520706f736974697665600082015250565b7f5061757361626c653a2070617573656400000000000000000000000000000000600082015250565b7f4552433732313a20617070726f76652063616c6c6572206973206e6f74206f7760008201527f6e6572206e6f7220617070726f76656420666f7220616c6c0000000000000000602082015250565b7f4552433732313a2062616c616e636520717565727920666f7220746865207a6560008201527f726f206164647265737300000000000000000000000000000000000000000000602082015250565b7f4552433732313a206f776e657220717565727920666f72206e6f6e657869737460008201527f656e7420746f6b656e0000000000000000000000000000000000000000000000602082015250565b7f4552433732313a206d696e7420746f20746865207a65726f2061646472657373600082015250565b7f4552433732313a20617070726f76656420717565727920666f72206e6f6e657860008201527f697374656e7420746f6b656e0000000000000000000000000000000000000000602082015250565b7f2e6a736f6e000000000000000000000000000000000000000000000000000000600082015250565b7f4f776e61626c653a2063616c6c6572206973206e6f7420746865206f776e6572600082015250565b7f4552433732313a207472616e73666572206f6620746f6b656e2074686174206960008201527f73206e6f74206f776e0000000000000000000000000000000000000000000000602082015250565b7f4552433732314d657461646174613a2055524920717565727920666f72206e6f60008201527f6e6578697374656e7420746f6b656e0000000000000000000000000000000000602082015250565b7f4552433732313a20617070726f76616c20746f2063757272656e74206f776e6560008201527f7200000000000000000000000000000000000000000000000000000000000000602082015250565b50565b7f4552433732313a207472616e736665722063616c6c6572206973206e6f74206f60008201527f776e6572206e6f7220617070726f766564000000000000000000000000000000602082015250565b7f455243373231456e756d657261626c653a20676c6f62616c20696e646578206f60008201527f7574206f6620626f756e64730000000000000000000000000000000000000000602082015250565b7f526f79616c747920746f74616c2076616c75652073686f756c64206265203c2060008201527f3130303030000000000000000000000000000000000000000000000000000000602082015250565b7f4c696d6974000000000000000000000000000000000000000000000000000000600082015250565b7f416363657373436f6e74726f6c3a206163636f756e7420000000000000000000600082015250565b7f526563697069656e742073686f756c642062652070726573656e740000000000600082015250565b7f4552433732315072657365744d696e7465725061757365724175746f49643a2060008201527f6d75737420686176652070617573657220726f6c6520746f20756e7061757365602082015250565b7f206973206d697373696e6720726f6c6520000000000000000000000000000000600082015250565b7f416363657373436f6e74726f6c3a2063616e206f6e6c792072656e6f756e636560008201527f20726f6c657320666f722073656c660000000000000000000000000000000000602082015250565b615dda81615310565b8114615de557600080fd5b50565b615df181615334565b8114615dfc57600080fd5b50565b615e0881615340565b8114615e1357600080fd5b50565b615e1f8161534a565b8114615e2a57600080fd5b50565b615e36816153a4565b8114615e4157600080fd5b5056fea2646970667358221220eaa23659eaa258fb3e1f24bfc726140d554a7c385552f36bb7e12ba30d77452064736f6c63430008040033",
  "linkReferences": {},
  "deployedLinkReferences": {}
}